S00D00004C616262342E7372656372
S11300000C9459000C9400050C946C050C94D805C0
S11300100C9444060C94B0060C9476000C94440D95
S11300200C9476000C94F20C0C941C070C94880726
S11300300C94F4070C9460080C94CC080C943809C4
S11300400C94A4090C94100A0C947C0A0C94E80AED
S11300500C94540B0C94C00B0C942C0CCA02D602B6
S1130060E202EE02FA02060312031E032A03360317
S11300707A047A047A047A047A047A047A044203C5
S11300804E035A03660372037E038A039603A20394
S1130090AE03BA03C603D203DE03EA03F603020483
S11300A00E041A04260432043E044A04560462046C
S11300B06E0411241FBECFEFD4E0DEBFCDBF11E02C
S11300C0A0E0B1E0E4EDFCE102C005900D92A630A1
S11300D0B107D9F724E0A6E0B1E001C01D92A9352B
S11300E0B207E1F70E9495040C94680E0C9400008A
S11300F0EF92FF920F931F93CF93DF93EC017B0159
S1130100CB0164E670E00E94F90D0AE010E0B8014A
S11301100E94F90D862FBE01805D0E94B7022196D0
S1130120C701B8010E94F90DBE01805D0E94B702AB
S1130130DF91CF911F910F91FF90EF9008950E944E
S1130140880460E070E080E090E00E94780060E065
S113015070E083E090E00E94780081E090E00895F0
S1130160CF92DF92EF92FF920F931F9399230CF497
S1130170F7C1823091058CF4E091EC00019709F00D
S11301809BC048C004C0000F111F221F331F9A9543
S1130190D2F7082B0093FB00E3C1843091058CF463
S11301A0E091ED00039709F09FC0B6C004C0000FB2
S11301B0111F221F331F9A95D2F7082B0093FC00BE
S11301C0CFC1863091058CF4E091EE00059709F0DB
S11301D0F5C00CC104C0000F111F221F331F9A95D4
S11301E0D2F7082B0093FD00BBC1883091050CF0B9
S11301F0B7C1E091EF00079709F04AC161C104C09B
S1130200000F111F221F331F9A95D2F7082B00935A
S1130210FE00A6C19E2F9F706B01E12CF12CCC0C2B
S1130220DD1CEE1CFF1CCC0CDD1CEE1CFF1CCC0CDE
S1130230DD1CEE1CFF1CCC0CDD1CEE1CFF1CE92F8E
S1130240EC29E093EC00E1EFF0E080818F7060E056
S113025070E0440F551F661F771F440F551F661F1C
S1130260771F440F551F661F771F440F551F661FC6
S1130270771F482B4083E6EFF0E08081482F4F70D2
S1130280C901A0E0B0E0880F991FAA1FBB1F880F07
S1130290991FAA1FBB1F880F991FAA1FBB1F880F76
S11302A0991FAA1FBB1F842B80838091FB008F7032
S11302B020E030E094E066CF8E2F807F862B809301
S11302C0EC00E1EFF0E08081807F482B4083E6EF93
S11302D0F0E08081807F822B80838091FB00807F8F
S11302E020E030E090E04ECF8E2F807F862B8093ED
S11302F0ED00E2EFF0E08081807F482B4083E7EF60
S1130300F0E08081807F822B80838091FC00807F5D
S113031020E030E090E04ACF9E2F9F706B01E12CEB
S1130320F12CCC0CDD1CEE1CFF1CCC0CDD1CEE1CDB
S1130330FF1CCC0CDD1CEE1CFF1CCC0CDD1CEE1CCD
S1130340FF1CE92FEC29E093ED00E2EFF0E080815F
S11303508F7060E070E0440F551F661F771F440FD5
S1130360551F661F771F440F551F661F771F440FC5
S1130370551F661F771F482B4083E7EFF0E080810D
S1130380482F4F70C901A0E0B0E0880F991FAA1F41
S1130390BB1F880F991FAA1FBB1F880F991FAA1F75
S11303A0BB1F880F991FAA1FBB1F842B80838091BA
S11303B0FC008F7020E030E094E0F8CE8E2F807F38
S11303C0862B8093EE00E3EFF0E08081807F482B62
S11303D04083E8EFF0E08081807F822B80838091EE
S11303E0FD00807F20E030E090E0F4CE6B01E12C52
S11303F0F12CCC0CDD1CEE1CFF1CCC0CDD1CEE1C0B
S1130400FF1CCC0CDD1CEE1CFF1CCC0CDD1CEE1CFC
S1130410FF1C9E2F9F70E92FEC29E093EE00E3EF81
S1130420F0E0808160E070E0440F551F661F771F85
S1130430440F551F661F771F440F551F661F771FF4
S1130440440F551F661F771F8F70482B4083E8EFBA
S1130450F0E04081C901A0E0B0E0880F991FAA1F15
S1130460BB1F880F991FAA1FBB1F880F991FAA1FA4
S1130470BB1F880F991FAA1FBB1F242F2F70822B0D
S113048080838091FD008F7020E030E094E0A2CE64
S11304908E2F807F862B8093EF00E3EFF0E0808146
S11304A0807F482B4083E9EFF0E08081807F822BBE
S11304B080838091FE00807F20E030E090E09FCE3A
S11304C0CB01A0E0B0E0880F991FAA1FBB1F880FC3
S11304D0991FAA1FBB1F880F991FAA1FBB1F880F34
S11304E0991FAA1FBB1FEF708E2B8093EF00E3EFC1
S11304F0F0E0808160E070E0440F551F661F771FB5
S1130500440F551F661F771F440F551F661F771F23
S1130510440F551F661F771F8F70482B4083E9EFE8
S1130520F0E04081C901A0E0B0E0880F991FAA1F44
S1130530BB1F880F991FAA1FBB1F880F991FAA1FD3
S1130540BB1F880F991FAA1FBB1F242F2F70822B3C
S113055080838091FE008F7020E030E094E04FCEE5
S11305601F910F91FF90EF90DF90CF9008950F931C
S11305701F936630710508F0C8C1DB01482F50E0B5
S1130580FA01F097EB32F10508F0B4C1E25DFF4FD8
S11305900C940D0E05E010E025E030E045E050E05D
S11305A069E070E0CD010E94B000AFC100E010E04E
S11305B021E030E041E050E060E070E0CD010E94D5
S11305C0B000A3C105E010E028E030E041E050E0D5
S11305D061E070E0CD010E94B00097C101E010E03D
S11305E02BE030E041E050E061E070E0CD010E949A
S11305F0B0008BC100E010E02BE030E045E050E0BB
S113060060E070E0CD010E94B0007FC101E010E025
S11306102BE030E044E050E061E070E0CD010E9466
S1130620B00073C101E010E02FE030E044E050E09E
S113063061E070E0CD010E94B00067C104E010E009
S113064020E030E040E050E069E070E0CD010E943D
S1130650B0005BC101E010E02FE030E045E050E085
S113066061E070E0CD010E94B0004FC101E010E0F4
S11306702BE030E045E050E061E070E0CD010E9405
S1130680B00043C100E010E02FE030E045E050E06E
S113069061E070E0CD010E94B00037C101E010E0DC
S11306A02FE030E045E050E061E070E0CD010E94D1
S11306B0B0002BC101E010E024E030E044E050E061
S11306C061E070E0CD010E94B0001FC104E010E0C1
S11306D024E030E046E050E060E070E0CD010E94AC
S11306E0B00013C101E010E026E030E044E050E047
S11306F061E070E0CD010E94B00007C100E010E0AD
S11307002EE030E044E050E061E070E0CD010E9472
S1130710B000FBC001E010E02DE030E044E050E028
S113072061E070E0CD010E94B000EFC000E010E095
S11307302FE030E045E050E060E070E0CD010E9441
S1130740B000E3C002E010E020E030E048E050E018
S113075060E070E0CD010E94B000D7C001E010E07D
S113076021E030E041E050E060E070E0CD010E9423
S1130770B000CBC008E010E026E030E044E050E0F8
S113078068E070E0CD010E94B000BFC001E010E05D
S113079024E030E044E050E060E070E0CD010E94ED
S11307A0B000B3C000E010E025E030E047E050E0E6
S11307B068E070E0CD010E94B000A7C008E010E03E
S11307C025E030E047E050E060E070E0CD010E94B9
S11307D0B0009BC001E010E025E030E045E050E0CF
S11307E061E070E0CD010E94B0008FC000E010E035
S11307F02EE030E045E050E061E070E0CD010E9481
S1130800B00083C009E010E025E030E045E050E0AE
S113081061E070E0CD010E94B00077C008E010E014
S11308202EE030E045E050E061E070E0CD010E9450
S1130830B0006BC001E010E02BE030E044E050E099
S113084061E070E0CD010E94B0005FC002E010E002
S113085020E030E048E050E061E070E0CD010E942B
S1130860B00053C001E010E025E030E045E050E086
S113087060E070E0CD010E94B00047C004E010E0E9
S113088024E030E044E050E068E070E0CD010E94F4
S1130890B0003BC003E010E025E030E045E050E06C
S11308A060E070E0CD010E94B0002FC00CE010E0C9
S11308B020E030E042E050E068E070E0CD010E94CA
S11308C0B00023C002E010E020E030E042E050E05D
S11308D068E070E0CD010E94B00017C005E010E0B0
S11308E020E030E040E050E069E070E0CD010E949B
S11308F0B0000BC002E010E028E030E041E050E03E
S113090061E070E0CD010E94B0001F910F91089545
S113091087EB8093E50087E08093E6008FE0809387
S1130920E70080E88093E4000895CF93DF9300D03C
S113093000D000D0CDB7DEB71A8219821C821B8288
S1130940CE0101960E949F00FFCFCF93DF9300D08A
S1130950CDB7DEB79A83898380910001909101011C
S113096006960E94270E892B59F489819A819093C7
S113097001018093000161E070E006960E94470E39
S11309800F900F90DF91CF9108950F931F93CF9302
S1130990DF93E0910E01F0910F01309761F18091A6
S11309A0040190910501009731F1C0910201D091A9
S11309B00301AA81BB81109779F046815781608534
S11309C0718516960D911D912D913C911997401B9F
S11309D0510B620B730B7AF4FC012081318130934B
S11309E0050120930401D183C08390930301809374
S11309F002010E94A504DF91CF911F910F910895E8
S1130A001F920F920FB60F9211242F933F934F937F
S1130A105F936F937F938F939F93AF93BF93EF9362
S1130A20FF93209106013091070140918400509179
S1130A308500C901032E000CAA0BBB0BDC0199270E
S1130A40882760E070E0842B952BA62BB72B80932E
S1130A50080190930901A0930A01B0930B01B09B84
S1130A601BC04091840050918500C9010196092E54
S1130A70000CAA0BBB0BDC019927882760E070E00F
S1130A80842B952BA62BB72B8093080190930901F7
S1130A90A0930A01B0930B01E091A801F091A90180
S1130AA0309739F060E070E080911001909111016D
S1130AB009950E94C504FF91EF91BF91AF919F9159
S1130AC08F917F916F915F914F913F912F910F90F3
S1130AD00FBE0F901F9018951F920F920FB60F9292
S1130AE011242F933F934F935F936F937F938F932F
S1130AF09F93AF93BF93EF93FF932091060130919F
S1130B0007014091840050918500C901032E000C17
S1130B10AA0BBB0BDC019927882760E070E0842BCB
S1130B20952BA62BB72B8093080190930901A093D2
S1130B300A01B0930B01B09B1BC0409184005091FB
S1130B408500C9010196092E000CAA0BBB0BDC0120
S1130B509927882760E070E0842B952BA62BB72B70
S1130B608093080190930901A0930A01B0930B01AB
S1130B70E091AA01F091AB01309739F061E070E0A7
S1130B80809112019091130109950E94C504FF916F
S1130B90EF91BF91AF919F918F917F916F915F91F1
S1130BA04F913F912F910F900FBE0F901F9018956A
S1130BB01F920F920FB60F9211242F933F934F93CE
S1130BC05F936F937F938F939F93AF93BF93EF93B1
S1130BD0FF932091060130910701409184005091C8
S1130BE08500C901032E000CAA0BBB0BDC0199275D
S1130BF0882760E070E0842B952BA62BB72B80937D
S1130C00080190930901A0930A01B0930B01B09BD2
S1130C101BC04091840050918500C9010196092EA2
S1130C20000CAA0BBB0BDC019927882760E070E05D
S1130C30842B952BA62BB72B809308019093090145
S1130C40A0930A01B0930B01E091AC01F091AD01C6
S1130C50309739F062E070E08091140190911501B1
S1130C6009950E94C504FF91EF91BF91AF919F91A7
S1130C708F917F916F915F914F913F912F910F9041
S1130C800FBE0F901F9018951F920F920FB60F92E0
S1130C9011242F933F934F935F936F937F938F937D
S1130CA09F93AF93BF93EF93FF93209106013091ED
S1130CB007014091840050918500C901032E000C66
S1130CC0AA0BBB0BDC019927882760E070E0842B1A
S1130CD0952BA62BB72B8093080190930901A09321
S1130CE00A01B0930B01B09B1BC04091840050914A
S1130CF08500C9010196092E000CAA0BBB0BDC016F
S1130D009927882760E070E0842B952BA62BB72BBE
S1130D108093080190930901A0930A01B0930B01F9
S1130D20E091AE01F091AF01309739F063E070E0EB
S1130D30809116019091170109950E94C504FF91B5
S1130D40EF91BF91AF919F918F917F916F915F913F
S1130D504F913F912F910F900FBE0F901F901895B8
S1130D601F920F920FB60F9211242F933F934F931C
S1130D705F936F937F938F939F93AF93BF93EF93FF
S1130D80FF93209106013091070140918400509116
S1130D908500C901032E000CAA0BBB0BDC019927AB
S1130DA0882760E070E0842B952BA62BB72B8093CB
S1130DB0080190930901A0930A01B0930B01B09B21
S1130DC01BC04091840050918500C9010196092EF1
S1130DD0000CAA0BBB0BDC019927882760E070E0AC
S1130DE0842B952BA62BB72B809308019093090194
S1130DF0A0930A01B0930B01E091B001F091B1010D
S1130E00309739F064E070E08091180190911901F5
S1130E1009950E94C504FF91EF91BF91AF919F91F5
S1130E208F917F916F915F914F913F912F910F908F
S1130E300FBE0F901F9018951F920F920FB60F922E
S1130E4011242F933F934F935F936F937F938F93CB
S1130E509F93AF93BF93EF93FF932091060130913B
S1130E6007014091840050918500C901032E000CB4
S1130E70AA0BBB0BDC019927882760E070E0842B68
S1130E80952BA62BB72B8093080190930901A0936F
S1130E900A01B0930B01B09B1BC040918400509198
S1130EA08500C9010196092E000CAA0BBB0BDC01BD
S1130EB09927882760E070E0842B952BA62BB72B0D
S1130EC08093080190930901A0930A01B0930B0148
S1130ED0E091B201F091B301309739F065E070E030
S1130EE080911A0190911B0109950E94C504FF91FC
S1130EF0EF91BF91AF919F918F917F916F915F918E
S1130F004F913F912F910F900FBE0F901F90189506
S1130F101F920F920FB60F9211242F933F934F936A
S1130F205F936F937F938F939F93AF93BF93EF934D
S1130F30FF93209106013091070140918400509164
S1130F408500C901032E000CAA0BBB0BDC019927F9
S1130F50882760E070E0842B952BA62BB72B809319
S1130F60080190930901A0930A01B0930B01B09B6F
S1130F701BC04091840050918500C9010196092E3F
S1130F80000CAA0BBB0BDC019927882760E070E0FA
S1130F90842B952BA62BB72B8093080190930901E2
S1130FA0A0930A01B0930B01E091B401F091B50153
S1130FB0309739F066E070E080911C0190911D013A
S1130FC009950E94C504FF91EF91BF91AF919F9144
S1130FD08F917F916F915F914F913F912F910F90DE
S1130FE00FBE0F901F9018951F920F920FB60F927D
S1130FF011242F933F934F935F936F937F938F931A
S11310009F93AF93BF93EF93FF9320910601309189
S113101007014091840050918500C901032E000C02
S1131020AA0BBB0BDC019927882760E070E0842BB6
S1131030952BA62BB72B8093080190930901A093BD
S11310400A01B0930B01B09B1BC0409184005091E6
S11310508500C9010196092E000CAA0BBB0BDC010B
S11310609927882760E070E0842B952BA62BB72B5B
S11310708093080190930901A0930A01B0930B0196
S1131080E091B601F091B701309739F067E070E074
S113109080911E0190911F0109950E94C504FF9142
S11310A0EF91BF91AF919F918F917F916F915F91DC
S11310B04F913F912F910F900FBE0F901F90189555
S11310C01F920F920FB60F9211242F933F934F93B9
S11310D05F936F937F938F939F93AF93BF93EF939C
S11310E0FF932091060130910701409184005091B3
S11310F08500C901032E000CAA0BBB0BDC01992748
S1131100882760E070E0842B952BA62BB72B809367
S1131110080190930901A0930A01B0930B01B09BBD
S11311201BC04091840050918500C9010196092E8D
S1131130000CAA0BBB0BDC019927882760E070E048
S1131140842B952BA62BB72B809308019093090130
S1131150A0930A01B0930B01E091B801F091B90199
S1131160309739F068E070E080912001909121017E
S113117009950E94C504FF91EF91BF91AF919F9192
S11311808F917F916F915F914F913F912F910F902C
S11311900FBE0F901F9018951F920F920FB60F92CB
S11311A011242F933F934F935F936F937F938F9368
S11311B09F93AF93BF93EF93FF93209106013091D8
S11311C007014091840050918500C901032E000C51
S11311D0AA0BBB0BDC019927882760E070E0842B05
S11311E0952BA62BB72B8093080190930901A0930C
S11311F00A01B0930B01B09B1BC040918400509135
S11312008500C9010196092E000CAA0BBB0BDC0159
S11312109927882760E070E0842B952BA62BB72BA9
S11312208093080190930901A0930A01B0930B01E4
S1131230E091BA01F091BB01309739F069E070E0B8
S1131240809122019091230109950E94C504FF9188
S1131250EF91BF91AF919F918F917F916F915F912A
S11312604F913F912F910F900FBE0F901F901895A3
S11312701F920F920FB60F9211242F933F934F9307
S11312805F936F937F938F939F93AF93BF93EF93EA
S1131290FF93209106013091070140918400509101
S11312A08500C901032E000CAA0BBB0BDC01992796
S11312B0882760E070E0842B952BA62BB72B8093B6
S11312C0080190930901A0930A01B0930B01B09B0C
S11312D01BC04091840050918500C9010196092EDC
S11312E0000CAA0BBB0BDC019927882760E070E097
S11312F0842B952BA62BB72B80930801909309017F
S1131300A0930A01B0930B01E091BC01F091BD01DF
S1131310309739F06AE070E08091240190912501C2
S113132009950E94C504FF91EF91BF91AF919F91E0
S11313308F917F916F915F914F913F912F910F907A
S11313400FBE0F901F9018951F920F920FB60F9219
S113135011242F933F934F935F936F937F938F93B6
S11313609F93AF93BF93EF93FF9320910601309126
S113137007014091840050918500C901032E000C9F
S1131380AA0BBB0BDC019927882760E070E0842B53
S1131390952BA62BB72B8093080190930901A0935A
S11313A00A01B0930B01B09B1BC040918400509183
S11313B08500C9010196092E000CAA0BBB0BDC01A8
S11313C09927882760E070E0842B952BA62BB72BF8
S11313D08093080190930901A0930A01B0930B0133
S11313E0E091BE01F091BF01309739F06BE070E0FD
S11313F0809126019091270109950E94C504FF91CF
S1131400EF91BF91AF919F918F917F916F915F9178
S11314104F913F912F910F900FBE0F901F901895F1
S11314201F920F920FB60F9211242F933F934F9355
S11314305F936F937F938F939F93AF93BF93EF9338
S1131440FF9320910601309107014091840050914F
S11314508500C901032E000CAA0BBB0BDC019927E4
S1131460882760E070E0842B952BA62BB72B809304
S1131470080190930901A0930A01B0930B01B09B5A
S11314801BC04091840050918500C9010196092E2A
S1131490000CAA0BBB0BDC019927882760E070E0E5
S11314A0842B952BA62BB72B8093080190930901CD
S11314B0A0930A01B0930B01E091C001F091C10126
S11314C0309739F06CE070E0809128019091290107
S11314D009950E94C504FF91EF91BF91AF919F912F
S11314E08F917F916F915F914F913F912F910F90C9
S11314F00FBE0F901F9018951F920F920FB60F9268
S113150011242F933F934F935F936F937F938F9304
S11315109F93AF93BF93EF93FF9320910601309174
S113152007014091840050918500C901032E000CED
S1131530AA0BBB0BDC019927882760E070E0842BA1
S1131540952BA62BB72B8093080190930901A093A8
S11315500A01B0930B01B09B1BC0409184005091D1
S11315608500C9010196092E000CAA0BBB0BDC01F6
S11315709927882760E070E0842B952BA62BB72B46
S11315808093080190930901A0930A01B0930B0181
S1131590E091C201F091C301309739F06DE070E041
S11315A080912A0190912B0109950E94C504FF9115
S11315B0EF91BF91AF919F918F917F916F915F91C7
S11315C04F913F912F910F900FBE0F901F90189540
S11315D01F920F920FB60F9211242F933F934F93A4
S11315E05F936F937F938F939F93AF93BF93EF9387
S11315F0FF9320910601309107014091840050919E
S11316008500C901032E000CAA0BBB0BDC01992732
S1131610882760E070E0842B952BA62BB72B809352
S1131620080190930901A0930A01B0930B01B09BA8
S11316301BC04091840050918500C9010196092E78
S1131640000CAA0BBB0BDC019927882760E070E033
S1131650842B952BA62BB72B80930801909309011B
S1131660A0930A01B0930B01E091C401F091C5016C
S1131670309739F06EE070E080912C0190912D014B
S113168009950E94C504FF91EF91BF91AF919F917D
S11316908F917F916F915F914F913F912F910F9017
S11316A00FBE0F901F9018951F920F920FB60F92B6
S11316B011242F933F934F935F936F937F938F9353
S11316C09F93AF93BF93EF93FF93209106013091C3
S11316D007014091840050918500C901032E000C3C
S11316E0AA0BBB0BDC019927882760E070E0842BF0
S11316F0952BA62BB72B8093080190930901A093F7
S11317000A01B0930B01B09B1BC04091840050911F
S11317108500C9010196092E000CAA0BBB0BDC0144
S11317209927882760E070E0842B952BA62BB72B94
S11317308093080190930901A0930A01B0930B01CF
S1131740E091C601F091C701309739F06FE070E085
S113175080912E0190912F0109950E94C504FF915B
S1131760EF91BF91AF919F918F917F916F915F9115
S11317704F913F912F910F900FBE0F901F9018958E
S11317801F920F920FB60F9211242F933F934F93F2
S11317905F936F937F938F939F93AF93BF93EF93D5
S11317A0FF932091060130910701409184005091EC
S11317B08500C901032E000CAA0BBB0BDC01992781
S11317C0882760E070E0842B952BA62BB72B8093A1
S11317D0080190930901A0930A01B0930B01B09BF7
S11317E01BC04091840050918500C9010196092EC7
S11317F0000CAA0BBB0BDC019927882760E070E082
S1131800842B952BA62BB72B809308019093090169
S1131810A0930A01B0930B01E091C801F091C901B2
S1131820309739F060E170E080913001909131019E
S113183009950E94C504FF91EF91BF91AF919F91CB
S11318408F917F916F915F914F913F912F910F9065
S11318500FBE0F901F9018951F920F920FB60F9204
S113186011242F933F934F935F936F937F938F93A1
S11318709F93AF93BF93EF93FF9320910601309111
S113188007014091840050918500C901032E000C8A
S1131890AA0BBB0BDC019927882760E070E0842B3E
S11318A0952BA62BB72B8093080190930901A09345
S11318B00A01B0930B01B09B1BC04091840050916E
S11318C08500C9010196092E000CAA0BBB0BDC0193
S11318D09927882760E070E0842B952BA62BB72BE3
S11318E08093080190930901A0930A01B0930B011E
S11318F0E091CA01F091CB01309739F061E170E0D9
S1131900809132019091330109950E94C504FF91A1
S1131910EF91BF91AF919F918F917F916F915F9163
S11319204F913F912F910F900FBE0F901F901895DC
S1131930EF92FF920F931F93CF93DF937B01EB0101
S1131940A881B981109761F1FC0106811781208576
S1131950318516964D915D916D917C91199704177F
S113196015072607370714F41BC0DF01ED91FC911E
S11319701197309749F04681578160857185041726
S11319801507260737078CF7EC01F983E8831097CE
S113199021F4F7019183808307C08D939C9304C045
S11319A0EC01B983A883F5CFDF91CF911F910F91FB
S11319B0FF90EF900895DC01ED91FC911197309721
S11319C059F48FEF8093EC008093ED008093EE0048
S11319D081E083BF8895FDCF208131812D933C9395
S11319E0CF0108951F920F920FB60F9211242F93D7
S11319F03F934F935F936F937F938F939F93EF9353
S1131A00FF9380910601909107010196909307013D
S1131A1080930601E0910C01F0910D01309701F1E2
S1131A20428153816481758186179707C9F4CA017D
S1131A302091840030918500421B530B41305105A5
S1131A4029F48091840090918500019690938900F7
S1131A5080938800EFE6F0E080818260808305C097
S1131A60EFE6F0E080818D7F8083FF91EF919F917D
S1131A708F917F916F915F914F913F912F910F9033
S1131A800FBE0F901F9018951F920F920FB60F92D2
S1131A901124CF92DF92EF92FF922F933F934F93B3
S1131AA05F936F937F938F939F93AF93BF93EF93C2
S1131AB0FF93C0900601D0900701209184003091DB
S1131AC08500B0990FC00D2C000CEE08FF08D6015C
S1131AD0992788276901E12CF12CC82AD92AEA2AF6
S1131AE0FB2A15C020918400309185008FEFC81A1D
S1131AF0D80A0D2C000CEE08FF08D6019927882778
S1131B006901E12CF12CC82AD92AEA2AFB2AE0919E
S1131B100C01F0910D01309709F442C08281938148
S1131B20A481B5818C199D09AE09BF09181619063F
S1131B301A061B06ECF18CE091E00E94DB0C6EE0CF
S1131B4071E00E94980CE0910C01F0910D01309726
S1131B5039F182819381A481B5818C199D09AE09E3
S1131B60BF09181619061A061B062CF721C09C017A
S1131B704091840050918500841B950B019731F4AA
S1131B8020918400309185002F5F3F4F309389006E
S1131B9020938800EFE6F0E080818260808305C0B6
S1131BA0EFE6F0E080818D7F80830E94C5040CC045
S1131BB082819381A481B58120910601309107012E
S1131BC02A173B0769F7D3CFFF91EF91BF91AF91EC
S1131BD09F918F917F916F915F914F913F912F9141
S1131BE0FF90EF90DF90CF900F900FBE0F901F905B
S1131BF0189597FB072E16F4009407D077FD09D0AB
S1131C000E94130E07FC05D03EF4909581959F4FDA
S1131C100895709561957F4F0895EE0FFF1F05900D
S1131C20F491E02D0994AA1BBB1B51E107C0AA1F24
S1131C30BB1FA617B70710F0A61BB70B881F991F69
S1131C405A95A9F780959095BC01CD010895DC01C2
S1131C502D923D924D925D926D927D928D929D92C8
S1131C60AD92BD92CD92DD92ED92FD920D931D93B6
S1131C70CD93DD93FF91EF918DB78D938EB78D93B7
S1131C808FB78D93ED93FD93882799270994DC01F1
S1131C90CB0181309105811D2D903D904D905D903B
S1131CA06D907D908D909D90AD90BD90CD90DD9088
S1131CB0ED90FD900D911D91CD91DD91ED91FD91F2
S1131CC00D90F894FEBF0FBEEDBFED91FD91099408
S1071CD0F894FFCFB2
S1091CD4CC01CC01340137
S9030000FC
