:100000000C9459000C9454070C94C0070C942C08C1
:100010000C9498080C9404090C9476000C94DB0F53
:100020000C9476000C94890F0C9470090C94DC09E4
:100030000C94480A0C94B40A0C94200B0C948C0B6E
:100040000C94F80B0C94640C0C94D00C0C943C0D98
:100050000C94A80D0C94140E0C94800EC103CD03C7
:10006000D903E503F103FD030904150421042D045C
:100070007105710571057105710571057105390409
:10008000450451045D046904750481048D049904D8
:10009000A504B104BD04C904D504E104ED04F904C8
:1000A000050511051D052905350541054D055905B0
:1000B000650511241FBECFEFD4E0DEBFCDBF11E038
:1000C000A0E0B1E0E2EBF6E202C005900D92A830AC
:1000D000B107D9F724E0A8E0B1E001C01D92AB352B
:1000E000B207E1F70E948C050C9457130C940000A2
:1000F000CF92DF92EF92FF920F931F938C010E9499
:1001000086018230910501F11CF4019739F03CC061
:100110008330910571F1049781F136C0D8011696AC
:10012000ED91FC9117973496EE0FFF1FE00FF11F32
:100130000190F081E02D808591858436910524F52C
:1001400001969187808720C0D8011696ED91FC9189
:1001500017973496EE0FFF1FE00FF11F0190F0810B
:10016000E02D8085918599237CF001979187808788
:100170000BC0F8011782168207C081E090E0D80119
:1001800017969C938E931697C12CD12C0F2EF2E0CC
:10019000EF2EF1E0FF2EF02D20E030E0A90160E02D
:1001A00070E0CB010E9490101F910F91FF90EF9093
:1001B000DF90CF900895EF92FF920F931F93CF930C
:1001C000DF93EC017B01CB0164E670E00E94D21268
:1001D0000AE010E0B8010E94D212862FBE01805DB5
:1001E0000E94AE032196C701B8010E94D212BE013F
:1001F000805D0E94AE03DF91CF911F910F91FF9020
:10020000EF900895CF93DF93EC01E885F985608541
:10021000718580E090E00E94DB00EA85FB856085C7
:10022000718584E090E00E94DB008E819F81892BA4
:1002300059F0ECEEF0E080818F7D8083EDEEF0E010
:100240008081806480830AC0EDEEF0E080818F7B46
:100250008083ECEEF0E0808180628083DF91CF913B
:100260000895CF93DF93EC010E947F050E94670100
:10027000CE010E94020181E090E0DF91CF910895CC
:10028000CF93DF93EC0141E068E770E00E949C129D
:1002900042E068E770E0CE010E949C1240E050E02E
:1002A00066E876E0888599850E94A11140E050E0DB
:1002B00066E876E08A859B850E94A111DF91CF9147
:1002C0000895FC017187608753874287089584B140
:1002D0008F7284B98DB1837F8DB985B1806D85B9F9
:1002E0008EB18C608EB98DB3806C8DBBECE6F0E086
:1002F0008081806D8083EBE6F0E080818C6080837C
:10030000E9E6F0E08081826080830895639B13C0FA
:10031000629B14C01C9B15C01E9B16C083B1082E87
:10032000000C990B809590958827990F881F992725
:10033000880F991F089584E090E0089583E090E08D
:10034000089585E090E0089581E090E00895CF92CF
:10035000DF92EF92FF920F931F9399230CF4F7C152
:10036000823091058CF4E091EC00019709F09BC07C
:1003700048C004C0000F111F221F331F9A95D2F7E7
:10038000082B0093FB00E3C1843091058CF4E091CD
:10039000ED00039709F09FC0B6C004C0000F111F05
:1003A000221F331F9A95D2F7082B0093FC00CFC170
:1003B000863091058CF4E091EE00059709F0F5C0C8
:1003C0000CC104C0000F111F221F331F9A95D2F7D2
:1003D000082B0093FD00BBC1883091050CF0B7C11C
:1003E000E091EF00079709F04AC161C104C0000F16
:1003F000111F221F331F9A95D2F7082B0093FE007E
:10040000A6C19E2F9F706B01E12CF12CCC0CDD1C42
:10041000EE1CFF1CCC0CDD1CEE1CFF1CCC0CDD1CF0
:10042000EE1CFF1CCC0CDD1CEE1CFF1CE92FEC2984
:10043000E093EC00E1EFF0E080818F7060E070E02D
:10044000440F551F661F771F440F551F661F771FE8
:10045000440F551F661F771F440F551F661F771FD8
:10046000482B4083E6EFF0E08081482F4F70C901B0
:10047000A0E0B0E0880F991FAA1FBB1F880F991F2B
:10048000AA1FBB1F880F991FAA1FBB1F880F991F88
:10049000AA1FBB1F842B80838091FB008F7020E0FC
:1004A00030E094E066CF8E2F807F862B8093EC0027
:1004B000E1EFF0E08081807F482B4083E6EFF0E0C1
:1004C0008081807F822B80838091FB00807F20E071
:1004D00030E090E04ECF8E2F807F862B8093ED0012
:1004E000E2EFF0E08081807F482B4083E7EFF0E08F
:1004F0008081807F822B80838091FC00807F20E040
:1005000030E090E04ACF9E2F9F706B01E12CF12CE0
:10051000CC0CDD1CEE1CFF1CCC0CDD1CEE1CFF1CEF
:10052000CC0CDD1CEE1CFF1CCC0CDD1CEE1CFF1CDF
:10053000E92FEC29E093ED00E2EFF0E080818F708D
:1005400060E070E0440F551F661F771F440F551F72
:10055000661F771F440F551F661F771F440F551FD7
:10056000661F771F482B4083E7EFF0E08081482F1C
:100570004F70C901A0E0B0E0880F991FAA1FBB1FF0
:10058000880F991FAA1FBB1F880F991FAA1FBB1F87
:10059000880F991FAA1FBB1F842B80838091FC00AA
:1005A0008F7020E030E094E0F8CE8E2F807F862B95
:1005B0008093EE00E3EFF0E08081807F482B408362
:1005C000E8EFF0E08081807F822B80838091FD00C6
:1005D000807F20E030E090E0F4CE6B01E12CF12C44
:1005E000CC0CDD1CEE1CFF1CCC0CDD1CEE1CFF1C1F
:1005F000CC0CDD1CEE1CFF1CCC0CDD1CEE1CFF1C0F
:100600009E2F9F70E92FEC29E093EE00E3EFF0E0DE
:10061000808160E070E0440F551F661F771F440F14
:10062000551F661F771F440F551F661F771F440F06
:10063000551F661F771F8F70482B4083E8EFF0E04F
:100640004081C901A0E0B0E0880F991FAA1FBB1F1D
:10065000880F991FAA1FBB1F880F991FAA1FBB1FB6
:10066000880F991FAA1FBB1F242F2F70822B8083F6
:100670008091FD008F7020E030E094E0A2CE8E2FBC
:10068000807F862B8093EF00E3EFF0E08081807F16
:10069000482B4083E9EFF0E08081807F822B8083CC
:1006A0008091FE00807F20E030E090E09FCECB0183
:1006B000A0E0B0E0880F991FAA1FBB1F880F991FE9
:1006C000AA1FBB1F880F991FAA1FBB1F880F991F46
:1006D000AA1FBB1FEF708E2B8093EF00E3EFF0E0BB
:1006E000808160E070E0440F551F661F771F440F44
:1006F000551F661F771F440F551F661F771F440F36
:10070000551F661F771F8F70482B4083E9EFF0E07D
:100710004081C901A0E0B0E0880F991FAA1FBB1F4C
:10072000880F991FAA1FBB1F880F991FAA1FBB1FE5
:10073000880F991FAA1FBB1F242F2F70822B808325
:100740008091FE008F7020E030E094E04FCE1F914A
:100750000F91FF90EF90DF90CF9008950F931F932C
:100760006630710508F0C8C1DB01482F50E0FA017E
:10077000F097EB32F10508F0B4C1E25DFF4F0C9445
:10078000E61205E010E025E030E045E050E069E0E9
:1007900070E0CD010E94A701AFC100E010E021E0B0
:1007A00030E041E050E060E070E0CD010E94A70140
:1007B000A3C105E010E028E030E041E050E061E056
:1007C00070E0CD010E94A70197C101E010E02BE08D
:1007D00030E041E050E061E070E0CD010E94A7010F
:1007E0008BC100E010E02BE030E045E050E060E03D
:1007F00070E0CD010E94A7017FC101E010E02BE075
:1008000030E044E050E061E070E0CD010E94A701DB
:1008100073C101E010E02FE030E044E050E061E01F
:1008200070E0CD010E94A70167C104E010E020E064
:1008300030E040E050E069E070E0CD010E94A701A7
:100840005BC101E010E02FE030E045E050E061E006
:1008500070E0CD010E94A7014FC101E010E02BE044
:1008600030E045E050E061E070E0CD010E94A7017A
:1008700043C100E010E02FE030E045E050E061E0EF
:1008800070E0CD010E94A70137C101E010E02FE028
:1008900030E045E050E061E070E0CD010E94A7014A
:1008A0002BC101E010E024E030E044E050E061E0E2
:1008B00070E0CD010E94A7011FC104E010E024E018
:1008C00030E046E050E060E070E0CD010E94A7011A
:1008D00013C101E010E026E030E044E050E061E0C8
:1008E00070E0CD010E94A70107C100E010E02EE0FA
:1008F00030E044E050E061E070E0CD010E94A701EB
:10090000FBC001E010E02DE030E044E050E061E0A9
:1009100070E0CD010E94A701EFC000E010E02FE0E1
:1009200030E045E050E060E070E0CD010E94A701BA
:10093000E3C002E010E020E030E048E050E060E09A
:1009400070E0CD010E94A701D7C001E010E021E0D6
:1009500030E041E050E060E070E0CD010E94A7018E
:10096000CBC008E010E026E030E044E050E068E072
:1009700070E0CD010E94A701BFC001E010E024E0BB
:1009800030E044E050E060E070E0CD010E94A7015B
:10099000B3C000E010E025E030E047E050E068E060
:1009A00070E0CD010E94A701A7C008E010E025E09B
:1009B00030E047E050E060E070E0CD010E94A70128
:1009C0009BC001E010E025E030E045E050E061E050
:1009D00070E0CD010E94A7018FC000E010E02EE082
:1009E00030E045E050E061E070E0CD010E94A701F9
:1009F00083C009E010E025E030E045E050E061E030
:100A000070E0CD010E94A70177C008E010E02EE061
:100A100030E045E050E061E070E0CD010E94A701C8
:100A20006BC001E010E02BE030E044E050E061E01A
:100A300070E0CD010E94A7015FC002E010E020E05D
:100A400030E048E050E061E070E0CD010E94A70195
:100A500053C001E010E025E030E045E050E060E008
:100A600070E0CD010E94A70147C004E010E024E03F
:100A700030E044E050E068E070E0CD010E94A70162
:100A80003BC003E010E025E030E045E050E060E0EE
:100A900070E0CD010E94A7012FC00CE010E020E023
:100AA00030E042E050E068E070E0CD010E94A70134
:100AB00023C002E010E020E030E042E050E068E0D7
:100AC00070E0CD010E94A70117C005E010E020E012
:100AD00030E040E050E069E070E0CD010E94A70105
:100AE0000BC002E010E028E030E041E050E061E0BF
:100AF00070E0CD010E94A7011F910F91089587EB2F
:100B00008093E50087E08093E6008FE08093E70024
:100B100080E88093E4000895CF92DF92EF92FF92F5
:100B20000F931F93CF93DF93CDB7DEB7AE970FB67A
:100B3000F894DEBF0FBECDBF1EE0CE0101967C0152
:100B4000FC01812F11928A95E9F743E650E064E0B9
:100B500070E0C7010E946E066E019FE0C90ED11CB5
:100B6000F60111921A95E9F740E550E066E070E071
:100B7000C6010E946E068E01035E1F4F82E1F801DE
:100B800011928A95E9F7A601B701C8010E94610197
:100B9000C8010E94310140E050E060E471E0C8010A
:100BA0000E94B612AE960FB6F894DEBF0FBECDBF50
:100BB000DF91CF911F910F91FF90EF90DF90CF9039
:100BC0000895CF92DF92EF92FF920F931F93FC0153
:100BD00084859585892B09F46EC082859385892B40
:100BE00069F02EB181E090E0068002C0880F991F65
:100BF0000A94E2F7809582238EB90BC02EB181E072
:100C000090E0068002C0880F991F0A94E2F7822BB9
:100C10008EB981E090E022853385232B11F080E0AE
:100C200090E09387828780859185DC01AA0FBB1FA6
:100C3000880F991F880F991F880F991FA80FB91F38
:100C40001A962DE730E00E94EC128B019C0199234B
:100C500024F40D5F1F4F2F4F3F4FA9019801559569
:100C60004795379527955595479537952795DC01F5
:100C7000CB01845C9940A109B1096C017D012AF482
:100C800063E0C60ED11CE11CF11C8F01C701B60147
:100C900095958795779567959595879577956795B8
:100CA000C12CD12C0F2EF1EEEF2EF5E0FF2EF02D02
:100CB0000E9490100CC02EB181E090E0068002C02E
:100CC000880F991F0A94E2F7809582238EB91F91AD
:100CD0000F91FF90EF90DF90CF900895FC0121E0FD
:100CE00030E035832483668377835187408713867A
:100CF0001286158614868DB102C0220F331F6A95A5
:100D0000E2F7282B2DB981E090E0089521E030E052
:100D1000FC01358724870E94E1050895CF93DF9376
:100D200000D000D0CDB7DEB78BEF91E02BED32E0F5
:100D3000FC01709791838083409682179307C1F7D7
:100D40001092CC021092CB02E6E3F1E083E591E051
:100D50009183808380E791E0968F858FADE8B1E045
:100D6000B3AFA2AF1D921C92FA83E983E7E3F3E0ED
:100D7000FC83EB8389819A8106960E9416138B81EE
:100D80009C81E981FA81978B868B918F808F8EE28F
:100D900092E1948F838F158214827D96FA83E98382
:100DA000EB81FC81E05AFF4FFC83EB8389819A81C0
:100DB0008A5A9140F9F6EEECF1E011821082158228
:100DC000148213821282E1E6F0E080E880831082D0
:100DD000109285001092840084E08093810081E06D
:100DE00080936F000F900F900F900F90DF91CF9135
:100DF0000895CF93DF9300D0CDB7DEB79A83898370
:100E0000809100019091010106960E941613892B92
:100E100059F489819A81909301018093000161E0E6
:100E200070E006960E9436130F900F90DF91CF91DD
:100E300008950F931F93CF93DF93E0911001F091EA
:100E40001101309761F180910401909105010097A3
:100E500031F1C0910201D0910301AA81BB811097A9
:100E600079F0468157816085718516960D911D91A7
:100E70002D913C911997401B510B620B730B7AF427
:100E8000FC01208131813093050120930401D1833D
:100E9000C08390930301809302010E94F906DF91C1
:100EA000CF911F910F9108951F920F920FB60F923D
:100EB00011242F933F934F935F936F937F938F935F
:100EC0009F93AF93BF93EF93FF93209108013091CD
:100ED00009014091840050918500C901032E000C46
:100EE000AA0BBB0BDC019927882760E070E0842BFC
:100EF000952BA62BB72B80930A0190930B01A093FF
:100F00000C01B0930D01B09B1BC040918400509127
:100F10008500C9010196092E000CAA0BBB0BDC0150
:100F20009927882760E070E0842B952BA62BB72BA0
:100F300080930A0190930B01A0930C01B0930D01D3
:100F4000E091AA01F091AB01309739F060E070E0D8
:100F5000809112019091130109950E941907FF9148
:100F6000EF91BF91AF919F918F917F916F915F9121
:100F70004F913F912F910F900FBE0F901F9018959A
:100F80001F920F920FB60F9211242F933F934F93FE
:100F90005F936F937F938F939F93AF93BF93EF93E1
:100FA000FF932091080130910901409184005091F4
:100FB0008500C901032E000CAA0BBB0BDC0199278D
:100FC000882760E070E0842B952BA62BB72B8093AD
:100FD0000A0190930B01A0930C01B0930D01B09BFB
:100FE0001BC04091840050918500C9010196092ED3
:100FF000000CAA0BBB0BDC019927882760E070E08E
:10100000842B952BA62BB72B80930A0190930B0171
:10101000A0930C01B0930D01E091AC01F091AD01F2
:10102000309739F061E070E08091140190911501E2
:1010300009950E941907FF91EF91BF91AF919F9180
:101040008F917F916F915F914F913F912F910F9071
:101050000FBE0F901F9018951F920F920FB60F9210
:1010600011242F933F934F935F936F937F938F93AD
:101070009F93AF93BF93EF93FF932091080130911B
:1010800009014091840050918500C901032E000C94
:10109000AA0BBB0BDC019927882760E070E0842B4A
:1010A000952BA62BB72B80930A0190930B01A0934D
:1010B0000C01B0930D01B09B1BC040918400509176
:1010C0008500C9010196092E000CAA0BBB0BDC019F
:1010D0009927882760E070E0842B952BA62BB72BEF
:1010E00080930A0190930B01A0930C01B0930D0122
:1010F000E091AE01F091AF01309739F062E070E01D
:10110000809116019091170109950E941907FF918E
:10111000EF91BF91AF919F918F917F916F915F916F
:101120004F913F912F910F900FBE0F901F901895E8
:101130001F920F920FB60F9211242F933F934F934C
:101140005F936F937F938F939F93AF93BF93EF932F
:10115000FF93209108013091090140918400509142
:101160008500C901032E000CAA0BBB0BDC019927DB
:10117000882760E070E0842B952BA62BB72B8093FB
:101180000A0190930B01A0930C01B0930D01B09B49
:101190001BC04091840050918500C9010196092E21
:1011A000000CAA0BBB0BDC019927882760E070E0DC
:1011B000842B952BA62BB72B80930A0190930B01C0
:1011C000A0930C01B0930D01E091B001F091B10139
:1011D000309739F063E070E0809118019091190127
:1011E00009950E941907FF91EF91BF91AF919F91CF
:1011F0008F917F916F915F914F913F912F910F90C0
:101200000FBE0F901F9018951F920F920FB60F925E
:1012100011242F933F934F935F936F937F938F93FB
:101220009F93AF93BF93EF93FF9320910801309169
:1012300009014091840050918500C901032E000CE2
:10124000AA0BBB0BDC019927882760E070E0842B98
:10125000952BA62BB72B80930A0190930B01A0939B
:101260000C01B0930D01B09B1BC0409184005091C4
:101270008500C9010196092E000CAA0BBB0BDC01ED
:101280009927882760E070E0842B952BA62BB72B3D
:1012900080930A0190930B01A0930C01B0930D0170
:1012A000E091B201F091B301309739F064E070E061
:1012B00080911A0190911B0109950E941907FF91D5
:1012C000EF91BF91AF919F918F917F916F915F91BE
:1012D0004F913F912F910F900FBE0F901F90189537
:1012E0001F920F920FB60F9211242F933F934F939B
:1012F0005F936F937F938F939F93AF93BF93EF937E
:10130000FF93209108013091090140918400509190
:101310008500C901032E000CAA0BBB0BDC01992729
:10132000882760E070E0842B952BA62BB72B809349
:101330000A0190930B01A0930C01B0930D01B09B97
:101340001BC04091840050918500C9010196092E6F
:10135000000CAA0BBB0BDC019927882760E070E02A
:10136000842B952BA62BB72B80930A0190930B010E
:10137000A0930C01B0930D01E091B401F091B5017F
:10138000309739F065E070E080911C0190911D016B
:1013900009950E941907FF91EF91BF91AF919F911D
:1013A0008F917F916F915F914F913F912F910F900E
:1013B0000FBE0F901F9018951F920F920FB60F92AD
:1013C00011242F933F934F935F936F937F938F934A
:1013D0009F93AF93BF93EF93FF93209108013091B8
:1013E00009014091840050918500C901032E000C31
:1013F000AA0BBB0BDC019927882760E070E0842BE7
:10140000952BA62BB72B80930A0190930B01A093E9
:101410000C01B0930D01B09B1BC040918400509112
:101420008500C9010196092E000CAA0BBB0BDC013B
:101430009927882760E070E0842B952BA62BB72B8B
:1014400080930A0190930B01A0930C01B0930D01BE
:10145000E091B601F091B701309739F066E070E0A5
:1014600080911E0190911F0109950E941907FF911B
:10147000EF91BF91AF919F918F917F916F915F910C
:101480004F913F912F910F900FBE0F901F90189585
:101490001F920F920FB60F9211242F933F934F93E9
:1014A0005F936F937F938F939F93AF93BF93EF93CC
:1014B000FF932091080130910901409184005091DF
:1014C0008500C901032E000CAA0BBB0BDC01992778
:1014D000882760E070E0842B952BA62BB72B809398
:1014E0000A0190930B01A0930C01B0930D01B09BE6
:1014F0001BC04091840050918500C9010196092EBE
:10150000000CAA0BBB0BDC019927882760E070E078
:10151000842B952BA62BB72B80930A0190930B015C
:10152000A0930C01B0930D01E091B801F091B901C5
:10153000309739F067E070E08091200190912101AF
:1015400009950E941907FF91EF91BF91AF919F916B
:101550008F917F916F915F914F913F912F910F905C
:101560000FBE0F901F9018951F920F920FB60F92FB
:1015700011242F933F934F935F936F937F938F9398
:101580009F93AF93BF93EF93FF9320910801309106
:1015900009014091840050918500C901032E000C7F
:1015A000AA0BBB0BDC019927882760E070E0842B35
:1015B000952BA62BB72B80930A0190930B01A09338
:1015C0000C01B0930D01B09B1BC040918400509161
:1015D0008500C9010196092E000CAA0BBB0BDC018A
:1015E0009927882760E070E0842B952BA62BB72BDA
:1015F00080930A0190930B01A0930C01B0930D010D
:10160000E091BA01F091BB01309739F068E070E0E9
:10161000809122019091230109950E941907FF9161
:10162000EF91BF91AF919F918F917F916F915F915A
:101630004F913F912F910F900FBE0F901F901895D3
:101640001F920F920FB60F9211242F933F934F9337
:101650005F936F937F938F939F93AF93BF93EF931A
:10166000FF9320910801309109014091840050912D
:101670008500C901032E000CAA0BBB0BDC019927C6
:10168000882760E070E0842B952BA62BB72B8093E6
:101690000A0190930B01A0930C01B0930D01B09B34
:1016A0001BC04091840050918500C9010196092E0C
:1016B000000CAA0BBB0BDC019927882760E070E0C7
:1016C000842B952BA62BB72B80930A0190930B01AB
:1016D000A0930C01B0930D01E091BC01F091BD010C
:1016E000309739F069E070E08091240190912501F4
:1016F00009950E941907FF91EF91BF91AF919F91BA
:101700008F917F916F915F914F913F912F910F90AA
:101710000FBE0F901F9018951F920F920FB60F9249
:1017200011242F933F934F935F936F937F938F93E6
:101730009F93AF93BF93EF93FF9320910801309154
:1017400009014091840050918500C901032E000CCD
:10175000AA0BBB0BDC019927882760E070E0842B83
:10176000952BA62BB72B80930A0190930B01A09386
:101770000C01B0930D01B09B1BC0409184005091AF
:101780008500C9010196092E000CAA0BBB0BDC01D8
:101790009927882760E070E0842B952BA62BB72B28
:1017A00080930A0190930B01A0930C01B0930D015B
:1017B000E091BE01F091BF01309739F06AE070E02E
:1017C000809126019091270109950E941907FF91A8
:1017D000EF91BF91AF919F918F917F916F915F91A9
:1017E0004F913F912F910F900FBE0F901F90189522
:1017F0001F920F920FB60F9211242F933F934F9386
:101800005F936F937F938F939F93AF93BF93EF9368
:10181000FF9320910801309109014091840050917B
:101820008500C901032E000CAA0BBB0BDC01992714
:10183000882760E070E0842B952BA62BB72B809334
:101840000A0190930B01A0930C01B0930D01B09B82
:101850001BC04091840050918500C9010196092E5A
:10186000000CAA0BBB0BDC019927882760E070E015
:10187000842B952BA62BB72B80930A0190930B01F9
:10188000A0930C01B0930D01E091C001F091C10152
:10189000309739F06BE070E0809128019091290138
:1018A00009950E941907FF91EF91BF91AF919F9108
:1018B0008F917F916F915F914F913F912F910F90F9
:1018C0000FBE0F901F9018951F920F920FB60F9298
:1018D00011242F933F934F935F936F937F938F9335
:1018E0009F93AF93BF93EF93FF93209108013091A3
:1018F00009014091840050918500C901032E000C1C
:10190000AA0BBB0BDC019927882760E070E0842BD1
:10191000952BA62BB72B80930A0190930B01A093D4
:101920000C01B0930D01B09B1BC0409184005091FD
:101930008500C9010196092E000CAA0BBB0BDC0126
:101940009927882760E070E0842B952BA62BB72B76
:1019500080930A0190930B01A0930C01B0930D01A9
:10196000E091C201F091C301309739F06CE070E072
:1019700080912A0190912B0109950E941907FF91EE
:10198000EF91BF91AF919F918F917F916F915F91F7
:101990004F913F912F910F900FBE0F901F90189570
:1019A0001F920F920FB60F9211242F933F934F93D4
:1019B0005F936F937F938F939F93AF93BF93EF93B7
:1019C000FF932091080130910901409184005091CA
:1019D0008500C901032E000CAA0BBB0BDC01992763
:1019E000882760E070E0842B952BA62BB72B809383
:1019F0000A0190930B01A0930C01B0930D01B09BD1
:101A00001BC04091840050918500C9010196092EA8
:101A1000000CAA0BBB0BDC019927882760E070E063
:101A2000842B952BA62BB72B80930A0190930B0147
:101A3000A0930C01B0930D01E091C401F091C50198
:101A4000309739F06DE070E080912C0190912D017C
:101A500009950E941907FF91EF91BF91AF919F9156
:101A60008F917F916F915F914F913F912F910F9047
:101A70000FBE0F901F9018951F920F920FB60F92E6
:101A800011242F933F934F935F936F937F938F9383
:101A90009F93AF93BF93EF93FF93209108013091F1
:101AA00009014091840050918500C901032E000C6A
:101AB000AA0BBB0BDC019927882760E070E0842B20
:101AC000952BA62BB72B80930A0190930B01A09323
:101AD0000C01B0930D01B09B1BC04091840050914C
:101AE0008500C9010196092E000CAA0BBB0BDC0175
:101AF0009927882760E070E0842B952BA62BB72BC5
:101B000080930A0190930B01A0930C01B0930D01F7
:101B1000E091C601F091C701309739F06EE070E0B6
:101B200080912E0190912F0109950E941907FF9134
:101B3000EF91BF91AF919F918F917F916F915F9145
:101B40004F913F912F910F900FBE0F901F901895BE
:101B50001F920F920FB60F9211242F933F934F9322
:101B60005F936F937F938F939F93AF93BF93EF9305
:101B7000FF93209108013091090140918400509118
:101B80008500C901032E000CAA0BBB0BDC019927B1
:101B9000882760E070E0842B952BA62BB72B8093D1
:101BA0000A0190930B01A0930C01B0930D01B09B1F
:101BB0001BC04091840050918500C9010196092EF7
:101BC000000CAA0BBB0BDC019927882760E070E0B2
:101BD000842B952BA62BB72B80930A0190930B0196
:101BE000A0930C01B0930D01E091C801F091C901DF
:101BF000309739F06FE070E08091300190913101C1
:101C000009950E941907FF91EF91BF91AF919F91A4
:101C10008F917F916F915F914F913F912F910F9095
:101C20000FBE0F901F9018951F920F920FB60F9234
:101C300011242F933F934F935F936F937F938F93D1
:101C40009F93AF93BF93EF93FF932091080130913F
:101C500009014091840050918500C901032E000CB8
:101C6000AA0BBB0BDC019927882760E070E0842B6E
:101C7000952BA62BB72B80930A0190930B01A09371
:101C80000C01B0930D01B09B1BC04091840050919A
:101C90008500C9010196092E000CAA0BBB0BDC01C3
:101CA0009927882760E070E0842B952BA62BB72B13
:101CB00080930A0190930B01A0930C01B0930D0146
:101CC000E091CA01F091CB01309739F060E170E00A
:101CD000809132019091330109950E941907FF917B
:101CE000EF91BF91AF919F918F917F916F915F9194
:101CF0004F913F912F910F900FBE0F901F9018950D
:101D00001F920F920FB60F9211242F933F934F9370
:101D10005F936F937F938F939F93AF93BF93EF9353
:101D2000FF93209108013091090140918400509166
:101D30008500C901032E000CAA0BBB0BDC019927FF
:101D4000882760E070E0842B952BA62BB72B80931F
:101D50000A0190930B01A0930C01B0930D01B09B6D
:101D60001BC04091840050918500C9010196092E45
:101D7000000CAA0BBB0BDC019927882760E070E000
:101D8000842B952BA62BB72B80930A0190930B01E4
:101D9000A0930C01B0930D01E091CC01F091CD0125
:101DA000309739F061E170E0809134019091350114
:101DB00009950E941907FF91EF91BF91AF919F91F3
:101DC0008F917F916F915F914F913F912F910F90E4
:101DD0000FBE0F901F901895EF92FF920F931F93D5
:101DE000CF93DF937B01EB01A881B981109761F15B
:101DF000FC01068117812085318516964D915D91F4
:101E00006D917C911997041715072607370714F46D
:101E10001BC0DF01ED91FC911197309749F046818D
:101E200057816085718504171507260737078CF7DA
:101E3000EC01F983E883109721F4F7019183808303
:101E400007C08D939C9304C0EC01B983A883F5CFA0
:101E5000DF91CF911F910F91FF90EF900895EF9236
:101E6000FF920F931F93CF93DF937B01EB01A88128
:101E7000B981109761F1FC010281138124813581C0
:101E800012964D915D916D917C91159704171507F0
:101E90002607370714F41BC0DF01ED91FC91119761
:101EA000309749F042815381648175810417150789
:101EB000260737078CF7EC01F983E883109721F4A4
:101EC000F7019183808307C08D939C9304C0EC013C
:101ED000B983A883F5CFDF91CF911F910F91FF9028
:101EE000EF900895DC01ED91FC911197309759F432
:101EF0008FEF8093EC008093ED008093EE0081E003
:101F000083BF8895FDCF208131812D933C93CF01F4
:101F100008951F920F920FB60F9211242F933F93A3
:101F20004F935F936F937F938F939F93EF93FF9361
:101F30008091080190910901019690930901809385
:101F40000801E0910E01F0910F01309701F14281FB
:101F500053816481758186179707C9F4CA0120915E
:101F6000840030918500421B530B4130510529F408
:101F700080918400909185000196909389008093D0
:101F80008800EFE6F0E080818260808305C0EFE6A4
:101F9000F0E080818D7F8083FF91EF919F918F9101
:101FA0007F916F915F914F913F912F910F900FBE55
:101FB0000F901F9018951F920F920FB60F92112439
:101FC000CF92DF92EF92FF922F933F934F935F93C5
:101FD0006F937F938F939F93AF93BF93EF93FF93F1
:101FE000C0900801D09009012091840030918500B3
:101FF000B0990FC00D2C000CEE08FF08D6019927F0
:1020000088276901E12CF12CC82AD92AEA2AFB2A5F
:1020100015C020918400309185008FEFC81AD80A2E
:102020000D2C000CEE08FF08D601992788276901BE
:10203000E12CF12CC82AD92AEA2AFB2AE0910E01C8
:10204000F0910F01309709F442C082819381A481FD
:10205000B5818C199D09AE09BF09181619061A0613
:102060001B06ECF18EE091E00E94720F60E171E0DE
:102070000E94EC0EE0910E01F0910F01309739F1C2
:1020800082819381A481B5818C199D09AE09BF0914
:10209000181619061A061B062CF721C09C01409140
:1020A000840050918500841B950B019731F4209199
:1020B0008400309185002F5F3F4F3093890020933B
:1020C0008800EFE6F0E080818260808305C0EFE663
:1020D000F0E080818D7F80830E9419070CC082818F
:1020E0009381A481B58120910801309109012A17BB
:1020F0003B0769F7D3CFFF91EF91BF91AF919F91CC
:102100008F917F916F915F914F913F912F91FF90B0
:10211000EF90DF90CF900F900FBE0F901F9018950B
:102120003F924F925F926F927F928F929F92AF9267
:10213000BF92CF92DF92EF92FF920F931F93CF93B4
:10214000DF932B013C0149015A018FB78078382E6B
:10215000F89486E091E00E94720FEC011B870A87D9
:10216000FD86EC86DF86CE86332061F0E0910001AB
:10217000F09101010280F381E02D82819381A4819D
:10218000B58108C080910A0190910B01A0910C01CA
:10219000B0910D01480E591E6A1E7B1E4A825B8259
:1021A0006C827D82181419041A041B0444F00F2E4B
:1021B00088248A94982CA82CFFE7BF2EF02D840C3D
:1021C000951CA61CB71C8E829F82A886B98680911A
:1021D0000801909109014091840050918500B099C7
:1021E0000EC0092E000CAA0BBB0BDC019927882717
:1021F00060E070E0842B952BA62BB72B13C02091A9
:102200008400309185000196092E000CAA0BBB0BAF
:10221000DC0199278827A90160E070E0842B952BC9
:10222000A62BB72B481A590A6A0A7B0A14141504FC
:1022300016041704ACF56EE071E0CE010E942F0F7A
:10224000E0910E01F0910F01309721F1828193818D
:10225000A481B58120910801309109012A173B071B
:10226000C9F49C014091840050918500841B950B1A
:10227000019731F420918400309185002F5F3F4F0A
:102280003093890020938800EFE6F0E0808182603F
:10229000808341C0EFE6F0E080818D7F80833BC08A
:1022A00060E171E0CE010E94EC0E3320B9F1809123
:1022B000040190910501009781F1E0910201F091F4
:1022C0000301209110013091110102811381D90184
:1022D00016964D915D916D917C911997D801169646
:1022E0000D911D912D913C911997401B510B620B43
:1022F000730B9AF4DC012D913C91119730930501F9
:1023000020930401ED93FC939093030180930201C9
:102310000E94F90602C0332009F07894CE01DF91C3
:10232000CF911F910F91FF90EF90DF90CF90BF90D2
:10233000AF909F908F907F906F905F904F903F9065
:102340000895CF92DF92EF92FF920F931F93CF9356
:10235000DF93EC017B016A011FB71078F894A88124
:10236000B981109761F11496ED91FC911597309712
:1023700041F0A081B1811496ED91FC9115973097B1
:10238000C1F720910001309101012A173B0721F08C
:10239000112309F43DC007C0112309F43CC078940F
:1023A0008FEF9FEF52C08A819B810097D1F1FC0192
:1023B0001582148236C0789480E090E046C0809107
:1023C00000019091010199838883112329F08A816A
:1023D0009B81019709F07894B601CE01F701099528
:1023E000F82E092F8FB7F894198218828A819B8161
:1023F0008230910538F01B821A82FC01158214820A
:102400000E94F906112351F078948F2D902F1DC052
:102410008FEF9FEF1AC08FEF9FEF17C08F2D902F78
:1024200014C03B832A83F901D583C483CD010E9464
:10243000F906E0910001F091010182819381892BDD
:1024400009F4B9CFF983E883C2CFDF91CF911F910F
:102450000F91FF90EF90DF90CF90089500910001D1
:102460001091010180E191E00E94720FEC01D8010E
:1024700013969C938E93129778944E855F856C8506
:102480007D858A859B850E94A1118FB7F8948091E4
:1024900006019091070199838883D0930701C09327
:1024A0000601E0910201F091030100811181E80130
:1024B0002A813B81A0911001B09111011097C1F0C8
:1024C0002115310559F216968D919D910D90BC9173
:1024D000A02DE9014E815F8168857985841B950B6C
:1024E000A60BB70B181619061A061B060CF0B6CF6A
:1024F0001093030100930201809104019091050162
:1025000091838083F0930501E0930401A09102017F
:10251000B09103011496ED91FC911597309741F01D
:10252000A081B1811496ED91FC9115973097C1F778
:10253000CD010E94F90692CF4231B8F42FB7F8943A
:1025400050E0440F551FFA01EE5EFE4F91838083E9
:10255000FA01E655FE4F7183608341E050E0FC01D3
:102560005383428322230CF4789408958C017B01D9
:102570006A018FB7F8940E948E067894E114F104F2
:1025800041F020E030E0A90160E070E0CB010E9462
:1025900090108FB7F8940E941907789481E083BF58
:1025A0008895FDCF97FB072E16F4009407D077FD92
:1025B00009D00E94F31207FC05D03EF49095819556
:1025C0009F4F0895709561957F4F0895EE0FFF1FFF
:1025D0000590F491E02D09940E940713B7FF089528
:1025E000821B930B0895AA1BBB1B51E107C0AA1FB6
:1025F000BB1FA617B70710F0A61BB70B881F991FA4
:102600005A95A9F780959095BC01CD010895A29F98
:10261000B001B39FC001A39F700D811D1124911DB6
:10262000B29F700D811D1124911D0895DC012D9222
:102630003D924D925D926D927D928D929D92AD9262
:10264000BD92CD92DD92ED92FD920D931D93CD93AF
:10265000DD93FF91EF918DB78D938EB78D938FB7EB
:102660008D93ED93FD93882799270994DC01CB0185
:1026700081309105811D2D903D904D905D906D9024
:102680007D908D909D90AD90BD90CD90DD90ED9022
:10269000FD900D911D91CD91DD91ED91FD910D90EC
:1026A000F894FEBF0FBEEDBFED91FD910994F89433
:0226B000FFCF5A
:0826B200CE01CE013601EB015F
:00000001FF
