S00D00004C616262342E7372656372
S11300000C9459000C9459090C94C5090C94310AA8
S11300100C949D0A0C94090B0C9476000C94E0113A
S11300200C9476000C948E110C94750B0C94E10BCB
S11300300C944D0C0C94B90C0C94250D0C94910D4E
S11300400C94FD0D0C94690E0C94D50E0C94410F78
S11300500C94AD0F0C9419100C948510D104DD048C
S1130060E904F50401050D051905250531053D05CE
S1130070810681068106810681068106810649057D
S1130080550561056D057905850591059D05A9054C
S1130090B505C105CD05D905E505F105FD0509063B
S11300A0150621062D063906450651065D06690624
S11300B0750611241FBECFEFD4E0DEBFCDBF11E023
S11300C0A0E0B1E0ECEBFAE202C005900D92A8309A
S11300D0B107D9F724E0A8E0B1E001C01D92AB3527
S11300E0B207E1F70E941A070C945C150C94000007
S11300F00E948F060E94770281E090E00895EF92BB
S1130100FF920F931F93CF93DF93EC017B01CB01FD
S113011064E670E00E94D7140AE010E0B8010E947F
S1130120D714862FBE01805D0E94BE042196C701AC
S1130130B8010E94D714BE01805D0E94BE04DF9105
S1130140CF911F910F91FF90EF900895CF93DF937C
S1130150EC01E885F985668577856115710511F0EF
S11301606285738580E090E00E947F00EA85FB85CC
S1130170668577856115710511F06285738584E064
S113018090E00E947F008E819F81892B59F0ECEED4
S1130190F0E080818F7D8083EDEEF0E080818064EB
S11301A080830AC0EDEEF0E080818F7B8083ECEEEB
S11301B0F0E0808180628083DF91CF910895CF93B6
S11301C0DF93FC0120893189232B09F09FC0EC01C6
S11301D00E9496028230910589F134F4009709F463
S11301E086C0019759F087C08430910509F452C044
S11301F00CF444C0059709F458C07DC08A899B89D2
S1130200892B09F083C0EE81FF813496EE0FFF1F26
S1130210EC0FFD1F0190F081E02D86859785892BD9
S113022009F474C040E050E06DE778E0CF010E942B
S1130230A61381E090E09B8B8A8B5DC08A899B89A1
S1130240892B09F063C0EE81FF813496EE0FFF1F06
S1130250EC0FFD1F0190F081E02D86859785892B99
S113026009F454C040E050E068E878E0CF010E940F
S1130270A61381E090E09B8B8A8B3DC08A899B8981
S1130280892B09F043C01F821E8281E090E09B8B82
S11302908A8B31C08A899B89892BC1F581E090E0E2
S11302A09F838E839B8B8A8B26C08A899B89892B0B
S11302B069F5EE81FF813496EE0FFF1FEC0FFD1FF1
S11302C00190F081E02D82859385892BF9F0868554
S11302D09785892B21F0CF010E94790803C0CF01B3
S11302E00E94710881E090E09B8B8A8B04C01B8A7A
S11302F01A8A1D8A1C8ACE010E94A60040E050E0A2
S113030060EA76E0CE010C960E94A613DF91CF91AD
S11303100895FC0171876087538742870895CF92BF
S1130320DF92EF92FF920F931F93CF93DF93EC0131
S11303300E9496020197A9F5AC81BD811696ED91B4
S1130340FC9117973496EE0FFF1FEA0FFB1F0190E5
S1130350F081E02D86859785892B19F140E050E0E6
S11303606DE778E0CF010E94A61340E050E066EA12
S113037070E08C819D810E94A613C12CD12C0F2E7C
S1130380FFE8EF2EF1E0FF2EF02D8E012DE63DE08B
S113039040E050E065E37CE080E090E00E9495124C
S11303A002C01F821E82DF91CF911F910F91FF9097
S11303B0EF90DF90CF900895CF92DF92EF92FF926B
S11303C00F931F93CF93DF93EC010E949602029741
S11303D0A9F5AC81BD811696ED91FC9117973496E1
S11303E0EE0FFF1FEA0FFB1F0190F081E02D8685C1
S11303F09785892B19F140E050E068E878E0CF0157
S11304000E94A61340E050E066EA70E08C819D8172
S11304100E94A613C12CD12C0F2EFCEDEF2EF1E07F
S1130420FF2EF02D8E012DE63DE040E050E065E327
S11304307CE080E090E00E94951202C01F821E8240
S1130440DF91CF911F910F91FF90EF90DF90CF90AC
S11304500895CF92DF92EF92FF920F931F93FC01C6
S113046026813781232BE1F58C010E94960281308D
S1130470910519F00297C9F030C081E090E0F801CD
S113048097838683C12CD12C0F2EFFE8EF2EF1E049
S1130490FF2EF02D2AE43BE740E050E062E17AE7EA
S11304A080E090E00E9495121BC081E090E0F8018A
S11304B097838683C12CD12C0F2EFCEDEF2EF1E017
S11304C0FF2EF02D2AE43BE740E050E062E17AE7BA
S11304D080E090E00E94951203C0F8011782168212
S11304E01F910F91FF90EF90DF90CF90089584B10A
S11304F08F7284B98DB1837F8DB985B1806D85B9D3
S11305008EB18C608EB98DB3806C8DBBECE6F0E05F
S11305108081806D8083EBE6F0E080818C60808355
S1130520E9E6F0E08081826080830895639B13C0D4
S1130530629B14C01C9B15C01E9B16C083B1082E61
S1130540000C990B809590958827990F881F9927FF
S1130550880F991F089584E090E0089583E090E067
S1130560089585E090E0089581E090E00895CF92A9
S1130570DF92EF92FF920F931F9399230CF4F7C12C
S1130580823091058CF4E091EC00019709F09BC056
S113059048C004C0000F111F221F331F9A95D2F7C1
S11305A0082B0093FB00E3C1843091058CF4E091A7
S11305B0ED00039709F09FC0B6C004C0000F111FDF
S11305C0221F331F9A95D2F7082B0093FC00CFC14A
S11305D0863091058CF4E091EE00059709F0F5C0A2
S11305E00CC104C0000F111F221F331F9A95D2F7AC
S11305F0082B0093FD00BBC1883091050CF0B7C1F6
S1130600E091EF00079709F04AC161C104C0000FEF
S1130610111F221F331F9A95D2F7082B0093FE0057
S1130620A6C19E2F9F706B01E12CF12CCC0CDD1C1C
S1130630EE1CFF1CCC0CDD1CEE1CFF1CCC0CDD1CCA
S1130640EE1CFF1CCC0CDD1CEE1CFF1CE92FEC295E
S1130650E093EC00E1EFF0E080818F7060E070E007
S1130660440F551F661F771F440F551F661F771FC2
S1130670440F551F661F771F440F551F661F771FB2
S1130680482B4083E6EFF0E08081482F4F70C9018A
S1130690A0E0B0E0880F991FAA1FBB1F880F991F05
S11306A0AA1FBB1F880F991FAA1FBB1F880F991F62
S11306B0AA1FBB1F842B80838091FB008F7020E0D6
S11306C030E094E066CF8E2F807F862B8093EC0001
S11306D0E1EFF0E08081807F482B4083E6EFF0E09B
S11306E08081807F822B80838091FB00807F20E04B
S11306F030E090E04ECF8E2F807F862B8093ED00EC
S1130700E2EFF0E08081807F482B4083E7EFF0E068
S11307108081807F822B80838091FC00807F20E019
S113072030E090E04ACF9E2F9F706B01E12CF12CBA
S1130730CC0CDD1CEE1CFF1CCC0CDD1CEE1CFF1CC9
S1130740CC0CDD1CEE1CFF1CCC0CDD1CEE1CFF1CB9
S1130750E92FEC29E093ED00E2EFF0E080818F7067
S113076060E070E0440F551F661F771F440F551F4C
S1130770661F771F440F551F661F771F440F551FB1
S1130780661F771F482B4083E7EFF0E08081482FF6
S11307904F70C901A0E0B0E0880F991FAA1FBB1FCA
S11307A0880F991FAA1FBB1F880F991FAA1FBB1F61
S11307B0880F991FAA1FBB1F842B80838091FC0084
S11307C08F7020E030E094E0F8CE8E2F807F862B6F
S11307D08093EE00E3EFF0E08081807F482B40833C
S11307E0E8EFF0E08081807F822B80838091FD00A0
S11307F0807F20E030E090E0F4CE6B01E12CF12C1E
S1130800CC0CDD1CEE1CFF1CCC0CDD1CEE1CFF1CF8
S1130810CC0CDD1CEE1CFF1CCC0CDD1CEE1CFF1CE8
S11308209E2F9F70E92FEC29E093EE00E3EFF0E0B8
S1130830808160E070E0440F551F661F771F440FEE
S1130840551F661F771F440F551F661F771F440FE0
S1130850551F661F771F8F70482B4083E8EFF0E029
S11308604081C901A0E0B0E0880F991FAA1FBB1FF7
S1130870880F991FAA1FBB1F880F991FAA1FBB1F90
S1130880880F991FAA1FBB1F242F2F70822B8083D0
S11308908091FD008F7020E030E094E0A2CE8E2F96
S11308A0807F862B8093EF00E3EFF0E08081807FF0
S11308B0482B4083E9EFF0E08081807F822B8083A6
S11308C08091FE00807F20E030E090E09FCECB015D
S11308D0A0E0B0E0880F991FAA1FBB1F880F991FC3
S11308E0AA1FBB1F880F991FAA1FBB1F880F991F20
S11308F0AA1FBB1FEF708E2B8093EF00E3EFF0E095
S1130900808160E070E0440F551F661F771F440F1D
S1130910551F661F771F440F551F661F771F440F0F
S1130920551F661F771F8F70482B4083E9EFF0E057
S11309304081C901A0E0B0E0880F991FAA1FBB1F26
S1130940880F991FAA1FBB1F880F991FAA1FBB1FBF
S1130950880F991FAA1FBB1F242F2F70822B8083FF
S11309608091FE008F7020E030E094E04FCE1F9124
S11309700F91FF90EF90DF90CF9008950F931F9306
S11309806630710508F0C8C1DB01482F50E0FA0158
S1130990F097EB32F10508F0B4C1E25DFF4F0C941F
S11309A0EB1405E010E025E030E045E050E069E0BC
S11309B070E0CD010E94B702AFC100E010E021E079
S11309C030E041E050E060E070E0CD010E94B70209
S11309D0A3C105E010E028E030E041E050E061E030
S11309E070E0CD010E94B70297C101E010E02BE056
S11309F030E041E050E061E070E0CD010E94B702D8
S1130A008BC100E010E02BE030E045E050E060E016
S1130A1070E0CD010E94B7027FC101E010E02BE03D
S1130A2030E044E050E061E070E0CD010E94B702A4
S1130A3073C101E010E02FE030E044E050E061E0F9
S1130A4070E0CD010E94B70267C104E010E020E02D
S1130A5030E040E050E069E070E0CD010E94B70270
S1130A605BC101E010E02FE030E045E050E061E0E0
S1130A7070E0CD010E94B7024FC101E010E02BE00D
S1130A8030E045E050E061E070E0CD010E94B70243
S1130A9043C100E010E02FE030E045E050E061E0C9
S1130AA070E0CD010E94B70237C101E010E02FE0F1
S1130AB030E045E050E061E070E0CD010E94B70213
S1130AC02BC101E010E024E030E044E050E061E0BC
S1130AD070E0CD010E94B7021FC104E010E024E0E1
S1130AE030E046E050E060E070E0CD010E94B702E3
S1130AF013C101E010E026E030E044E050E061E0A2
S1130B0070E0CD010E94B70207C100E010E02EE0C2
S1130B1030E044E050E061E070E0CD010E94B702B3
S1130B20FBC001E010E02DE030E044E050E061E083
S1130B3070E0CD010E94B702EFC000E010E02FE0AA
S1130B4030E045E050E060E070E0CD010E94B70283
S1130B50E3C002E010E020E030E048E050E060E074
S1130B6070E0CD010E94B702D7C001E010E021E09F
S1130B7030E041E050E060E070E0CD010E94B70257
S1130B80CBC008E010E026E030E044E050E068E04C
S1130B9070E0CD010E94B702BFC001E010E024E084
S1130BA030E044E050E060E070E0CD010E94B70224
S1130BB0B3C000E010E025E030E047E050E068E03A
S1130BC070E0CD010E94B702A7C008E010E025E064
S1130BD030E047E050E060E070E0CD010E94B702F1
S1130BE09BC001E010E025E030E045E050E061E02A
S1130BF070E0CD010E94B7028FC000E010E02EE04B
S1130C0030E045E050E061E070E0CD010E94B702C1
S1130C1083C009E010E025E030E045E050E061E009
S1130C2070E0CD010E94B70277C008E010E02EE02A
S1130C3030E045E050E061E070E0CD010E94B70291
S1130C406BC001E010E02BE030E044E050E061E0F4
S1130C5070E0CD010E94B7025FC002E010E020E026
S1130C6030E048E050E061E070E0CD010E94B7025E
S1130C7053C001E010E025E030E045E050E060E0E2
S1130C8070E0CD010E94B70247C004E010E024E008
S1130C9030E044E050E068E070E0CD010E94B7022B
S1130CA03BC003E010E025E030E045E050E060E0C8
S1130CB070E0CD010E94B7022FC00CE010E020E0EC
S1130CC030E042E050E068E070E0CD010E94B702FD
S1130CD023C002E010E020E030E042E050E068E0B1
S1130CE070E0CD010E94B70217C005E010E020E0DB
S1130CF030E040E050E069E070E0CD010E94B702CE
S1130D000BC002E010E028E030E041E050E061E098
S1130D1070E0CD010E94B7021F910F91089587EBF7
S1130D208093E50087E08093E6008FE08093E700FE
S1130D3080E88093E4000895FC01158214820895EC
S1130D40CF92DF92EF92FF920F931F9321E030E056
S1130D50FC0135832483C12CD12C0F2EFCE9EF2E0A
S1130D60F6E0FF2EF02D8C012AE136E040E050E061
S1130D7062EE74E080E090E00E9495121F910F9162
S1130D80FF90EF90DF90CF900895CF92DF92EF9293
S1130D90FF920F931F93CF93DF93EC010C811D817E
S1130DA0C12CD12C0F2EFFEDEF2EF0E0FF2EF02DF5
S1130DB020E030E0A90160E070E0CB010E949512D0
S1130DC00A851B850F2EF9E2EF2EF2E0FF2EF02D9F
S1130DD020E030E0A90160E070E0CB010E949512B0
S1130DE0DF91CF911F910F91FF90EF90DF90CF9003
S1130DF00895CF93DF93EC0141E065EC76E00E9427
S1130E00A11442E065EC76E0CE010E94A11440E01A
S1130E1050E061E778E08E819F810E94A61340E054
S1130E2050E061E778E0888599850E94A613DF91F8
S1130E30CF910895AF92BF92CF92DF92EF92FF923B
S1130E400F931F93CF93DF93CDB7DEB7CE54D10961
S1130E500FB6F894DEBF0FBECDBF1A8219821C8272
S1130E601B827E0185E0E80EF11C80E2F7011192FD
S1130E708A95E9F7CE0101969A8789879A8F898F97
S1130E8043E650E064E070E0C7010E9459086E0137
S1130E90F5E1CF0ED11C40E550E066E070E0C601FC
S1130EA00E9459088E010B5D1F4F86E1F8011192D3
S1130EB08A95E9F7A601B701C8010E9489015E017C
S1130EC0FBE3AF0EB11C88E0F50111928A95E9F7B6
S1130ED021961FAF0EAF2197C8010E947800259676
S1130EE01FAE1EAE259727961FAE1EAE27972996D6
S1130EF01FAF0EAF29972B96FFAEEEAE2B972D9614
S1130F00DFAECEAE2D972F96BFAEAEAE2F9740E09C
S1130F1050E069EF76E0CE018D5B9F4F0E94BB14D9
S1130F20C25BDF4F0FB6F894DEBF0FBECDBFDF91BB
S1130F30CF911F910F91FF90EF90DF90CF90BF90D2
S1130F40AF900895FB0182819381892B61F02EB1CA
S1130F5081E090E0008002C0880F991F0A94E2F7B4
S1130F60822B8EB908952EB181E090E0FB010080C0
S1130F7002C0880F991F0A94E2F7809582238EB9E4
S1130F8008958F929F92AF92BF92CF92DF92EF9289
S1130F90FF920F931F93CF93DF9300D000D0CDB770
S1130FA0DEB78C01FC0186859785892B09F460C026
S1130FB0808591859A838983848595859C838B8399
S1130FC0AE014F5F5F4F62EA77E0848195810E94B2
S1130FD0A61381E090E0F80124853585232B11F0D8
S1130FE080E090E0F8019587848742855385AEE6DA
S1130FF0B0E0A41BB50B2DE730E00E94F1144B01C7
S11310005C0199232CF4F3E08F0E911CA11CB11CFC
S1131010B594A79497948794B594A7949794879438
S1131020A4E6B0E0A41BB50B2DE730E00E94F11458
S11310306B017C0199232CF423E0C20ED11CE11C2A
S1131040F11CC701B6019595879577956795959598
S1131050879577956795C12CD12C0F2EF1ECEF2E47
S1131060F7E0FF2EF02DA50194010E94951210C007
S1131070F801808591859A8389831C821B82AE0145
S11310804F5F5F4F62EA77E0848195810E94A613E7
S11310900F900F900F900F90DF91CF911F910F91B0
S11310A0FF90EF90DF90CF90BF90AF909F908F9084
S11310B00895FC0121E030E037832683608771873F
S11310C05387428715861486178616868DB102C00B
S11310D0220F331F6A95E2F7282B2DB981E090E0A7
S11310E0089521E030E0FC01378726870E94C1077C
S11310F00895FC01178616860895FC012285338520
S11311002336310524F42F5F3F4F33872287089518
S1131110FC01228533851216130624F4215031096B
S1131120338722870895CF93DF9300D000D0CDB7C3
S1131130DEB78BEF91E02BED32E0FC0170979183E9
S11311408083409682179307C1F71092CC021092C5
S1131150CB02E6E3F1E083E591E09183808380E7CD
S113116091E0968F858FADE8B1E0B3AFA2AF1D9249
S11311701C92FA83E983E7E3F3E0FC83EB83898140
S11311809A8106960E941B158B819C81E981FA81C4
S1131190978B868B918F808F83E394E1948F838FD9
S11311A0158214827D96FA83E983EB81FC81E05AEF
S11311B0FF4FFC83EB8389819A818A5A9140F9F627
S11311C0EEECF1E0118210821582148213821282F5
S11311D0E1E6F0E080E880831082109285001092AE
S11311E0840084E08093810081E080936F000F90FD
S11311F00F900F900F90DF91CF910895CF93DF93CD
S113120000D0CDB7DEB79A83898380910001909195
S1131210010106960E941B15892B59F489819A8134
S1131220909301018093000161E070E006960E94B2
S11312303B150F900F90DF91CF9108950F931F935B
S1131240CF93DF93E0911001F0911101309761F198
S11312508091040190910501009731F1C091020140
S1131260D0910301AA81BB81109779F046815781FF
S11312706085718516960D911D912D913C9119975C
S1131280401B510B620B730B7AF4FC0120813181FA
S11312903093050120930401D183C083909303010B
S11312A0809302010E94FE08DF91CF911F910F915C
S11312B008951F920F920FB60F9211242F933F930C
S11312C04F935F936F937F938F939F93AF93BF934A
S11312D0EF93FF932091080130910901409184001C
S11312E050918500C901032E000CAA0BBB0BDC0135
S11312F09927882760E070E0842B952BA62BB72BC9
S113130080930A0190930B01A0930C01B0930D01FB
S1131310B09B1BC04091840050918500C901019687
S1131320092E000CAA0BBB0BDC019927882760E06F
S113133070E0842B952BA62BB72B80930A019093F6
S11313400B01A0930C01B0930D01E091AA01F0915F
S1131350AB01309739F060E070E080911201909118
S1131360130109950E941E09FF91EF91BF91AF915E
S11313709F918F917F916F915F914F913F912F91A9
S11313800F900FBE0F901F9018951F920F920FB6DB
S11313900F9211242F933F934F935F936F937F93F7
S11313A08F939F93AF93BF93EF93FF932091080183
S11313B0309109014091840050918500C901032EA8
S11313C0000CAA0BBB0BDC019927882760E070E0B6
S11313D0842B952BA62BB72B80930A0190930B019A
S11313E0A0930C01B0930D01B09B1BC040918400ED
S11313F050918500C9010196092E000CAA0BBB0B64
S1131400DC019927882760E070E0842B952BA62BBC
S1131410B72B80930A0190930B01A0930C01B09316
S11314200D01E091AC01F091AD01309739F061E02C
S113143070E0809114019091150109950E941E0994
S1131440FF91EF91BF91AF919F918F917F916F9198
S11314505F914F913F912F910F900FBE0F901F906E
S113146018951F920F920FB60F9211242F933F934A
S11314704F935F936F937F938F939F93AF93BF9398
S1131480EF93FF932091080130910901409184006A
S113149050918500C901032E000CAA0BBB0BDC0183
S11314A09927882760E070E0842B952BA62BB72B17
S11314B080930A0190930B01A0930C01B0930D014A
S11314C0B09B1BC04091840050918500C9010196D6
S11314D0092E000CAA0BBB0BDC019927882760E0BE
S11314E070E0842B952BA62BB72B80930A01909345
S11314F00B01A0930C01B0930D01E091AE01F091AA
S1131500AF01309739F062E070E08091160190915C
S1131510170109950E941E09FF91EF91BF91AF91A8
S11315209F918F917F916F915F914F913F912F91F7
S11315300F900FBE0F901F9018951F920F920FB629
S11315400F9211242F933F934F935F936F937F9345
S11315508F939F93AF93BF93EF93FF9320910801D1
S1131560309109014091840050918500C901032EF6
S1131570000CAA0BBB0BDC019927882760E070E004
S1131580842B952BA62BB72B80930A0190930B01E8
S1131590A0930C01B0930D01B09B1BC0409184003B
S11315A050918500C9010196092E000CAA0BBB0BB2
S11315B0DC019927882760E070E0842B952BA62B0B
S11315C0B72B80930A0190930B01A0930C01B09365
S11315D00D01E091B001F091B101309739F063E071
S11315E070E0809118019091190109950E941E09DB
S11315F0FF91EF91BF91AF919F918F917F916F91E7
S11316005F914F913F912F910F900FBE0F901F90BC
S113161018951F920F920FB60F9211242F933F9398
S11316204F935F936F937F938F939F93AF93BF93E6
S1131630EF93FF93209108013091090140918400B8
S113164050918500C901032E000CAA0BBB0BDC01D1
S11316509927882760E070E0842B952BA62BB72B65
S113166080930A0190930B01A0930C01B0930D0198
S1131670B09B1BC04091840050918500C901019624
S1131680092E000CAA0BBB0BDC019927882760E00C
S113169070E0842B952BA62BB72B80930A01909393
S11316A00B01A0930C01B0930D01E091B201F091F4
S11316B0B301309739F064E070E080911A019091A1
S11316C01B0109950E941E09FF91EF91BF91AF91F3
S11316D09F918F917F916F915F914F913F912F9146
S11316E00F900FBE0F901F9018951F920F920FB678
S11316F00F9211242F933F934F935F936F937F9394
S11317008F939F93AF93BF93EF93FF93209108011F
S1131710309109014091840050918500C901032E44
S1131720000CAA0BBB0BDC019927882760E070E052
S1131730842B952BA62BB72B80930A0190930B0136
S1131740A0930C01B0930D01B09B1BC04091840089
S113175050918500C9010196092E000CAA0BBB0B00
S1131760DC019927882760E070E0842B952BA62B59
S1131770B72B80930A0190930B01A0930C01B093B3
S11317800D01E091B401F091B501309739F065E0B5
S113179070E080911C0190911D0109950E941E0921
S11317A0FF91EF91BF91AF919F918F917F916F9135
S11317B05F914F913F912F910F900FBE0F901F900B
S11317C018951F920F920FB60F9211242F933F93E7
S11317D04F935F936F937F938F939F93AF93BF9335
S11317E0EF93FF9320910801309109014091840007
S11317F050918500C901032E000CAA0BBB0BDC0120
S11318009927882760E070E0842B952BA62BB72BB3
S113181080930A0190930B01A0930C01B0930D01E6
S1131820B09B1BC04091840050918500C901019672
S1131830092E000CAA0BBB0BDC019927882760E05A
S113184070E0842B952BA62BB72B80930A019093E1
S11318500B01A0930C01B0930D01E091B601F0913E
S1131860B701309739F066E070E080911E019091E5
S11318701F0109950E941E09FF91EF91BF91AF913D
S11318809F918F917F916F915F914F913F912F9194
S11318900F900FBE0F901F9018951F920F920FB6C6
S11318A00F9211242F933F934F935F936F937F93E2
S11318B08F939F93AF93BF93EF93FF93209108016E
S11318C0309109014091840050918500C901032E93
S11318D0000CAA0BBB0BDC019927882760E070E0A1
S11318E0842B952BA62BB72B80930A0190930B0185
S11318F0A0930C01B0930D01B09B1BC040918400D8
S113190050918500C9010196092E000CAA0BBB0B4E
S1131910DC019927882760E070E0842B952BA62BA7
S1131920B72B80930A0190930B01A0930C01B09301
S11319300D01E091B801F091B901309739F067E0F9
S113194070E0809120019091210109950E941E0967
S1131950FF91EF91BF91AF919F918F917F916F9183
S11319605F914F913F912F910F900FBE0F901F9059
S113197018951F920F920FB60F9211242F933F9335
S11319804F935F936F937F938F939F93AF93BF9383
S1131990EF93FF9320910801309109014091840055
S11319A050918500C901032E000CAA0BBB0BDC016E
S11319B09927882760E070E0842B952BA62BB72B02
S11319C080930A0190930B01A0930C01B0930D0135
S11319D0B09B1BC04091840050918500C9010196C1
S11319E0092E000CAA0BBB0BDC019927882760E0A9
S11319F070E0842B952BA62BB72B80930A01909330
S1131A000B01A0930C01B0930D01E091BA01F09188
S1131A10BB01309739F068E070E080912201909129
S1131A20230109950E941E09FF91EF91BF91AF9187
S1131A309F918F917F916F915F914F913F912F91E2
S1131A400F900FBE0F901F9018951F920F920FB614
S1131A500F9211242F933F934F935F936F937F9330
S1131A608F939F93AF93BF93EF93FF9320910801BC
S1131A70309109014091840050918500C901032EE1
S1131A80000CAA0BBB0BDC019927882760E070E0EF
S1131A90842B952BA62BB72B80930A0190930B01D3
S1131AA0A0930C01B0930D01B09B1BC04091840026
S1131AB050918500C9010196092E000CAA0BBB0B9D
S1131AC0DC019927882760E070E0842B952BA62BF6
S1131AD0B72B80930A0190930B01A0930C01B09350
S1131AE00D01E091BC01F091BD01309739F069E03E
S1131AF070E0809124019091250109950E941E09AE
S1131B00FF91EF91BF91AF919F918F917F916F91D1
S1131B105F914F913F912F910F900FBE0F901F90A7
S1131B2018951F920F920FB60F9211242F933F9383
S1131B304F935F936F937F938F939F93AF93BF93D1
S1131B40EF93FF93209108013091090140918400A3
S1131B5050918500C901032E000CAA0BBB0BDC01BC
S1131B609927882760E070E0842B952BA62BB72B50
S1131B7080930A0190930B01A0930C01B0930D0183
S1131B80B09B1BC04091840050918500C90101960F
S1131B90092E000CAA0BBB0BDC019927882760E0F7
S1131BA070E0842B952BA62BB72B80930A0190937E
S1131BB00B01A0930C01B0930D01E091BE01F091D3
S1131BC0BF01309739F06AE070E08091260190916E
S1131BD0270109950E941E09FF91EF91BF91AF91D2
S1131BE09F918F917F916F915F914F913F912F9131
S1131BF00F900FBE0F901F9018951F920F920FB663
S1131C000F9211242F933F934F935F936F937F937E
S1131C108F939F93AF93BF93EF93FF93209108010A
S1131C20309109014091840050918500C901032E2F
S1131C30000CAA0BBB0BDC019927882760E070E03D
S1131C40842B952BA62BB72B80930A0190930B0121
S1131C50A0930C01B0930D01B09B1BC04091840074
S1131C6050918500C9010196092E000CAA0BBB0BEB
S1131C70DC019927882760E070E0842B952BA62B44
S1131C80B72B80930A0190930B01A0930C01B0939E
S1131C900D01E091C001F091C101309739F06BE082
S1131CA070E0809128019091290109950E941E09F4
S1131CB0FF91EF91BF91AF919F918F917F916F9120
S1131CC05F914F913F912F910F900FBE0F901F90F6
S1131CD018951F920F920FB60F9211242F933F93D2
S1131CE04F935F936F937F938F939F93AF93BF9320
S1131CF0EF93FF93209108013091090140918400F2
S1131D0050918500C901032E000CAA0BBB0BDC010A
S1131D109927882760E070E0842B952BA62BB72B9E
S1131D2080930A0190930B01A0930C01B0930D01D1
S1131D30B09B1BC04091840050918500C90101965D
S1131D40092E000CAA0BBB0BDC019927882760E045
S1131D5070E0842B952BA62BB72B80930A019093CC
S1131D600B01A0930C01B0930D01E091C201F0911D
S1131D70C301309739F06CE070E080912A019091B2
S1131D802B0109950E941E09FF91EF91BF91AF911C
S1131D909F918F917F916F915F914F913F912F917F
S1131DA00F900FBE0F901F9018951F920F920FB6B1
S1131DB00F9211242F933F934F935F936F937F93CD
S1131DC08F939F93AF93BF93EF93FF932091080159
S1131DD0309109014091840050918500C901032E7E
S1131DE0000CAA0BBB0BDC019927882760E070E08C
S1131DF0842B952BA62BB72B80930A0190930B0170
S1131E00A0930C01B0930D01B09B1BC040918400C2
S1131E1050918500C9010196092E000CAA0BBB0B39
S1131E20DC019927882760E070E0842B952BA62B92
S1131E30B72B80930A0190930B01A0930C01B093EC
S1131E400D01E091C401F091C501309739F06DE0C6
S1131E5070E080912C0190912D0109950E941E093A
S1131E60FF91EF91BF91AF919F918F917F916F916E
S1131E705F914F913F912F910F900FBE0F901F9044
S1131E8018951F920F920FB60F9211242F933F9320
S1131E904F935F936F937F938F939F93AF93BF936E
S1131EA0EF93FF9320910801309109014091840040
S1131EB050918500C901032E000CAA0BBB0BDC0159
S1131EC09927882760E070E0842B952BA62BB72BED
S1131ED080930A0190930B01A0930C01B0930D0120
S1131EE0B09B1BC04091840050918500C9010196AC
S1131EF0092E000CAA0BBB0BDC019927882760E094
S1131F0070E0842B952BA62BB72B80930A0190931A
S1131F100B01A0930C01B0930D01E091C601F09167
S1131F20C701309739F06EE070E080912E019091F6
S1131F302F0109950E941E09FF91EF91BF91AF9166
S1131F409F918F917F916F915F914F913F912F91CD
S1131F500F900FBE0F901F9018951F920F920FB6FF
S1131F600F9211242F933F934F935F936F937F931B
S1131F708F939F93AF93BF93EF93FF9320910801A7
S1131F80309109014091840050918500C901032ECC
S1131F90000CAA0BBB0BDC019927882760E070E0DA
S1131FA0842B952BA62BB72B80930A0190930B01BE
S1131FB0A0930C01B0930D01B09B1BC04091840011
S1131FC050918500C9010196092E000CAA0BBB0B88
S1131FD0DC019927882760E070E0842B952BA62BE1
S1131FE0B72B80930A0190930B01A0930C01B0933B
S1131FF00D01E091C801F091C901309739F06FE00B
S113200070E0809130019091310109950E941E0980
S1132010FF91EF91BF91AF919F918F917F916F91BC
S11320205F914F913F912F910F900FBE0F901F9092
S113203018951F920F920FB60F9211242F933F936E
S11320404F935F936F937F938F939F93AF93BF93BC
S1132050EF93FF932091080130910901409184008E
S113206050918500C901032E000CAA0BBB0BDC01A7
S11320709927882760E070E0842B952BA62BB72B3B
S113208080930A0190930B01A0930C01B0930D016E
S1132090B09B1BC04091840050918500C9010196FA
S11320A0092E000CAA0BBB0BDC019927882760E0E2
S11320B070E0842B952BA62BB72B80930A01909369
S11320C00B01A0930C01B0930D01E091CA01F091B2
S11320D0CB01309739F060E170E08091320190914A
S11320E0330109950E941E09FF91EF91BF91AF91B1
S11320F09F918F917F916F915F914F913F912F911C
S11321000F900FBE0F901F9018951F920F920FB64D
S11321100F9211242F933F934F935F936F937F9369
S11321208F939F93AF93BF93EF93FF9320910801F5
S1132130309109014091840050918500C901032E1A
S1132140000CAA0BBB0BDC019927882760E070E028
S1132150842B952BA62BB72B80930A0190930B010C
S1132160A0930C01B0930D01B09B1BC0409184005F
S113217050918500C9010196092E000CAA0BBB0BD6
S1132180DC019927882760E070E0842B952BA62B2F
S1132190B72B80930A0190930B01A0930C01B09389
S11321A00D01E091CC01F091CD01309739F061E15E
S11321B070E0809134019091350109950E941E09C7
S11321C0FF91EF91BF91AF919F918F917F916F910B
S11321D05F914F913F912F910F900FBE0F901F90E1
S11321E01895EF92FF920F931F93CF93DF937B0188
S11321F0EB01A881B981109761F1FC010681178177
S11322002085318516964D915D916D917C9119973C
S1132210041715072607370714F41BC0DF01ED91D7
S1132220FC911197309749F04681578160857185FB
S113223004171507260737078CF7EC01F983E883A1
S1132240109721F4F7019183808307C08D939C93A9
S113225004C0EC01B983A883F5CFDF91CF911F911E
S11322600F91FF90EF900895EF92FF920F931F93B9
S1132270CF93DF937B01EB01A881B981109761F1C2
S1132280FC01028113812481358112964D915D9167
S11322906D917C911597041715072607370714F4D9
S11322A01BC0DF01ED91FC911197309749F04281F9
S11322B053816481758104171507260737078CF746
S11322C0EC01F983E883109721F4F701918380836B
S11322D007C08D939C9304C0EC01B983A883F5CF08
S11322E0DF91CF911F910F91FF90EF900895DC0142
S11322F0ED91FC911197309759F48FEF8093EC0096
S11323008093ED008093EE0081E083BF8895FDCF3C
S1132310208131812D933C93CF0108951F920F9218
S11323200FB60F9211242F933F934F935F936F93A4
S11323307F938F939F93EF93FF93809108019091E4
S1132340090101969093090180930801E0910E011F
S1132350F0910F01309701F14281538164817581BD
S113236086179707C9F4CA0120918400309185002B
S1132370421B530B4130510529F480918400909104
S1132380850001969093890080938800EFE6F0E041
S113239080818260808305C0EFE6F0E080818D7FDC
S11323A08083FF91EF919F918F917F916F915F91C6
S11323B04F913F912F910F900FBE0F901F90189542
S11323C01F920F920FB60F921124CF92DF92EF92C9
S11323D0FF922F933F934F935F936F937F938F93CA
S11323E09F93AF93BF93EF93FF93C0900801D09056
S11323F009012091840030918500B0990FC00D2C03
S1132400000CEE08FF08D601992788276901E12C02
S1132410F12CC82AD92AEA2AFB2A15C02091840063
S1132420309185008FEFC81AD80A0D2C000CEE08E5
S1132430FF08D601992788276901E12CF12CC82AC5
S1132440D92AEA2AFB2AE0910E01F0910F01309774
S113245009F442C082819381A481B5818C199D09BC
S1132460AE09BF09181619061A061B06ECF18EE010
S113247091E00E94771160E171E00E94F110E09117
S11324800E01F0910F01309739F182819381A4817B
S1132490B5818C199D09AE09BF09181619061A06CB
S11324A01B062CF721C09C014091840050918500AB
S11324B0841B950B019731F42091840030918500A1
S11324C02F5F3F4F3093890020938800EFE6F0E0C0
S11324D080818260808305C0EFE6F0E080818D7F9B
S11324E080830E941E090CC082819381A481B581DE
S11324F020910801309109012A173B0769F7D3CFCE
S1132500FF91EF91BF91AF919F918F917F916F91C7
S11325105F914F913F912F91FF90EF90DF90CF907B
S11325200F900FBE0F901F9018953F924F925F929D
S11325306F927F928F929F92AF92BF92CF92DF92CF
S1132540EF92FF920F931F93CF93DF932B013C01E4
S113255049015A018FB78078382EF89486E091E0CB
S11325600E947711EC011B870A87FD86EC86DF86C3
S1132570CE86332061F0E0910001F09101010280E8
S1132580F381E02D82819381A481B58108C080917B
S11325900A0190910B01A0910C01B0910D01480E1C
S11325A0591E6A1E7B1E4A825B826C827D821814CD
S11325B019041A041B0444F00F2E88248A94982CBE
S11325C0A82CFFE7BF2EF02D840C951CA61CB71C6D
S11325D08E829F82A886B986809108019091090114
S11325E04091840050918500B0990EC0092E000CD2
S11325F0AA0BBB0BDC019927882760E070E0842BD1
S1132600952BA62BB72B13C0209184003091850005
S11326100196092E000CAA0BBB0BDC019927882715
S1132620A90160E070E0842B952BA62BB72B481AE8
S1132630590A6A0A7B0A1414150416041704ACF523
S11326406EE071E0CE010E943411E0910E01F09130
S11326500F01309721F182819381A481B58120916A
S11326600801309109012A173B07C9F49C014091E4
S1132670840050918500841B950B019731F42091BF
S11326808400309185002F5F3F4F30938900209361
S11326908800EFE6F0E080818260808341C0EFE64D
S11326A0F0E080818D7F80833BC060E171E0CE01EA
S11326B00E94F1103320B9F1809104019091050139
S11326C0009781F1E0910201F09103012091100142
S11326D03091110102811381D90116964D915D91BA
S11326E06D917C911997D80116960D911D912D919C
S11326F03C911997401B510B620B730B9AF4DC014C
S11327002D913C9111973093050120930401ED9391
S1132710FC9390930301809302010E94FE0802C07F
S1132720332009F07894CE01DF91CF911F910F915E
S1132730FF90EF90DF90CF90BF90AF909F908F90DD
S11327407F906F905F904F903F900895CF92DF926B
S1132750EF92FF920F931F93CF93DF93EC017B01D2
S11327606A011FB71078F894A881B981109761F1B4
S11327701496ED91FC911597309741F0A081B181A9
S11327801496ED91FC9115973097C1F720910001B3
S1132790309101012A173B0721F0112309F43DC0B0
S11327A007C0112309F43CC078948FEF9FEF52C007
S11327B08A819B810097D1F1FC011582148236C075
S11327C0789480E090E046C08091000190910101EE
S11327D099838883112329F08A819B81019709F0C9
S11327E07894B601CE01F7010995F82E092F8FB719
S11327F0F894198218828A819B818230910538F07D
S11328001B821A82FC01158214820E94FE08112385
S113281051F078948F2D902F1DC08FEF9FEF1AC029
S11328208FEF9FEF17C08F2D902F14C03B832A8307
S1132830F901D583C483CD010E94FE08E091000113
S1132840F091010182819381892B09F4B9CFF98335
S1132850E883C2CFDF91CF911F910F91FF90EF904A
S1132860DF90CF900895009100011091010180E163
S113287091E00E947711EC01D80113969C938E93FA
S1132880129778944E855F856C857D858A859B85B6
S11328900E94A6138FB7F8948091060190910701C6
S11328A099838883D0930701C0930601E0910201C4
S11328B0F091030100811181E8012A813B81A091FB
S11328C01001B09111011097C1F02115310559F291
S11328D016968D919D910D90BC91A02DE9014E818C
S11328E05F8168857985841B950BA60BB70B181639
S11328F019061A061B060CF0B6CF109303010093B9
S11329000201809104019091050191838083F093E9
S11329100501E0930401A0910201B0910301149612
S1132920ED91FC911597309741F0A081B1811496F7
S1132930ED91FC9115973097C1F7CD010E94FE08E7
S113294092CF4231B8F42FB7F89450E0440F551F9A
S1132950FA01EE5EFE4F91838083FA01E655FE4F45
S11329607183608341E050E0FC015383428322235E
S11329700CF4789408958C017B016A018FB7F89464
S11329800E9493087894E114F10441F020E030E0CF
S1132990A90160E070E0CB010E9495128FB7F89412
S11329A00E941E09789481E083BF8895FDCF97FB30
S11329B0072E16F4009407D077FD09D00E94F8146E
S11329C007FC05D03EF4909581959F4F089570952E
S11329D061957F4F0895EE0FFF1F0590F491E02D50
S11329E009940E940C15B7FF0895821B930B089558
S11329F0AA1BBB1B51E107C0AA1FBB1FA617B70721
S1132A0010F0A61BB70B881F991F5A95A9F780953C
S1132A109095BC01CD010895A29FB001B39FC00160
S1132A20A39F700D811D1124911DB29F700D811DF6
S1132A301124911D0895DC012D923D924D925D92D9
S1132A406D927D928D929D92AD92BD92CD92DD92CA
S1132A50ED92FD920D931D93CD93DD93FF91EF9134
S1132A608DB78D938EB78D938FB78D93ED93FD9323
S1132A70882799270994DC01CB0181309105811DB8
S1132A802D903D904D905D906D907D908D909D909A
S1132A90AD90BD90CD90DD90ED90FD900D911D9188
S1132AA0CD91DD91ED91FD910D90F894FEBF0FBE97
S10F2AB0EDBFED91FD910994F894FFCF67
S10B2ABCCE01CE013601EB014D
S9030000FC
