:100000000C9459000C9483060C94EF060C945B0737
:100010000C94C7070C9433080C9476000C94C70E0C
:100020000C9476000C94750E0C949F080C940B099C
:100030000C9477090C94E3090C944F0A0C94BB0AB6
:100040000C94270B0C94930B0C94FF0B0C946B0CDF
:100050000C94D70C0C94430D0C94AF0D8C039803A7
:10006000A403B003BC03C803D403E003EC03F80308
:100070003C053C053C053C053C053C053C050404B1
:1000800010041C042804340440044C045804640480
:1000900070047C0488049404A004AC04B804C40470
:1000A000D004DC04E804F40400050C05180524055C
:1000B000300511241FBECFEFD4E0DEBFCDBF11E06D
:1000C000A0E0B1E0EAEDFFE102C005900D92A8309A
:1000D000B107D9F724E0A8E0B1E001C01D92AB352B
:1000E000B207E1F70E9457050C94EB0F0C94000047
:1000F000CF92DF92EF92FF920F931F93CF93DF93F4
:10010000EC016C0182E6C80ED11CF6018081918160
:100110000F2EF4E6EF2EF12CF02DB7010E947C0F8C
:100120000AE010E0B8010E947C0F862F60E070E0CA
:10013000805D0E947903F60180819181B8010E945F
:100140007C0F61E070E0805D0E947903CC59DF4F45
:1001500088819981B7010E947C0FB8010E947C0FB1
:10016000862F62E070E0805D0E947903888199812A
:10017000B8010E947C0F63E070E0805D0E9479030B
:10018000DF91CF911F910F91FF90EF90DF90CF9073
:1001900008959C01FB01DC01AC59BF4F8D919C91EE
:1001A000019662E670E00E947C0FD901AE59BF4F04
:1001B00041E050E06D917C918617970711F040E087
:1001C00050E051834083C9010E9478000895FC01EA
:1001D000EE59FF4FDC01AC59BF4F21E030E00190F8
:1001E000F081E02D4D915C91E417F50711F020E0CE
:1001F00030E0FB01318320830E9478000895EF9264
:10020000FF920F931F93CF93DF9300D0CDB7DEB74C
:100210008C017B01BE016F5F7F4F0E94C900898105
:100220009A81892B31F0D7011C92C8010E94780075
:100230001BC065E070E088E40E947903F801EC5986
:10024000FF4FA081B181A00FB11F8C91D7018C937A
:1002500080819181019662E670E00E947C0F91831B
:100260008083C8010E9478000F900F90DF91CF919A
:100270001F910F91FF90EF900895EF92FF920F93CF
:100280001F93CF93DF9300D0CDB7DEB78C017B01F6
:10029000BE016F5F7F4F0E94E700C8010E94780097
:1002A00089819A81892BA9F4F801EE59FF4F808149
:1002B0009181D7012C91D801A80FB91F2C930196D9
:1002C00062E670E00E947C0F91838083C8010E94E7
:1002D00078000F900F90DF91CF911F910F91FF90B9
:1002E000EF900895CF92DF92EF92FF920F931F93BA
:1002F00099230CF4F7C1823091058CF4E091EC0065
:10030000019709F09BC048C004C0000F111F221FB5
:10031000331F9A95D2F7082B0093FB00E3C184307A
:1003200091058CF4E091ED00039709F09FC0B6C0F1
:1003300004C0000F111F221F331F9A95D2F7082BFC
:100340000093FC00CFC1863091058CF4E091EE0063
:10035000059709F0F5C00CC104C0000F111F221F42
:10036000331F9A95D2F7082B0093FD00BBC188304C
:1003700091050CF0B7C1E091EF00079709F04AC171
:1003800061C104C0000F111F221F331F9A95D2F7BD
:10039000082B0093FE00A6C19E2F9F706B01E12CDD
:1003A000F12CCC0CDD1CEE1CFF1CCC0CDD1CEE1C5F
:1003B000FF1CCC0CDD1CEE1CFF1CCC0CDD1CEE1C51
:1003C000FF1CE92FEC29E093EC00E1EFF0E08081E5
:1003D0008F7060E070E0440F551F661F771F440F59
:1003E000551F661F771F440F551F661F771F440F49
:1003F000551F661F771F482B4083E6EFF0E0808192
:10040000482F4F70C901A0E0B0E0880F991FAA1FC4
:10041000BB1F880F991FAA1FBB1F880F991FAA1FF8
:10042000BB1F880F991FAA1FBB1F842B808380913D
:10043000FB008F7020E030E094E066CF8E2F807F4D
:10044000862B8093EC00E1EFF0E08081807F482BE9
:100450004083E6EFF0E08081807F822B8083809173
:10046000FB00807F20E030E090E04ECF8E2F807F39
:10047000862B8093ED00E2EFF0E08081807F482BB7
:100480004083E7EFF0E08081807F822B8083809142
:10049000FC00807F20E030E090E04ACF9E2F9F70EC
:1004A0006B01E12CF12CCC0CDD1CEE1CFF1CCC0CE8
:1004B000DD1CEE1CFF1CCC0CDD1CEE1CFF1CCC0C50
:1004C000DD1CEE1CFF1CE92FEC29E093ED00E2EFB0
:1004D000F0E080818F7060E070E0440F551F661F70
:1004E000771F440F551F661F771F440F551F661F48
:1004F000771F440F551F661F771F482B4083E7EF78
:10050000F0E08081482F4F70C901A0E0B0E0880F73
:10051000991FAA1FBB1F880F991FAA1FBB1F880FF7
:10052000991FAA1FBB1F880F991FAA1FBB1F842BCF
:1005300080838091FC008F7020E030E094E0F8CE62
:100540008E2F807F862B8093EE00E3EFF0E080819A
:10055000807F482B4083E8EFF0E08081807F822B12
:1005600080838091FD00807F20E030E090E0F4CE39
:100570006B01E12CF12CCC0CDD1CEE1CFF1CCC0C17
:10058000DD1CEE1CFF1CCC0CDD1CEE1CFF1CCC0C7F
:10059000DD1CEE1CFF1C9E2F9F70E92FEC29E093C1
:1005A000EE00E3EFF0E0808160E070E0440F551F63
:1005B000661F771F440F551F661F771F440F551F77
:1005C000661F771F440F551F661F771F8F70482BBC
:1005D0004083E8EFF0E04081C901A0E0B0E0880F7F
:1005E000991FAA1FBB1F880F991FAA1FBB1F880F27
:1005F000991FAA1FBB1F880F991FAA1FBB1F242F5B
:100600002F70822B80838091FD008F7020E030E07E
:1006100094E0A2CE8E2F807F862B8093EF00E3EFB5
:10062000F0E08081807F482B4083E9EFF0E080811B
:10063000807F822B80838091FE00807F20E030E0ED
:1006400090E09FCECB01A0E0B0E0880F991FAA1FD9
:10065000BB1F880F991FAA1FBB1F880F991FAA1FB6
:10066000BB1F880F991FAA1FBB1FEF708E2B809393
:10067000EF00E3EFF0E0808160E070E0440F551F91
:10068000661F771F440F551F661F771F440F551FA6
:10069000661F771F440F551F661F771F8F70482BEB
:1006A0004083E9EFF0E04081C901A0E0B0E0880FAD
:1006B000991FAA1FBB1F880F991FAA1FBB1F880F56
:1006C000991FAA1FBB1F880F991FAA1FBB1F242F8A
:1006D0002F70822B80838091FE008F7020E030E0AD
:1006E00094E04FCE1F910F91FF90EF90DF90CF904D
:1006F00008950F931F936630710508F0C8C1DB01A0
:10070000482F50E0FA01F097EB32F10508F0B4C140
:10071000E25DFF4F0C94900F05E010E025E030E023
:1007200045E050E069E070E0CD010E947201AFC188
:1007300000E010E021E030E041E050E060E070E0F7
:10074000CD010E947201A3C105E010E028E030E075
:1007500041E050E061E070E0CD010E94720197C17C
:1007600001E010E02BE030E041E050E061E070E0BB
:10077000CD010E9472018BC100E010E02BE030E05F
:1007800045E050E060E070E0CD010E9472017FC161
:1007900001E010E02BE030E044E050E061E070E088
:1007A000CD010E94720173C101E010E02FE030E042
:1007B00044E050E061E070E0CD010E94720167C149
:1007C00004E010E020E030E040E050E069E070E05C
:1007D000CD010E9472015BC101E010E02FE030E02A
:1007E00045E050E061E070E0CD010E9472014FC130
:1007F00001E010E02BE030E045E050E061E070E027
:10080000CD010E94720143C100E010E02FE030E012
:1008100045E050E061E070E0CD010E94720137C117
:1008200001E010E02FE030E045E050E061E070E0F2
:10083000CD010E9472012BC101E010E024E030E004
:1008400044E050E061E070E0CD010E9472011FC100
:1008500004E010E024E030E046E050E060E070E0CA
:10086000CD010E94720113C101E010E026E030E0EA
:1008700044E050E061E070E0CD010E94720107C1E8
:1008800000E010E02EE030E044E050E061E070E095
:10089000CD010E947201FBC001E010E02DE030E0CC
:1008A00044E050E061E070E0CD010E947201EFC0D1
:1008B00000E010E02FE030E045E050E060E070E064
:1008C000CD010E947201E3C002E010E020E030E0C0
:1008D00048E050E060E070E0CD010E947201D7C0B6
:1008E00001E010E021E030E041E050E060E070E045
:1008F000CD010E947201CBC008E010E026E030E09C
:1009000044E050E068E070E0CD010E947201BFC099
:1009100001E010E024E030E044E050E060E070E00E
:10092000CD010E947201B3C000E010E025E030E08C
:1009300047E050E068E070E0CD010E947201A7C07E
:1009400008E010E025E030E047E050E060E070E0D3
:10095000CD010E9472019BC001E010E025E030E073
:1009600045E050E061E070E0CD010E9472018FC06F
:1009700000E010E02EE030E045E050E061E070E0A3
:10098000CD010E94720183C009E010E025E030E053
:1009900045E050E061E070E0CD010E94720177C057
:1009A00008E010E02EE030E045E050E061E070E06B
:1009B000CD010E9472016BC001E010E02BE030E03D
:1009C00044E050E061E070E0CD010E9472015FC040
:1009D00002E010E020E030E048E050E061E070E04C
:1009E000CD010E94720153C001E010E025E030E02B
:1009F00045E050E060E070E0CD010E94720147C028
:100A000004E010E024E030E044E050E068E070E012
:100A1000CD010E9472013BC003E010E025E030E010
:100A200045E050E060E070E0CD010E9472012FC00F
:100A30000CE010E020E030E042E050E068E070E0E0
:100A4000CD010E94720123C002E010E020E030E0FE
:100A500042E050E068E070E0CD010E94720117C0F2
:100A600005E010E020E030E040E050E069E070E0B8
:100A7000CD010E9472010BC002E010E028E030E0DE
:100A800041E050E061E070E0CD010E9472011F91F1
:100A90000F91089587EB8093E50087E08093E6004F
:100AA0008FE08093E70080E88093E4000895CF937F
:100AB000DF93CDB7DEB7C05DD1090FB6F894DEBFC6
:100AC0000FBECDBFE1E6F0E080E8808310820E9497
:100AD0004A05CE01019620EDFC0111922A95E9F715
:100AE00021E030E0A9963FAF2EAFA997C353DF4F67
:100AF00039832883CD5CD0400E94C30568E4CE01D1
:100B000001960E94D20565E4CE0101960E94D205AD
:100B10006CE4CE0101960E94D2056CE4CE010196F0
:100B20000E94D2056FE4CE0101960E94D20567E5CE
:100B3000CE0101960E94D2056FE4CE0101960E947B
:100B4000D20562E5CE0101960E94D2056CE4CE0189
:100B500001960E94D20564E4CE0101960E94D2055E
:100B60000AE010E0CE0101960E94F605015011093D
:100B7000C9F7FFEF29E688E1F15020408040E1F716
:100B800000C00000BBCF809101018093C50080911F
:100B900000018093C40088E18093C10086E08093C7
:100BA000C20008950F931F93CF93DF9300D01F923D
:100BB000CDB7DEB76B838C010C5F1F4FBE016F5F3B
:100BC0007F4FC8010E94E70089819A81892B31F407
:100BD000BE016D5F7F4FC8010E943D010F900F90D5
:100BE0000F90DF91CF911F910F9108950F931F9355
:100BF000CF93DF9300D01F92CDB7DEB78C010C5F8F
:100C00001F4FBE016F5F7F4FC8010E94C9008981DD
:100C10009A8165E070E0C0960E94790389819A818B
:100C2000892B71F0BE016D5F7F4FC8010E94FF00EC
:100C3000E0ECF0E0808185FFFDCF8B818093C600E2
:100C40000F900F900F90DF91CF911F910F9108950A
:100C5000CF93DF9300D0CDB7DEB79A83898380919D
:100C600002019091030106960E94AA0F892B59F464
:100C700089819A81909303018093020161E070E081
:100C800006960E94CA0F0F900F90DF91CF910895A2
:100C90000F931F93CF93DF93E0911001F091110117
:100CA000309761F18091060190910701009731F131
:100CB000C0910401D0910501AA81BB81109779F000
:100CC000468157816085718516960D911D912D91F4
:100CD0003C911997401B510B620B730B7AF4FC018A
:100CE000208131813093070120930601D183C08395
:100CF00090930501809304010E942806DF91CF9113
:100D00001F910F9108951F920F920FB60F92112409
:100D10002F933F934F935F936F937F938F939F9303
:100D2000AF93BF93EF93FF93209108013091090196
:100D30004091840050918500C901032E000CAA0B3C
:100D4000BB0BDC019927882760E070E0842B952B92
:100D5000A62BB72B80930A0190930B01A0930C0153
:100D6000B0930D01B09B1BC0409184005091850051
:100D7000C9010196092E000CAA0BBB0BDC019927B7
:100D8000882760E070E0842B952BA62BB72B8093EF
:100D90000A0190930B01A0930C01B0930D01E09117
:100DA000AA01F091AB01309739F060E070E08091DA
:100DB00012019091130109950E944806FF91EF914D
:100DC000BF91AF919F918F917F916F915F914F9163
:100DD0003F912F910F900FBE0F901F9018951F926B
:100DE0000F920FB60F9211242F933F934F935F935F
:100DF0006F937F938F939F93AF93BF93EF93FF93E3
:100E000020910801309109014091840050918500A2
:100E1000C901032E000CAA0BBB0BDC019927882704
:100E200060E070E0842B952BA62BB72B80930A01F2
:100E300090930B01A0930C01B0930D01B09B1BC0CC
:100E40004091840050918500C9010196092E000C43
:100E5000AA0BBB0BDC019927882760E070E0842B8C
:100E6000952BA62BB72B80930A0190930B01A0938F
:100E70000C01B0930D01E091AC01F091AD01309700
:100E800039F061E070E080911401909115010995AD
:100E90000E944806FF91EF91BF91AF919F918F9172
:100EA0007F916F915F914F913F912F910F900FBE66
:100EB0000F901F9018951F920F920FB60F9211244A
:100EC0002F933F934F935F936F937F938F939F9352
:100ED000AF93BF93EF93FF932091080130910901E5
:100EE0004091840050918500C901032E000CAA0B8B
:100EF000BB0BDC019927882760E070E0842B952BE1
:100F0000A62BB72B80930A0190930B01A0930C01A1
:100F1000B0930D01B09B1BC040918400509185009F
:100F2000C9010196092E000CAA0BBB0BDC01992705
:100F3000882760E070E0842B952BA62BB72B80933D
:100F40000A0190930B01A0930C01B0930D01E09165
:100F5000AE01F091AF01309739F062E070E080911E
:100F600016019091170109950E944806FF91EF9193
:100F7000BF91AF919F918F917F916F915F914F91B1
:100F80003F912F910F900FBE0F901F9018951F92B9
:100F90000F920FB60F9211242F933F934F935F93AD
:100FA0006F937F938F939F93AF93BF93EF93FF9331
:100FB00020910801309109014091840050918500F1
:100FC000C901032E000CAA0BBB0BDC019927882753
:100FD00060E070E0842B952BA62BB72B80930A0141
:100FE00090930B01A0930C01B0930D01B09B1BC01B
:100FF0004091840050918500C9010196092E000C92
:10100000AA0BBB0BDC019927882760E070E0842BDA
:10101000952BA62BB72B80930A0190930B01A093DD
:101020000C01B0930D01E091B001F091B101309746
:1010300039F063E070E080911801909119010995F1
:101040000E944806FF91EF91BF91AF919F918F91C0
:101050007F916F915F914F913F912F910F900FBEB4
:101060000F901F9018951F920F920FB60F92112498
:101070002F933F934F935F936F937F938F939F93A0
:10108000AF93BF93EF93FF93209108013091090133
:101090004091840050918500C901032E000CAA0BD9
:1010A000BB0BDC019927882760E070E0842B952B2F
:1010B000A62BB72B80930A0190930B01A0930C01F0
:1010C000B0930D01B09B1BC04091840050918500EE
:1010D000C9010196092E000CAA0BBB0BDC01992754
:1010E000882760E070E0842B952BA62BB72B80938C
:1010F0000A0190930B01A0930C01B0930D01E091B4
:10110000B201F091B301309739F064E070E0809162
:101110001A0190911B0109950E944806FF91EF91D9
:10112000BF91AF919F918F917F916F915F914F91FF
:101130003F912F910F900FBE0F901F9018951F9207
:101140000F920FB60F9211242F933F934F935F93FB
:101150006F937F938F939F93AF93BF93EF93FF937F
:10116000209108013091090140918400509185003F
:10117000C901032E000CAA0BBB0BDC0199278827A1
:1011800060E070E0842B952BA62BB72B80930A018F
:1011900090930B01A0930C01B0930D01B09B1BC069
:1011A0004091840050918500C9010196092E000CE0
:1011B000AA0BBB0BDC019927882760E070E0842B29
:1011C000952BA62BB72B80930A0190930B01A0932C
:1011D0000C01B0930D01E091B401F091B50130978D
:1011E00039F065E070E080911C0190911D01099536
:1011F0000E944806FF91EF91BF91AF919F918F910F
:101200007F916F915F914F913F912F910F900FBE02
:101210000F901F9018951F920F920FB60F921124E6
:101220002F933F934F935F936F937F938F939F93EE
:10123000AF93BF93EF93FF93209108013091090181
:101240004091840050918500C901032E000CAA0B27
:10125000BB0BDC019927882760E070E0842B952B7D
:10126000A62BB72B80930A0190930B01A0930C013E
:10127000B0930D01B09B1BC040918400509185003C
:10128000C9010196092E000CAA0BBB0BDC019927A2
:10129000882760E070E0842B952BA62BB72B8093DA
:1012A0000A0190930B01A0930C01B0930D01E09102
:1012B000B601F091B701309739F066E070E08091A7
:1012C0001E0190911F0109950E944806FF91EF9120
:1012D000BF91AF919F918F917F916F915F914F914E
:1012E0003F912F910F900FBE0F901F9018951F9256
:1012F0000F920FB60F9211242F933F934F935F934A
:101300006F937F938F939F93AF93BF93EF93FF93CD
:10131000209108013091090140918400509185008D
:10132000C901032E000CAA0BBB0BDC0199278827EF
:1013300060E070E0842B952BA62BB72B80930A01DD
:1013400090930B01A0930C01B0930D01B09B1BC0B7
:101350004091840050918500C9010196092E000C2E
:10136000AA0BBB0BDC019927882760E070E0842B77
:10137000952BA62BB72B80930A0190930B01A0937A
:101380000C01B0930D01E091B801F091B9013097D3
:1013900039F067E070E0809120019091210109957A
:1013A0000E944806FF91EF91BF91AF919F918F915D
:1013B0007F916F915F914F913F912F910F900FBE51
:1013C0000F901F9018951F920F920FB60F92112435
:1013D0002F933F934F935F936F937F938F939F933D
:1013E000AF93BF93EF93FF932091080130910901D0
:1013F0004091840050918500C901032E000CAA0B76
:10140000BB0BDC019927882760E070E0842B952BCB
:10141000A62BB72B80930A0190930B01A0930C018C
:10142000B0930D01B09B1BC040918400509185008A
:10143000C9010196092E000CAA0BBB0BDC019927F0
:10144000882760E070E0842B952BA62BB72B809328
:101450000A0190930B01A0930C01B0930D01E09150
:10146000BA01F091BB01309739F068E070E08091EB
:1014700022019091230109950E944806FF91EF9166
:10148000BF91AF919F918F917F916F915F914F919C
:101490003F912F910F900FBE0F901F9018951F92A4
:1014A0000F920FB60F9211242F933F934F935F9398
:1014B0006F937F938F939F93AF93BF93EF93FF931C
:1014C00020910801309109014091840050918500DC
:1014D000C901032E000CAA0BBB0BDC01992788273E
:1014E00060E070E0842B952BA62BB72B80930A012C
:1014F00090930B01A0930C01B0930D01B09B1BC006
:101500004091840050918500C9010196092E000C7C
:10151000AA0BBB0BDC019927882760E070E0842BC5
:10152000952BA62BB72B80930A0190930B01A093C8
:101530000C01B0930D01E091BC01F091BD01309719
:1015400039F069E070E080912401909125010995BE
:101550000E944806FF91EF91BF91AF919F918F91AB
:101560007F916F915F914F913F912F910F900FBE9F
:101570000F901F9018951F920F920FB60F92112483
:101580002F933F934F935F936F937F938F939F938B
:10159000AF93BF93EF93FF9320910801309109011E
:1015A0004091840050918500C901032E000CAA0BC4
:1015B000BB0BDC019927882760E070E0842B952B1A
:1015C000A62BB72B80930A0190930B01A0930C01DB
:1015D000B0930D01B09B1BC04091840050918500D9
:1015E000C9010196092E000CAA0BBB0BDC0199273F
:1015F000882760E070E0842B952BA62BB72B809377
:101600000A0190930B01A0930C01B0930D01E0919E
:10161000BE01F091BF01309739F06AE070E080912F
:1016200026019091270109950E944806FF91EF91AC
:10163000BF91AF919F918F917F916F915F914F91EA
:101640003F912F910F900FBE0F901F9018951F92F2
:101650000F920FB60F9211242F933F934F935F93E6
:101660006F937F938F939F93AF93BF93EF93FF936A
:10167000209108013091090140918400509185002A
:10168000C901032E000CAA0BBB0BDC01992788278C
:1016900060E070E0842B952BA62BB72B80930A017A
:1016A00090930B01A0930C01B0930D01B09B1BC054
:1016B0004091840050918500C9010196092E000CCB
:1016C000AA0BBB0BDC019927882760E070E0842B14
:1016D000952BA62BB72B80930A0190930B01A09317
:1016E0000C01B0930D01E091C001F091C101309760
:1016F00039F06BE070E08091280190912901099503
:101700000E944806FF91EF91BF91AF919F918F91F9
:101710007F916F915F914F913F912F910F900FBEED
:101720000F901F9018951F920F920FB60F921124D1
:101730002F933F934F935F936F937F938F939F93D9
:10174000AF93BF93EF93FF9320910801309109016C
:101750004091840050918500C901032E000CAA0B12
:10176000BB0BDC019927882760E070E0842B952B68
:10177000A62BB72B80930A0190930B01A0930C0129
:10178000B0930D01B09B1BC0409184005091850027
:10179000C9010196092E000CAA0BBB0BDC0199278D
:1017A000882760E070E0842B952BA62BB72B8093C5
:1017B0000A0190930B01A0930C01B0930D01E091ED
:1017C000C201F091C301309739F06CE070E0809174
:1017D0002A0190912B0109950E944806FF91EF91F3
:1017E000BF91AF919F918F917F916F915F914F9139
:1017F0003F912F910F900FBE0F901F9018951F9241
:101800000F920FB60F9211242F933F934F935F9334
:101810006F937F938F939F93AF93BF93EF93FF93B8
:101820002091080130910901409184005091850078
:10183000C901032E000CAA0BBB0BDC0199278827DA
:1018400060E070E0842B952BA62BB72B80930A01C8
:1018500090930B01A0930C01B0930D01B09B1BC0A2
:101860004091840050918500C9010196092E000C19
:10187000AA0BBB0BDC019927882760E070E0842B62
:10188000952BA62BB72B80930A0190930B01A09365
:101890000C01B0930D01E091C401F091C5013097A6
:1018A00039F06DE070E080912C0190912D01099547
:1018B0000E944806FF91EF91BF91AF919F918F9148
:1018C0007F916F915F914F913F912F910F900FBE3C
:1018D0000F901F9018951F920F920FB60F92112420
:1018E0002F933F934F935F936F937F938F939F9328
:1018F000AF93BF93EF93FF932091080130910901BB
:101900004091840050918500C901032E000CAA0B60
:10191000BB0BDC019927882760E070E0842B952BB6
:10192000A62BB72B80930A0190930B01A0930C0177
:10193000B0930D01B09B1BC0409184005091850075
:10194000C9010196092E000CAA0BBB0BDC019927DB
:10195000882760E070E0842B952BA62BB72B809313
:101960000A0190930B01A0930C01B0930D01E0913B
:10197000C601F091C701309739F06EE070E08091B8
:101980002E0190912F0109950E944806FF91EF9139
:10199000BF91AF919F918F917F916F915F914F9187
:1019A0003F912F910F900FBE0F901F9018951F928F
:1019B0000F920FB60F9211242F933F934F935F9383
:1019C0006F937F938F939F93AF93BF93EF93FF9307
:1019D00020910801309109014091840050918500C7
:1019E000C901032E000CAA0BBB0BDC019927882729
:1019F00060E070E0842B952BA62BB72B80930A0117
:101A000090930B01A0930C01B0930D01B09B1BC0F0
:101A10004091840050918500C9010196092E000C67
:101A2000AA0BBB0BDC019927882760E070E0842BB0
:101A3000952BA62BB72B80930A0190930B01A093B3
:101A40000C01B0930D01E091C801F091C9013097EC
:101A500039F06FE070E0809130019091310109958B
:101A60000E944806FF91EF91BF91AF919F918F9196
:101A70007F916F915F914F913F912F910F900FBE8A
:101A80000F901F9018951F920F920FB60F9211246E
:101A90002F933F934F935F936F937F938F939F9376
:101AA000AF93BF93EF93FF93209108013091090109
:101AB0004091840050918500C901032E000CAA0BAF
:101AC000BB0BDC019927882760E070E0842B952B05
:101AD000A62BB72B80930A0190930B01A0930C01C6
:101AE000B0930D01B09B1BC04091840050918500C4
:101AF000C9010196092E000CAA0BBB0BDC0199272A
:101B0000882760E070E0842B952BA62BB72B809361
:101B10000A0190930B01A0930C01B0930D01E09189
:101B2000CA01F091CB01309739F060E170E080910B
:101B300032019091330109950E944806FF91EF917F
:101B4000BF91AF919F918F917F916F915F914F91D5
:101B50003F912F910F900FBE0F901F9018951F92DD
:101B60000F920FB60F9211242F933F934F935F93D1
:101B70006F937F938F939F93AF93BF93EF93FF9355
:101B80002091080130910901409184005091850015
:101B9000C901032E000CAA0BBB0BDC019927882777
:101BA00060E070E0842B952BA62BB72B80930A0165
:101BB00090930B01A0930C01B0930D01B09B1BC03F
:101BC0004091840050918500C9010196092E000CB6
:101BD000AA0BBB0BDC019927882760E070E0842BFF
:101BE000952BA62BB72B80930A0190930B01A09302
:101BF0000C01B0930D01E091CC01F091CD01309733
:101C000039F061E170E080913401909135010995DE
:101C10000E944806FF91EF91BF91AF919F918F91E4
:101C20007F916F915F914F913F912F910F900FBED8
:101C30000F901F901895EF92FF920F931F93CF93E1
:101C4000DF937B01EB01A881B981109761F1FC0161
:101C5000068117812085318516964D915D916D9194
:101C60007C911997041715072607370714F41BC032
:101C7000DF01ED91FC911197309749F04681578132
:101C80006085718504171507260737078CF7EC0167
:101C9000F983E883109721F4F7019183808307C0CB
:101CA0008D939C9304C0EC01B983A883F5CFDF9199
:101CB000CF911F910F91FF90EF900895DC01ED916E
:101CC000FC911197309759F48FEF8093EC0080933B
:101CD000ED008093EE0081E083BF8895FDCF2081E9
:101CE00031812D933C93CF0108951F920F920FB62F
:101CF0000F9211242F933F934F935F936F937F9392
:101D00008F939F93EF93FF93809108019091090126
:101D100001969093090180930801E0910E01F091E2
:101D20000F01309701F142815381648175818617DB
:101D30009707C9F4CA012091840030918500421BA5
:101D4000530B4130510529F4809184009091850016
:101D500001969093890080938800EFE6F0E08081FF
:101D60008260808305C0EFE6F0E080818D7F808314
:101D7000FF91EF919F918F917F916F915F914F9123
:101D80003F912F910F900FBE0F901F9018951F92AB
:101D90000F920FB60F921124CF92DF92EF92FF9223
:101DA0002F933F934F935F936F937F938F939F9363
:101DB000AF93BF93EF93FF93C0900801D0900901B8
:101DC0002091840030918500B0990FC00D2C000C3B
:101DD000EE08FF08D601992788276901E12CF12C2C
:101DE000C82AD92AEA2AFB2A15C0209184003091FA
:101DF00085008FEFC81AD80A0D2C000CEE08FF08DA
:101E0000D601992788276901E12CF12CC82AD92A03
:101E1000EA2AFB2AE0910E01F0910F01309709F4B4
:101E200042C082819381A481B5818C199D09AE093C
:101E3000BF09181619061A061B06ECF18EE091E090
:101E40000E945E0E60E171E00E941B0EE0910E01A7
:101E5000F0910F01309739F182819381A481B5818E
:101E60008C199D09AE09BF09181619061A061B061A
:101E70002CF721C09C014091840050918500841B67
:101E8000950B019731F420918400309185002F5FEC
:101E90003F4F3093890020938800EFE6F0E0808187
:101EA0008260808305C0EFE6F0E080818D7F8083D3
:101EB0000E9448060CC082819381A481B581209143
:101EC0000801309109012A173B0769F7D3CFFF9129
:101ED000EF91BF91AF919F918F917F916F915F91A2
:101EE0004F913F912F91FF90EF90DF90CF900F9007
:101EF0000FBE0F901F90189597FB072E16F40094B5
:101F000007D077FD09D00E94960F07FC05D03EF45C
:101F1000909581959F4F0895709561957F4F089595
:101F2000EE0FFF1F0590F491E02D0994AA1BBB1B37
:101F300051E107C0AA1FBB1FA617B70710F0A61BC9
:101F4000B70B881F991F5A95A9F780959095BC01EA
:101F5000CD010895DC012D923D924D925D926D92DE
:101F60007D928D929D92AD92BD92CD92DD92ED9239
:101F7000FD920D931D93CD93DD93FF91EF918DB75E
:101F80008D938EB78D938FB78D93ED93FD938827A7
:101F900099270994DC01CB0181309105811D2D9099
:101FA0003D904D905D906D907D908D909D90AD9009
:101FB000BD90CD90DD90ED90FD900D911D91CD9156
:101FC000DD91ED91FD910D90F894FEBF0FBEEDBF38
:0A1FD000ED91FD910994F894FFCF04
:081FDA003300CE01CE013601F7
:00000001FF
