:100000000C9459000C9482070C94EE070C945A0837
:100010000C94C6080C9432090C9476000C940910C8
:100020000C9476000C94B70F0C949E090C940A0A59
:100030000C94760A0C94E20A0C944E0B0C94BA0BB6
:100040000C94260C0C94920C0C94FE0C0C946A0DDF
:100050000C94D60D0C94420E0C94AE0E92029E029D
:10006000AA02B602C202CE02DA02E602F202FE02E0
:1000700042044204420442044204420442040A0389
:10008000160322032E033A03460352035E036A0358
:10009000760382038E039A03A603B203BE03CA0348
:1000A000D603E203EE03FA03060412041E042A0434
:1000B000360411241FBECFEFD4E0DEBFCDBF11E068
:1000C000A0E0B1E0E2E9F6E202C005900D92AA30AC
:1000D000B107D9F724E0AAE0B1E001C01D92AF3525
:1000E000B207E1F70E945F050C9447130C940000DF
:1000F000CF92DF92EF92FF920F931F9399230CF40C
:10010000F7C1823091058CF4E091EC00019709F081
:100110009BC048C004C0000F111F221F331F9A95B7
:10012000D2F7082B0093FB00E3C1843091058CF4D7
:10013000E091ED00039709F09FC0B6C004C0000F26
:10014000111F221F331F9A95D2F7082B0093FC0032
:10015000CFC1863091058CF4E091EE00059709F04F
:10016000F5C00CC104C0000F111F221F331F9A9548
:10017000D2F7082B0093FD00BBC1883091050CF02D
:10018000B7C1E091EF00079709F04AC161C104C00F
:10019000000F111F221F331F9A95D2F7082B0093CF
:1001A000FE00A6C19E2F9F706B01E12CF12CCC0CA0
:1001B000DD1CEE1CFF1CCC0CDD1CEE1CFF1CCC0C53
:1001C000DD1CEE1CFF1CCC0CDD1CEE1CFF1CE92F03
:1001D000EC29E093EC00E1EFF0E080818F7060E0CB
:1001E00070E0440F551F661F771F440F551F661F91
:1001F000771F440F551F661F771F440F551F661F3B
:10020000771F482B4083E6EFF0E08081482F4F7046
:10021000C901A0E0B0E0880F991FAA1FBB1F880F7B
:10022000991FAA1FBB1F880F991FAA1FBB1F880FEA
:10023000991FAA1FBB1F842B80838091FB008F70A6
:1002400020E030E094E066CF8E2F807F862B809375
:10025000EC00E1EFF0E08081807F482B4083E6EF07
:10026000F0E08081807F822B80838091FB00807F03
:1002700020E030E090E04ECF8E2F807F862B809361
:10028000ED00E2EFF0E08081807F482B4083E7EFD4
:10029000F0E08081807F822B80838091FC00807FD2
:1002A00020E030E090E04ACF9E2F9F706B01E12C60
:1002B000F12CCC0CDD1CEE1CFF1CCC0CDD1CEE1C50
:1002C000FF1CCC0CDD1CEE1CFF1CCC0CDD1CEE1C42
:1002D000FF1CE92FEC29E093ED00E2EFF0E08081D4
:1002E0008F7060E070E0440F551F661F771F440F4A
:1002F000551F661F771F440F551F661F771F440F3A
:10030000551F661F771F482B4083E7EFF0E0808181
:10031000482F4F70C901A0E0B0E0880F991FAA1FB5
:10032000BB1F880F991FAA1FBB1F880F991FAA1FE9
:10033000BB1F880F991FAA1FBB1F842B808380912E
:10034000FC008F7020E030E094E0F8CE8E2F807FAC
:10035000862B8093EE00E3EFF0E08081807F482BD6
:100360004083E8EFF0E08081807F822B8083809162
:10037000FD00807F20E030E090E0F4CE6B01E12CC6
:10038000F12CCC0CDD1CEE1CFF1CCC0CDD1CEE1C7F
:10039000FF1CCC0CDD1CEE1CFF1CCC0CDD1CEE1C71
:1003A000FF1C9E2F9F70E92FEC29E093EE00E3EFF6
:1003B000F0E0808160E070E0440F551F661F771FFA
:1003C000440F551F661F771F440F551F661F771F69
:1003D000440F551F661F771F8F70482B4083E8EF2F
:1003E000F0E04081C901A0E0B0E0880F991FAA1F8A
:1003F000BB1F880F991FAA1FBB1F880F991FAA1F19
:10040000BB1F880F991FAA1FBB1F242F2F70822B81
:1004100080838091FD008F7020E030E094E0A2CED8
:100420008E2F807F862B8093EF00E3EFF0E08081BA
:10043000807F482B4083E9EFF0E08081807F822B32
:1004400080838091FE00807F20E030E090E09FCEAE
:10045000CB01A0E0B0E0880F991FAA1FBB1F880F37
:10046000991FAA1FBB1F880F991FAA1FBB1F880FA8
:10047000991FAA1FBB1FEF708E2B8093EF00E3EF35
:10048000F0E0808160E070E0440F551F661F771F29
:10049000440F551F661F771F440F551F661F771F98
:1004A000440F551F661F771F8F70482B4083E9EF5D
:1004B000F0E04081C901A0E0B0E0880F991FAA1FB9
:1004C000BB1F880F991FAA1FBB1F880F991FAA1F48
:1004D000BB1F880F991FAA1FBB1F242F2F70822BB1
:1004E00080838091FE008F7020E030E094E04FCE5A
:1004F0001F910F91FF90EF90DF90CF9008950F9391
:100500001F936630710508F0C8C1DB01482F50E029
:10051000FA01F097EB32F10508F0B4C1E25DFF4F4C
:100520000C94001305E010E025E030E045E050E0D9
:1005300069E070E0CD010E947800AFC100E010E0FA
:1005400021E030E041E050E060E070E0CD010E9449
:100550007800A3C105E010E028E030E041E050E081
:1005600061E070E0CD010E94780097C101E010E0E9
:100570002BE030E041E050E061E070E0CD010E940E
:1005800078008BC100E010E02BE030E045E050E067
:1005900060E070E0CD010E9478007FC101E010E0D2
:1005A0002BE030E044E050E061E070E0CD010E94DB
:1005B000780073C101E010E02FE030E044E050E04B
:1005C00061E070E0CD010E94780067C104E010E0B6
:1005D00020E030E040E050E069E070E0CD010E94B2
:1005E00078005BC101E010E02FE030E045E050E032
:1005F00061E070E0CD010E9478004FC101E010E0A1
:100600002BE030E045E050E061E070E0CD010E9479
:10061000780043C100E010E02FE030E045E050E01A
:1006200061E070E0CD010E94780037C101E010E088
:100630002FE030E045E050E061E070E0CD010E9445
:1006400078002BC101E010E024E030E044E050E00D
:1006500061E070E0CD010E9478001FC104E010E06D
:1006600024E030E046E050E060E070E0CD010E9420
:10067000780013C101E010E026E030E044E050E0F3
:1006800061E070E0CD010E94780007C100E010E059
:100690002EE030E044E050E061E070E0CD010E94E7
:1006A0007800FBC001E010E02DE030E044E050E0D5
:1006B00061E070E0CD010E947800EFC000E010E042
:1006C0002FE030E045E050E060E070E0CD010E94B6
:1006D0007800E3C002E010E020E030E048E050E0C5
:1006E00060E070E0CD010E947800D7C001E010E02A
:1006F00021E030E041E050E060E070E0CD010E9498
:100700007800CBC008E010E026E030E044E050E0A4
:1007100068E070E0CD010E947800BFC001E010E009
:1007200024E030E044E050E060E070E0CD010E9461
:100730007800B3C000E010E025E030E047E050E092
:1007400068E070E0CD010E947800A7C008E010E0EA
:1007500025E030E047E050E060E070E0CD010E942D
:1007600078009BC001E010E025E030E045E050E07B
:1007700061E070E0CD010E9478008FC000E010E0E1
:100780002EE030E045E050E061E070E0CD010E94F5
:10079000780083C009E010E025E030E045E050E05B
:1007A00061E070E0CD010E94780077C008E010E0C1
:1007B0002EE030E045E050E061E070E0CD010E94C5
:1007C00078006BC001E010E02BE030E044E050E046
:1007D00061E070E0CD010E9478005FC002E010E0AF
:1007E00020E030E048E050E061E070E0CD010E94A0
:1007F000780053C001E010E025E030E045E050E033
:1008000060E070E0CD010E94780047C004E010E095
:1008100024E030E044E050E068E070E0CD010E9468
:1008200078003BC003E010E025E030E045E050E018
:1008300060E070E0CD010E9478002FC00CE010E075
:1008400020E030E042E050E068E070E0CD010E943E
:10085000780023C002E010E020E030E042E050E009
:1008600068E070E0CD010E94780017C005E010E05C
:1008700020E030E040E050E069E070E0CD010E940F
:1008800078000BC002E010E028E030E041E050E0EA
:1008900061E070E0CD010E9478001F910F910895F2
:1008A00087EB8093E50087E08093E6008FE08093FC
:1008B000E70080E88093E4000895FB01EE0FFF1F3E
:1008C000E80FF91F268137812130310591F441E08D
:1008D00050E0672B11F040E050E04B5F5F4F440F5A
:1008E000551FDC01A40FB51F81E090E08D939C9310
:1008F00003C01216130624F42150310937832683CE
:100900000895CF92DF92EF92FF920F931F93CF93B0
:10091000DF93C12CD12C0F2EF3EBEF2EF4E0FF2E42
:10092000F02D8C0120E030E0A90160E070E0CB0107
:100930000E94BE100F2EF1E8EF2EF4E0FF2EF02DF6
:100940002AE638E140E050E065E37CE080E090E0BA
:100950000E94BE10DF91CF911F910F91FF90EF90F9
:10096000DF90CF9008950F931F93CF93DF93EC0107
:100970008A859B85019719F002E010E002C001E032
:1009800010E08C859D85019711F4046001C008601A
:100990008E8161E070E0805D0E947F028A859B8588
:1009A000892B11F087E401C082E562E070E00E94CB
:1009B0007F028C859D85892B11F087E401C082E53B
:1009C00063E070E00E947F02888564E070E0805DF3
:1009D0000E947F02A80164EB76E08C819D810E94D9
:1009E000CF11DF91CF911F910F91089510921501B2
:1009F00010921401FC01758364830E9481040895A0
:100A0000CF92DF92EF92FF920F931F93CF93DF93DA
:100A1000EC01FB01EE0FFF1FE80FF91F86819781A4
:100A200001969783868381E090E0938782876115A2
:100A3000710511F080E090E0FC013596EE0FFF1F8C
:100A4000EC0FFD1F118210826B010F2EFDE5EF2EC2
:100A5000F4E0FF2EF02D8E012FE83EE642E050E05C
:100A60006AE572E682E090E00E94BE10C12CD12CB3
:100A70000F2EF3EBEF2EF4E0FF2EF02D20E030E010
:100A8000A90160E070E0CB010E94BE10DF91CF9120
:100A90001F910F91FF90EF90DF90CF900895FB0191
:100AA000208131812B5F3F4F220F331F820F931F15
:100AB000FC0180819181FB01918380830895CF9314
:100AC000DF93CDB7DEB7A2970FB6F894DEBF0FBEA7
:100AD000CDBFE1E6F0E080E880831082CE01019690
:100AE00022E2FC0111922A95E9F721E030E0388FEB
:100AF0002F8B3A8F298F40E050E06CE875E00E9420
:100B0000E41280E090E0A2960FB6F894DEBF0FBE2C
:100B1000CDBFDF91CF9108950F931F93CF93DF93B4
:100B2000EC018C010C5F1F4F42E056E0BC01C80194
:100B30000E948A06B801CE010C960E94F60440E09D
:100B400050E060E476E0CE010E94CF11DF91CF91BA
:100B50001F910F910895FB012081318141155105AD
:100B600019F064E070E002C061E070E026233723F2
:100B7000232B51F0440F551FFC01E40FF51F828D0C
:100B8000938D0196938F828F0895CF92DF92EF928B
:100B9000FF920F931F93CF93DF9300D0CDB7DEB7B3
:100BA0007C018A015A8349836C018CE0C80ED11CF8
:100BB000AE014F5F5F4F6FE475E0C6010E94CF1139
:100BC000F801EE0FFF1FEE0DFF1D828D938D009734
:100BD00071F029813A812130310549F40197938FD1
:100BE000828FA80160E075E0C6010E94CF110F90CE
:100BF0000F90DF91CF911F910F91FF90EF90DF90B9
:100C0000CF9008950F931F93CF93DF9300D0CDB76C
:100C1000DEB78C017A83698340E050E0BE016F5FEC
:100C20007F4F0E94AB0541E050E0BE016F5F7F4FF8
:100C3000C8010E94AB0540E050E0BE016F5F7F4FEE
:100C4000C8010E94C50541E050E0BE016F5F7F4FC3
:100C5000C8010E94C505F801828D60E070E0805DEA
:100C60000E947F02F801848D65E070E0805D0E9443
:100C70007F020F900F90DF91CF911F910F910895F8
:100C8000CF92DF92EF92FF920F931F938C0160E05F
:100C900070E00E940206C12CD12C0F2EF0E4EF2E42
:100CA000F6E0FF2EF02D24E234EF40E050E062E168
:100CB0007AE780E090E00E94BE101F910F91FF90B4
:100CC000EF90DF90CF900895CF92DF92EF92FF9256
:100CD0000F931F93DC01E0ECF0E090819923ECF797
:100CE000C090C600D12C1696ED90FC9017971496E4
:100CF0000D911C91159720E030E0A90160E070E0B3
:100D0000CB010E94BE101F910F91FF90EF90DF90DA
:100D1000CF900895EF92FF920F931F93CF93DF939D
:100D2000EC017B018A010E945004FD82EC821F834A
:100D30000E83809101018093C50080910001809312
:100D4000C40088ED8093C10086E08093C20048E033
:100D500064E676E0CE010E94CA12DF91CF911F9126
:100D60000F91FF90EF900895E0ECF0E0808185FF17
:100D7000FDCF6093C6000895CF93DF9300D000D0DD
:100D8000CDB7DEB78FEF91E02FED32E0FC01709729
:100D900091838083409682179307C1F71092D00207
:100DA0001092CF02EAE3F1E087E591E0918380833E
:100DB00084E791E0968F858FA1E9B1E0B3AFA2AF50
:100DC0001D921C92FA83E983EBE3F3E0FC83EB834F
:100DD00089819A8106960E9406138B819C81E98104
:100DE000FA81978B868B918F808F8CE592E1948F1F
:100DF000838F158214827D96FA83E983EB81FC81CF
:100E0000E05AFF4FFC83EB8389819A818E5A91408F
:100E1000F9F6E2EDF1E0118210821582148213825C
:100E20001282E1E6F0E080E8808310821092850073
:100E30001092840084E08093810081E080936F00B1
:100E40000F900F900F900F90DF91CF910895CF9357
:100E5000DF9300D0CDB7DEB79A83898380910201FA
:100E60009091030106960E940613892B59F48981FB
:100E70009A81909303018093020161E070E00696ED
:100E80000E9426130F900F90DF91CF9108950F933A
:100E90001F93CF93DF93E0911201F09113013097EC
:100EA00061F18091060190910701009731F1C091A5
:100EB0000401D0910501AA81BB81109779F0468188
:100EC00057816085718516960D911D912D913C91EC
:100ED0001997401B510B620B730B7AF4FC012081B4
:100EE00031813093070120930601D183C083909311
:100EF0000501809304010E942707DF91CF911F9184
:100F00000F9108951F920F920FB60F9211242F93F5
:100F10003F934F935F936F937F938F939F93AF9381
:100F2000BF93EF93FF9320910A0130910B01409101
:100F3000840050918500C901032E000CAA0BBB0B45
:100F4000DC019927882760E070E0842B952BA62B85
:100F5000B72B80930C0190930D01A0930E01B093D9
:100F60000F01B09B1BC04091840050918500C901C6
:100F70000196092E000CAA0BBB0BDC0199278827D0
:100F800060E070E0842B952BA62BB72B80930C018F
:100F900090930D01A0930E01B0930F01E091AE016B
:100FA000F091AF01309739F060E070E08091160168
:100FB0009091170109950E944707FF91EF91BF910A
:100FC000AF919F918F917F916F915F914F913F91E1
:100FD0002F910F900FBE0F901F9018951F920F9298
:100FE0000FB60F9211242F933F934F935F936F93FC
:100FF0007F938F939F93AF93BF93EF93FF93209132
:101000000A0130910B014091840050918500C90183
:10101000032E000CAA0BBB0BDC019927882760E08C
:1010200070E0842B952BA62BB72B80930C0190930B
:101030000D01A0930E01B0930F01B09B1BC0409116
:10104000840050918500C9010196092E000CAA0B5D
:10105000BB0BDC019927882760E070E0842B952B7F
:10106000A62BB72B80930C0190930D01A0930E013A
:10107000B0930F01E091B001F091B101309739F0D8
:1010800061E070E0809118019091190109950E942A
:101090004707FF91EF91BF91AF919F918F917F9102
:1010A0006F915F914F913F912F910F900FBE0F90D5
:1010B0001F9018951F920F920FB60F9211242F9325
:1010C0003F934F935F936F937F938F939F93AF93D0
:1010D000BF93EF93FF9320910A0130910B01409150
:1010E000840050918500C901032E000CAA0BBB0B94
:1010F000DC019927882760E070E0842B952BA62BD4
:10110000B72B80930C0190930D01A0930E01B09327
:101110000F01B09B1BC04091840050918500C90114
:101120000196092E000CAA0BBB0BDC01992788271E
:1011300060E070E0842B952BA62BB72B80930C01DD
:1011400090930D01A0930E01B0930F01E091B201B5
:10115000F091B301309739F062E070E080911A01AC
:1011600090911B0109950E944707FF91EF91BF9154
:10117000AF919F918F917F916F915F914F913F912F
:101180002F910F900FBE0F901F9018951F920F92E6
:101190000FB60F9211242F933F934F935F936F934A
:1011A0007F938F939F93AF93BF93EF93FF93209180
:1011B0000A0130910B014091840050918500C901D2
:1011C000032E000CAA0BBB0BDC019927882760E0DB
:1011D00070E0842B952BA62BB72B80930C0190935A
:1011E0000D01A0930E01B0930F01B09B1BC0409165
:1011F000840050918500C9010196092E000CAA0BAC
:10120000BB0BDC019927882760E070E0842B952BCD
:10121000A62BB72B80930C0190930D01A0930E0188
:10122000B0930F01E091B401F091B501309739F01E
:1012300063E070E080911C0190911D0109950E946E
:101240004707FF91EF91BF91AF919F918F917F9150
:101250006F915F914F913F912F910F900FBE0F9023
:101260001F9018951F920F920FB60F9211242F9373
:101270003F934F935F936F937F938F939F93AF931E
:10128000BF93EF93FF9320910A0130910B0140919E
:10129000840050918500C901032E000CAA0BBB0BE2
:1012A000DC019927882760E070E0842B952BA62B22
:1012B000B72B80930C0190930D01A0930E01B09376
:1012C0000F01B09B1BC04091840050918500C90163
:1012D0000196092E000CAA0BBB0BDC01992788276D
:1012E00060E070E0842B952BA62BB72B80930C012C
:1012F00090930D01A0930E01B0930F01E091B60100
:10130000F091B701309739F064E070E080911E01F0
:1013100090911F0109950E944707FF91EF91BF919E
:10132000AF919F918F917F916F915F914F913F917D
:101330002F910F900FBE0F901F9018951F920F9234
:101340000FB60F9211242F933F934F935F936F9398
:101350007F938F939F93AF93BF93EF93FF932091CE
:101360000A0130910B014091840050918500C90120
:10137000032E000CAA0BBB0BDC019927882760E029
:1013800070E0842B952BA62BB72B80930C019093A8
:101390000D01A0930E01B0930F01B09B1BC04091B3
:1013A000840050918500C9010196092E000CAA0BFA
:1013B000BB0BDC019927882760E070E0842B952B1C
:1013C000A62BB72B80930C0190930D01A0930E01D7
:1013D000B0930F01E091B801F091B901309739F065
:1013E00065E070E0809120019091210109950E94B3
:1013F0004707FF91EF91BF91AF919F918F917F919F
:101400006F915F914F913F912F910F900FBE0F9071
:101410001F9018951F920F920FB60F9211242F93C1
:101420003F934F935F936F937F938F939F93AF936C
:10143000BF93EF93FF9320910A0130910B014091EC
:10144000840050918500C901032E000CAA0BBB0B30
:10145000DC019927882760E070E0842B952BA62B70
:10146000B72B80930C0190930D01A0930E01B093C4
:101470000F01B09B1BC04091840050918500C901B1
:101480000196092E000CAA0BBB0BDC0199278827BB
:1014900060E070E0842B952BA62BB72B80930C017A
:1014A00090930D01A0930E01B0930F01E091BA014A
:1014B000F091BB01309739F066E070E08091220135
:1014C0009091230109950E944707FF91EF91BF91E9
:1014D000AF919F918F917F916F915F914F913F91CC
:1014E0002F910F900FBE0F901F9018951F920F9283
:1014F0000FB60F9211242F933F934F935F936F93E7
:101500007F938F939F93AF93BF93EF93FF9320911C
:101510000A0130910B014091840050918500C9016E
:10152000032E000CAA0BBB0BDC019927882760E077
:1015300070E0842B952BA62BB72B80930C019093F6
:101540000D01A0930E01B0930F01B09B1BC0409101
:10155000840050918500C9010196092E000CAA0B48
:10156000BB0BDC019927882760E070E0842B952B6A
:10157000A62BB72B80930C0190930D01A0930E0125
:10158000B0930F01E091BC01F091BD01309739F0AB
:1015900067E070E0809124019091250109950E94F7
:1015A0004707FF91EF91BF91AF919F918F917F91ED
:1015B0006F915F914F913F912F910F900FBE0F90C0
:1015C0001F9018951F920F920FB60F9211242F9310
:1015D0003F934F935F936F937F938F939F93AF93BB
:1015E000BF93EF93FF9320910A0130910B0140913B
:1015F000840050918500C901032E000CAA0BBB0B7F
:10160000DC019927882760E070E0842B952BA62BBE
:10161000B72B80930C0190930D01A0930E01B09312
:101620000F01B09B1BC04091840050918500C901FF
:101630000196092E000CAA0BBB0BDC019927882709
:1016400060E070E0842B952BA62BB72B80930C01C8
:1016500090930D01A0930E01B0930F01E091BE0194
:10166000F091BF01309739F068E070E08091260179
:101670009091270109950E944707FF91EF91BF9133
:10168000AF919F918F917F916F915F914F913F911A
:101690002F910F900FBE0F901F9018951F920F92D1
:1016A0000FB60F9211242F933F934F935F936F9335
:1016B0007F938F939F93AF93BF93EF93FF9320916B
:1016C0000A0130910B014091840050918500C901BD
:1016D000032E000CAA0BBB0BDC019927882760E0C6
:1016E00070E0842B952BA62BB72B80930C01909345
:1016F0000D01A0930E01B0930F01B09B1BC0409150
:10170000840050918500C9010196092E000CAA0B96
:10171000BB0BDC019927882760E070E0842B952BB8
:10172000A62BB72B80930C0190930D01A0930E0173
:10173000B0930F01E091C001F091C101309739F0F1
:1017400069E070E0809128019091290109950E943B
:101750004707FF91EF91BF91AF919F918F917F913B
:101760006F915F914F913F912F910F900FBE0F900E
:101770001F9018951F920F920FB60F9211242F935E
:101780003F934F935F936F937F938F939F93AF9309
:10179000BF93EF93FF9320910A0130910B01409189
:1017A000840050918500C901032E000CAA0BBB0BCD
:1017B000DC019927882760E070E0842B952BA62B0D
:1017C000B72B80930C0190930D01A0930E01B09361
:1017D0000F01B09B1BC04091840050918500C9014E
:1017E0000196092E000CAA0BBB0BDC019927882758
:1017F00060E070E0842B952BA62BB72B80930C0117
:1018000090930D01A0930E01B0930F01E091C201DE
:10181000F091C301309739F06AE070E080912A01BD
:1018200090912B0109950E944707FF91EF91BF917D
:10183000AF919F918F917F916F915F914F913F9168
:101840002F910F900FBE0F901F9018951F920F921F
:101850000FB60F9211242F933F934F935F936F9383
:101860007F938F939F93AF93BF93EF93FF932091B9
:101870000A0130910B014091840050918500C9010B
:10188000032E000CAA0BBB0BDC019927882760E014
:1018900070E0842B952BA62BB72B80930C01909393
:1018A0000D01A0930E01B0930F01B09B1BC040919E
:1018B000840050918500C9010196092E000CAA0BE5
:1018C000BB0BDC019927882760E070E0842B952B07
:1018D000A62BB72B80930C0190930D01A0930E01C2
:1018E000B0930F01E091C401F091C501309739F038
:1018F0006BE070E080912C0190912D0109950E9480
:101900004707FF91EF91BF91AF919F918F917F9189
:101910006F915F914F913F912F910F900FBE0F905C
:101920001F9018951F920F920FB60F9211242F93AC
:101930003F934F935F936F937F938F939F93AF9357
:10194000BF93EF93FF9320910A0130910B014091D7
:10195000840050918500C901032E000CAA0BBB0B1B
:10196000DC019927882760E070E0842B952BA62B5B
:10197000B72B80930C0190930D01A0930E01B093AF
:101980000F01B09B1BC04091840050918500C9019C
:101990000196092E000CAA0BBB0BDC0199278827A6
:1019A00060E070E0842B952BA62BB72B80930C0165
:1019B00090930D01A0930E01B0930F01E091C60129
:1019C000F091C701309739F06CE070E080912E0102
:1019D00090912F0109950E944707FF91EF91BF91C8
:1019E000AF919F918F917F916F915F914F913F91B7
:1019F0002F910F900FBE0F901F9018951F920F926E
:101A00000FB60F9211242F933F934F935F936F93D1
:101A10007F938F939F93AF93BF93EF93FF93209107
:101A20000A0130910B014091840050918500C90159
:101A3000032E000CAA0BBB0BDC019927882760E062
:101A400070E0842B952BA62BB72B80930C019093E1
:101A50000D01A0930E01B0930F01B09B1BC04091EC
:101A6000840050918500C9010196092E000CAA0B33
:101A7000BB0BDC019927882760E070E0842B952B55
:101A8000A62BB72B80930C0190930D01A0930E0110
:101A9000B0930F01E091C801F091C901309739F07E
:101AA0006DE070E0809130019091310109950E94C4
:101AB0004707FF91EF91BF91AF919F918F917F91D8
:101AC0006F915F914F913F912F910F900FBE0F90AB
:101AD0001F9018951F920F920FB60F9211242F93FB
:101AE0003F934F935F936F937F938F939F93AF93A6
:101AF000BF93EF93FF9320910A0130910B01409126
:101B0000840050918500C901032E000CAA0BBB0B69
:101B1000DC019927882760E070E0842B952BA62BA9
:101B2000B72B80930C0190930D01A0930E01B093FD
:101B30000F01B09B1BC04091840050918500C901EA
:101B40000196092E000CAA0BBB0BDC0199278827F4
:101B500060E070E0842B952BA62BB72B80930C01B3
:101B600090930D01A0930E01B0930F01E091CA0173
:101B7000F091CB01309739F06EE070E08091320146
:101B80009091330109950E944707FF91EF91BF9112
:101B9000AF919F918F917F916F915F914F913F9105
:101BA0002F910F900FBE0F901F9018951F920F92BC
:101BB0000FB60F9211242F933F934F935F936F9320
:101BC0007F938F939F93AF93BF93EF93FF93209156
:101BD0000A0130910B014091840050918500C901A8
:101BE000032E000CAA0BBB0BDC019927882760E0B1
:101BF00070E0842B952BA62BB72B80930C01909330
:101C00000D01A0930E01B0930F01B09B1BC040913A
:101C1000840050918500C9010196092E000CAA0B81
:101C2000BB0BDC019927882760E070E0842B952BA3
:101C3000A62BB72B80930C0190930D01A0930E015E
:101C4000B0930F01E091CC01F091CD01309739F0C4
:101C50006FE070E0809134019091350109950E9408
:101C60004707FF91EF91BF91AF919F918F917F9126
:101C70006F915F914F913F912F910F900FBE0F90F9
:101C80001F9018951F920F920FB60F9211242F9349
:101C90003F934F935F936F937F938F939F93AF93F4
:101CA000BF93EF93FF9320910A0130910B01409174
:101CB000840050918500C901032E000CAA0BBB0BB8
:101CC000DC019927882760E070E0842B952BA62BF8
:101CD000B72B80930C0190930D01A0930E01B0934C
:101CE0000F01B09B1BC04091840050918500C90139
:101CF0000196092E000CAA0BBB0BDC019927882743
:101D000060E070E0842B952BA62BB72B80930C0101
:101D100090930D01A0930E01B0930F01E091CE01BD
:101D2000F091CF01309739F060E170E08091360199
:101D30009091370109950E944707FF91EF91BF915C
:101D4000AF919F918F917F916F915F914F913F9153
:101D50002F910F900FBE0F901F9018951F920F920A
:101D60000FB60F9211242F933F934F935F936F936E
:101D70007F938F939F93AF93BF93EF93FF932091A4
:101D80000A0130910B014091840050918500C901F6
:101D9000032E000CAA0BBB0BDC019927882760E0FF
:101DA00070E0842B952BA62BB72B80930C0190937E
:101DB0000D01A0930E01B0930F01B09B1BC0409189
:101DC000840050918500C9010196092E000CAA0BD0
:101DD000BB0BDC019927882760E070E0842B952BF2
:101DE000A62BB72B80930C0190930D01A0930E01AD
:101DF000B0930F01E091D001F091D101309739F00B
:101E000061E170E0809138019091390109950E945B
:101E10004707FF91EF91BF91AF919F918F917F9174
:101E20006F915F914F913F912F910F900FBE0F9047
:101E30001F901895EF92FF920F931F93CF93DF930C
:101E40007B01EB01A881B981109761F1FC0106814A
:101E500017812085318516964D915D916D917C910C
:101E60001997041715072607370714F41BC0DF015D
:101E7000ED91FC911197309749F04681578160852B
:101E8000718504171507260737078CF7EC01F983CE
:101E9000E883109721F4F7019183808307C08D9325
:101EA0009C9304C0EC01B983A883F5CFDF91CF9157
:101EB0001F910F91FF90EF900895EF92FF920F9373
:101EC0001F93CF93DF937B01EB01A881B98110971A
:101ED00061F1FC01028113812481358112964D91BB
:101EE0005D916D917C9115970417150726073707AB
:101EF00014F41BC0DF01ED91FC911197309749F06C
:101F000042815381648175810417150726073707BD
:101F10008CF7EC01F983E883109721F4F7019183A2
:101F2000808307C08D939C9304C0EC01B983A88380
:101F3000F5CFDF91CF911F910F91FF90EF90089512
:101F4000DC01ED91FC911197309759F48FEF80935C
:101F5000EC008093ED008093EE0081E083BF8895D4
:101F6000FDCF208131812D933C93CF0108951F92A5
:101F70000F920FB60F9211242F933F934F935F93BD
:101F80006F937F938F939F93EF93FF9380910A01B9
:101F900090910B01019690930B0180930A01E091BF
:101FA0001001F0911101309701F142815381648158
:101FB000758186179707C9F4CA0120918400309172
:101FC0008500421B530B4130510529F48091840058
:101FD0009091850001969093890080938800EFE6A8
:101FE000F0E080818260808305C0EFE6F0E08081D0
:101FF0008D7F8083FF91EF919F918F917F916F9162
:102000005F914F913F912F910F900FBE0F901F90B6
:1020100018951F920F920FB60F921124CF92DF9254
:10202000EF92FF922F933F934F935F936F937F9322
:102030008F939F93AF93BF93EF93FF93C0900A0149
:10204000D0900B012091840030918500B0990FC091
:102050000D2C000CEE08FF08D6019927882769018E
:10206000E12CF12CC82AD92AEA2AFB2A15C0209192
:102070008400309185008FEFC81AD80A0D2C000C0F
:10208000EE08FF08D601992788276901E12CF12C79
:10209000C82AD92AEA2AFB2AE0911001F0911101FD
:1020A000309709F442C082819381A481B5818C1953
:1020B0009D09AE09BF09181619061A061B06ECF190
:1020C00080E191E00E94A00F62E171E00E941A0F8E
:1020D000E0911001F0911101309739F182819381E3
:1020E000A481B5818C199D09AE09BF09181619067E
:1020F0001A061B062CF721C09C01409184005091C8
:102100008500841B950B019731F420918400309158
:1021100085002F5F3F4F3093890020938800EFE6C2
:10212000F0E080818260808305C0EFE6F0E080818E
:102130008D7F80830E9447070CC082819381A48198
:10214000B58120910A0130910B012A173B0769F7ED
:10215000D3CFFF91EF91BF91AF919F918F917F91DD
:102160006F915F914F913F912F91FF90EF90DF9092
:10217000CF900F900FBE0F901F9018953F924F92E7
:102180005F926F927F928F929F92AF92BF92CF9207
:10219000DF92EF92FF920F931F93CF93DF932B0168
:1021A0003C0149015A018FB78078382EF89488E0B5
:1021B00091E00E94A00FEC011B870A87FD86EC8648
:1021C000DF86CE86332061F0E0910201F0910301B9
:1021D0000280F381E02D82819381A481B58108C0C2
:1021E00080910C0190910D01A0910E01B0910F0111
:1021F000480E591E6A1E7B1E4A825B826C827D825B
:10220000181419041A041B0444F00F2E88248A940D
:10221000982CA82CFFE7BF2EF02D840C951CA61C33
:10222000B71C8E829F82A886B98680910A01909100
:102230000B014091840050918500B0990EC0092E89
:10224000000CAA0BBB0BDC019927882760E070E02B
:10225000842B952BA62BB72B13C020918400309193
:1022600085000196092E000CAA0BBB0BDC019927F7
:102270008827A90160E070E0842B952BA62BB72B53
:10228000481A590A6A0A7B0A14141504160417041A
:10229000ACF560E171E0CE010E945D0FE0911001AC
:1022A000F0911101309721F182819381A481B58150
:1022B00020910A0130910B012A173B07C9F49C01B8
:1022C0004091840050918500841B950B019731F457
:1022D00020918400309185002F5F3F4F309389001B
:1022E00020938800EFE6F0E080818260808341C027
:1022F000EFE6F0E080818D7F80833BC062E171E09A
:10230000CE010E941A0F3320B9F1809106019091FD
:102310000701009781F1E0910401F09105012091FE
:1023200012013091130102811381D90116964D914A
:102330005D916D917C911997D80116960D911D9123
:102340002D913C911997401B510B620B730B9AF422
:10235000DC012D913C9111973093070120930601E8
:10236000ED93FC9390930501809304010E9427074D
:1023700002C0332009F07894CE01DF91CF911F91F4
:102380000F91FF90EF90DF90CF90BF90AF909F9014
:102390008F907F906F905F904F903F900895CF9275
:1023A000DF92EF92FF920F931F93CF93DF93EC0195
:1023B0007B016A011FB71078F894A881B981109742
:1023C00061F11496ED91FC911597309741F0A08141
:1023D000B1811496ED91FC9115973097C1F720913A
:1023E0000201309103012A173B0721F0112309F460
:1023F0003DC007C0112309F43CC078948FEF9FEFD4
:1024000052C08A819B810097D1F1FC011582148210
:1024100036C0789480E090E046C0809102019091AF
:10242000030199838883112329F08A819B81019775
:1024300009F07894B601CE01F7010995F82E092F1D
:102440008FB7F894198218828A819B818230910516
:1024500038F01B821A82FC01158214820E94270721
:10246000112351F078948F2D902F1DC08FEF9FEF87
:102470001AC08FEF9FEF17C08F2D902F14C03B8392
:102480002A83F901D583C483CD010E942707E091F7
:102490000201F091030182819381892B09F4B9CF64
:1024A000F983E883C2CFDF91CF911F910F91FF9005
:1024B000EF90DF90CF9008950091020110910301F9
:1024C00082E191E00E94A00FEC01D80113969C9349
:1024D0008E93129778944E855F856C857D858A856D
:1024E0009B850E94CF118FB7F8948091080190913D
:1024F000090199838883D0930901C0930801E09171
:102500000401F091050100811181E8012A813B81DC
:10251000A0911201B09113011097C1F0211531055E
:1025200059F216968D919D910D90BC91A02DE901C7
:102530004E815F8168857985841B950BA60BB70B4F
:10254000181619061A061B060CF0B6CF10930501D3
:10255000009304018091060190910701918380838B
:10256000F0930701E0930601A0910401B0910501E9
:102570001496ED91FC911597309741F0A081B181AF
:102580001496ED91FC9115973097C1F7CD010E94FB
:10259000270792CF4231B8F42FB7F89450E0440F98
:1025A000551FFA01EA5EFE4F91838083FA01E255DE
:1025B000FE4F7183608341E050E0FC01538342830E
:1025C00022230CF4789408958C017B016A018FB763
:1025D000F8940E94BC067894E114F10441F020E0E4
:1025E00030E0A90160E070E0CB010E94BE108FB71F
:1025F000F8940E944707789481E083BF8895FDCFC7
:10260000EE0FFF1F0590F491E02D0994DC012D924F
:102610003D924D925D926D927D928D929D92AD9282
:10262000BD92CD92DD92ED92FD920D931D93CD93CF
:10263000DD93FF91EF918DB78D938EB78D938FB70B
:102640008D93ED93FD93882799270994DC01CB01A5
:1026500081309105811D2D903D904D905D906D9044
:102660007D908D909D90AD90BD90CD90DD90ED9042
:10267000FD900D911D91CD91DD91ED91FD910D900C
:10268000F894FEBF0FBEEDBFED91FD910994F89453
:02269000FFCF7A
:0A2692003300D201D2013A01EF013A
:00000001FF
