:100000000C9459000C948B060C94F7060C9463071F
:100010000C94CF070C943B080C9476000C94120FB0
:100020000C9476000C94C00E0C94A7080C94130941
:100030000C947F090C94EB090C94570A0C94C30A96
:100040000C942F0B0C949B0B0C94070C0C94730CBE
:100050000C94DF0C0C944B0D0C94B70D92029E0285
:10006000AA02B602C202CE02DA02E602F202FE02E0
:1000700042044204420442044204420442040A0389
:10008000160322032E033A03460352035E036A0358
:10009000760382038E039A03A603B203BE03CA0348
:1000A000D603E203EE03FA03060412041E042A0434
:1000B000360411241FBECFEFD4E0DEBFCDBF11E068
:1000C000A0E0B1E0E4EFF4E202C005900D92AA30A6
:1000D000B107D9F724E0AAE0B1E001C01D92AD3527
:1000E000B207E1F70E94B0040C9478120C9400005F
:1000F000CF92DF92EF92FF920F931F9399230CF40C
:10010000F7C1823091058CF4E091EC00019709F081
:100110009BC048C004C0000F111F221F331F9A95B7
:10012000D2F7082B0093FB00E3C1843091058CF4D7
:10013000E091ED00039709F09FC0B6C004C0000F26
:10014000111F221F331F9A95D2F7082B0093FC0032
:10015000CFC1863091058CF4E091EE00059709F04F
:10016000F5C00CC104C0000F111F221F331F9A9548
:10017000D2F7082B0093FD00BBC1883091050CF02D
:10018000B7C1E091EF00079709F04AC161C104C00F
:10019000000F111F221F331F9A95D2F7082B0093CF
:1001A000FE00A6C19E2F9F706B01E12CF12CCC0CA0
:1001B000DD1CEE1CFF1CCC0CDD1CEE1CFF1CCC0C53
:1001C000DD1CEE1CFF1CCC0CDD1CEE1CFF1CE92F03
:1001D000EC29E093EC00E1EFF0E080818F7060E0CB
:1001E00070E0440F551F661F771F440F551F661F91
:1001F000771F440F551F661F771F440F551F661F3B
:10020000771F482B4083E6EFF0E08081482F4F7046
:10021000C901A0E0B0E0880F991FAA1FBB1F880F7B
:10022000991FAA1FBB1F880F991FAA1FBB1F880FEA
:10023000991FAA1FBB1F842B80838091FB008F70A6
:1002400020E030E094E066CF8E2F807F862B809375
:10025000EC00E1EFF0E08081807F482B4083E6EF07
:10026000F0E08081807F822B80838091FB00807F03
:1002700020E030E090E04ECF8E2F807F862B809361
:10028000ED00E2EFF0E08081807F482B4083E7EFD4
:10029000F0E08081807F822B80838091FC00807FD2
:1002A00020E030E090E04ACF9E2F9F706B01E12C60
:1002B000F12CCC0CDD1CEE1CFF1CCC0CDD1CEE1C50
:1002C000FF1CCC0CDD1CEE1CFF1CCC0CDD1CEE1C42
:1002D000FF1CE92FEC29E093ED00E2EFF0E08081D4
:1002E0008F7060E070E0440F551F661F771F440F4A
:1002F000551F661F771F440F551F661F771F440F3A
:10030000551F661F771F482B4083E7EFF0E0808181
:10031000482F4F70C901A0E0B0E0880F991FAA1FB5
:10032000BB1F880F991FAA1FBB1F880F991FAA1FE9
:10033000BB1F880F991FAA1FBB1F842B808380912E
:10034000FC008F7020E030E094E0F8CE8E2F807FAC
:10035000862B8093EE00E3EFF0E08081807F482BD6
:100360004083E8EFF0E08081807F822B8083809162
:10037000FD00807F20E030E090E0F4CE6B01E12CC6
:10038000F12CCC0CDD1CEE1CFF1CCC0CDD1CEE1C7F
:10039000FF1CCC0CDD1CEE1CFF1CCC0CDD1CEE1C71
:1003A000FF1C9E2F9F70E92FEC29E093EE00E3EFF6
:1003B000F0E0808160E070E0440F551F661F771FFA
:1003C000440F551F661F771F440F551F661F771F69
:1003D000440F551F661F771F8F70482B4083E8EF2F
:1003E000F0E04081C901A0E0B0E0880F991FAA1F8A
:1003F000BB1F880F991FAA1FBB1F880F991FAA1F19
:10040000BB1F880F991FAA1FBB1F242F2F70822B81
:1004100080838091FD008F7020E030E094E0A2CED8
:100420008E2F807F862B8093EF00E3EFF0E08081BA
:10043000807F482B4083E9EFF0E08081807F822B32
:1004400080838091FE00807F20E030E090E09FCEAE
:10045000CB01A0E0B0E0880F991FAA1FBB1F880F37
:10046000991FAA1FBB1F880F991FAA1FBB1F880FA8
:10047000991FAA1FBB1FEF708E2B8093EF00E3EF35
:10048000F0E0808160E070E0440F551F661F771F29
:10049000440F551F661F771F440F551F661F771F98
:1004A000440F551F661F771F8F70482B4083E9EF5D
:1004B000F0E04081C901A0E0B0E0880F991FAA1FB9
:1004C000BB1F880F991FAA1FBB1F880F991FAA1F48
:1004D000BB1F880F991FAA1FBB1F242F2F70822BB1
:1004E00080838091FE008F7020E030E094E04FCE5A
:1004F0001F910F91FF90EF90DF90CF9008950F9391
:100500001F936630710508F0C8C1DB01482F50E029
:10051000FA01F097EB32F10508F0B4C1E25DFF4F4C
:100520000C941D1205E010E025E030E045E050E0BD
:1005300069E070E0CD010E947800AFC100E010E0FA
:1005400021E030E041E050E060E070E0CD010E9449
:100550007800A3C105E010E028E030E041E050E081
:1005600061E070E0CD010E94780097C101E010E0E9
:100570002BE030E041E050E061E070E0CD010E940E
:1005800078008BC100E010E02BE030E045E050E067
:1005900060E070E0CD010E9478007FC101E010E0D2
:1005A0002BE030E044E050E061E070E0CD010E94DB
:1005B000780073C101E010E02FE030E044E050E04B
:1005C00061E070E0CD010E94780067C104E010E0B6
:1005D00020E030E040E050E069E070E0CD010E94B2
:1005E00078005BC101E010E02FE030E045E050E032
:1005F00061E070E0CD010E9478004FC101E010E0A1
:100600002BE030E045E050E061E070E0CD010E9479
:10061000780043C100E010E02FE030E045E050E01A
:1006200061E070E0CD010E94780037C101E010E088
:100630002FE030E045E050E061E070E0CD010E9445
:1006400078002BC101E010E024E030E044E050E00D
:1006500061E070E0CD010E9478001FC104E010E06D
:1006600024E030E046E050E060E070E0CD010E9420
:10067000780013C101E010E026E030E044E050E0F3
:1006800061E070E0CD010E94780007C100E010E059
:100690002EE030E044E050E061E070E0CD010E94E7
:1006A0007800FBC001E010E02DE030E044E050E0D5
:1006B00061E070E0CD010E947800EFC000E010E042
:1006C0002FE030E045E050E060E070E0CD010E94B6
:1006D0007800E3C002E010E020E030E048E050E0C5
:1006E00060E070E0CD010E947800D7C001E010E02A
:1006F00021E030E041E050E060E070E0CD010E9498
:100700007800CBC008E010E026E030E044E050E0A4
:1007100068E070E0CD010E947800BFC001E010E009
:1007200024E030E044E050E060E070E0CD010E9461
:100730007800B3C000E010E025E030E047E050E092
:1007400068E070E0CD010E947800A7C008E010E0EA
:1007500025E030E047E050E060E070E0CD010E942D
:1007600078009BC001E010E025E030E045E050E07B
:1007700061E070E0CD010E9478008FC000E010E0E1
:100780002EE030E045E050E061E070E0CD010E94F5
:10079000780083C009E010E025E030E045E050E05B
:1007A00061E070E0CD010E94780077C008E010E0C1
:1007B0002EE030E045E050E061E070E0CD010E94C5
:1007C00078006BC001E010E02BE030E044E050E046
:1007D00061E070E0CD010E9478005FC002E010E0AF
:1007E00020E030E048E050E061E070E0CD010E94A0
:1007F000780053C001E010E025E030E045E050E033
:1008000060E070E0CD010E94780047C004E010E095
:1008100024E030E044E050E068E070E0CD010E9468
:1008200078003BC003E010E025E030E045E050E018
:1008300060E070E0CD010E9478002FC00CE010E075
:1008400020E030E042E050E068E070E0CD010E943E
:10085000780023C002E010E020E030E042E050E009
:1008600068E070E0CD010E94780017C005E010E05C
:1008700020E030E040E050E069E070E0CD010E940F
:1008800078000BC002E010E028E030E041E050E0EA
:1008900061E070E0CD010E9478001F910F910895F2
:1008A00087EB8093E50087E08093E6008FE08093FC
:1008B000E70080E88093E4000895CF92DF92EF9202
:1008C000FF920F931F93CF93DF93EC018E819F8153
:1008D0006AE070E00E94091263E070E0805D0E94AF
:1008E0007F028E819F81181619061CF401979F8341
:1008F0008E838E819F8106971CF41986188604C00A
:1009000081E090E099878887C12CD12C0F2EFDE5DE
:10091000EF2EF4E0FF2EF02D8E012AE43BE740E0BD
:1009200050E062E17AE780E090E00E94C70FDF913B
:10093000CF911F910F91FF90EF90DF90CF9008958E
:10094000FC011582148225E030E03783268311866E
:1009500010860E945D040895FC01778366830895E4
:10096000CF93DF93CDB7DEB7A8970FB6F894DEBF6D
:100970000FBECDBFE1E6F0E080E8808310820E94E8
:10098000500460E070E088E40E947F021A821982BD
:100990001C821B82CE01059624E2FC0111922A954D
:1009A000E9F79E012F5F3F4F3EA32DA32E5F3F4FE0
:1009B00038A72FA340E050E06BEE74E00E94ED11E9
:1009C00080E090E0A8960FB6F894DEBF0FBECDBFD2
:1009D000DF91CF910895CF93DF93EC0144E655E08A
:1009E000BC0104960E94AC0540E050E060EA74E06F
:1009F000CE010C960E94D81040E050E060EA74E00E
:100A0000CE0146960E94D810DF91CF910895DC0167
:100A10009296ED91FC9193978081918101969183BB
:100A200080830895DC019096ED91FC9191978081EF
:100A300091810196918380830895DC019096ED91D8
:100A4000FC91919780819181019791838083089592
:100A5000DC019296ED91FC919397808191810197B1
:100A6000918380830895AB016CEA74E00C960E9438
:100A7000D8100895AB016CEA74E046960E94D81035
:100A800008950F931F93CF938C01C62F60FD0E9492
:100A90001205C1FF07C085E090E00E943A05C80139
:100AA0000E941D05C2FF03C0C8010E940705C3FFC5
:100AB00007C085E090E00E943305C8010E94280528
:100AC000CF911F910F9108950F931F93CF938C0196
:100AD000C62F8DEC689F812D11248695869586956D
:100AE000880F982F990F990F890F962F981B892F90
:100AF00065E070E0805D0E947F026C2F70E0C801AD
:100B00000E944105CF911F910F910895CF92DF92DE
:100B1000EF92FF920F931F939C01E0ECF0E0908125
:100B20009923ECF79091C6009A3079F0F901C92E1B
:100B3000D12CE680F7800481158120E030E0A90106
:100B400060E070E0CB010E94C70F1F910F91FF90F2
:100B5000EF90DF90CF900895FC01758364835783F5
:100B60004683209101012093C5002091000120932C
:100B7000C40028ED2093C10026E02093C20048E085
:100B800066E875E00E94D3110895CF93DF9300D0FB
:100B900000D0CDB7DEB78DEF91E02DED32E0FC0156
:100BA000709791838083409682179307C1F71092C4
:100BB000CE021092CD02E8E3F1E085E591E0918369
:100BC000808382E791E0968F858FAFE8B1E0B3AF85
:100BD000A2AF1D921C92FA83E983E9E3F3E0FC8360
:100BE000EB8389819A8106960E9437128B819C81C2
:100BF000E981FA81978B868B918F808F85E691E1D1
:100C0000948F838F158214827D96FA83E983EB811A
:100C1000FC81E05AFF4FFC83EB8389819A818C5AD7
:100C20009140F9F6E0EDF1E0118210821582148214
:100C300013821282E1E6F0E080E880831082109255
:100C400085001092840084E08093810081E080938D
:100C50006F000F900F900F900F90DF91CF9108953C
:100C6000CF93DF9300D0CDB7DEB79A83898380918D
:100C700002019091030106960E943712892B59F4C4
:100C800089819A81909303018093020161E070E071
:100C900006960E9457120F900F90DF91CF91089502
:100CA0000F931F93CF93DF93E0911201F091130103
:100CB000309761F18091060190910701009731F121
:100CC000C0910401D0910501AA81BB81109779F0F0
:100CD000468157816085718516960D911D912D91E4
:100CE0003C911997401B510B620B730B7AF4FC017A
:100CF000208131813093070120930601D183C08385
:100D000090930501809304010E943006DF91CF91FA
:100D10001F910F9108951F920F920FB60F921124F9
:100D20002F933F934F935F936F937F938F939F93F3
:100D3000AF93BF93EF93FF9320910A0130910B0182
:100D40004091840050918500C901032E000CAA0B2C
:100D5000BB0BDC019927882760E070E0842B952B82
:100D6000A62BB72B80930C0190930D01A0930E013D
:100D7000B0930F01B09B1BC040918400509185003F
:100D8000C9010196092E000CAA0BBB0BDC019927A7
:100D9000882760E070E0842B952BA62BB72B8093DF
:100DA0000C0190930D01A0930E01B0930F01E091FF
:100DB000AC01F091AD01309739F060E070E08091C6
:100DC00014019091150109950E945006FF91EF9131
:100DD000BF91AF919F918F917F916F915F914F9153
:100DE0003F912F910F900FBE0F901F9018951F925B
:100DF0000F920FB60F9211242F933F934F935F934F
:100E00006F937F938F939F93AF93BF93EF93FF93D2
:100E100020910A0130910B0140918400509185008E
:100E2000C901032E000CAA0BBB0BDC0199278827F4
:100E300060E070E0842B952BA62BB72B80930C01E0
:100E400090930D01A0930E01B0930F01B09B1BC0B6
:100E50004091840050918500C9010196092E000C33
:100E6000AA0BBB0BDC019927882760E070E0842B7C
:100E7000952BA62BB72B80930C0190930D01A0937B
:100E80000E01B0930F01E091AE01F091AF013097E8
:100E900039F061E070E08091160190911701099599
:100EA0000E945006FF91EF91BF91AF919F918F915A
:100EB0007F916F915F914F913F912F910F900FBE56
:100EC0000F901F9018951F920F920FB60F9211243A
:100ED0002F933F934F935F936F937F938F939F9342
:100EE000AF93BF93EF93FF9320910A0130910B01D1
:100EF0004091840050918500C901032E000CAA0B7B
:100F0000BB0BDC019927882760E070E0842B952BD0
:100F1000A62BB72B80930C0190930D01A0930E018B
:100F2000B0930F01B09B1BC040918400509185008D
:100F3000C9010196092E000CAA0BBB0BDC019927F5
:100F4000882760E070E0842B952BA62BB72B80932D
:100F50000C0190930D01A0930E01B0930F01E0914D
:100F6000B001F091B101309739F062E070E080910A
:100F700018019091190109950E945006FF91EF9177
:100F8000BF91AF919F918F917F916F915F914F91A1
:100F90003F912F910F900FBE0F901F9018951F92A9
:100FA0000F920FB60F9211242F933F934F935F939D
:100FB0006F937F938F939F93AF93BF93EF93FF9321
:100FC00020910A0130910B014091840050918500DD
:100FD000C901032E000CAA0BBB0BDC019927882743
:100FE00060E070E0842B952BA62BB72B80930C012F
:100FF00090930D01A0930E01B0930F01B09B1BC005
:101000004091840050918500C9010196092E000C81
:10101000AA0BBB0BDC019927882760E070E0842BCA
:10102000952BA62BB72B80930C0190930D01A093C9
:101030000E01B0930F01E091B201F091B30130972E
:1010400039F063E070E080911A0190911B010995DD
:101050000E945006FF91EF91BF91AF919F918F91A8
:101060007F916F915F914F913F912F910F900FBEA4
:101070000F901F9018951F920F920FB60F92112488
:101080002F933F934F935F936F937F938F939F9390
:10109000AF93BF93EF93FF9320910A0130910B011F
:1010A0004091840050918500C901032E000CAA0BC9
:1010B000BB0BDC019927882760E070E0842B952B1F
:1010C000A62BB72B80930C0190930D01A0930E01DA
:1010D000B0930F01B09B1BC04091840050918500DC
:1010E000C9010196092E000CAA0BBB0BDC01992744
:1010F000882760E070E0842B952BA62BB72B80937C
:101100000C0190930D01A0930E01B0930F01E0919B
:10111000B401F091B501309739F064E070E080914E
:101120001C0190911D0109950E945006FF91EF91BD
:10113000BF91AF919F918F917F916F915F914F91EF
:101140003F912F910F900FBE0F901F9018951F92F7
:101150000F920FB60F9211242F933F934F935F93EB
:101160006F937F938F939F93AF93BF93EF93FF936F
:1011700020910A0130910B0140918400509185002B
:10118000C901032E000CAA0BBB0BDC019927882791
:1011900060E070E0842B952BA62BB72B80930C017D
:1011A00090930D01A0930E01B0930F01B09B1BC053
:1011B0004091840050918500C9010196092E000CD0
:1011C000AA0BBB0BDC019927882760E070E0842B19
:1011D000952BA62BB72B80930C0190930D01A09318
:1011E0000E01B0930F01E091B601F091B701309775
:1011F00039F065E070E080911E0190911F01099522
:101200000E945006FF91EF91BF91AF919F918F91F6
:101210007F916F915F914F913F912F910F900FBEF2
:101220000F901F9018951F920F920FB60F921124D6
:101230002F933F934F935F936F937F938F939F93DE
:10124000AF93BF93EF93FF9320910A0130910B016D
:101250004091840050918500C901032E000CAA0B17
:10126000BB0BDC019927882760E070E0842B952B6D
:10127000A62BB72B80930C0190930D01A0930E0128
:10128000B0930F01B09B1BC040918400509185002A
:10129000C9010196092E000CAA0BBB0BDC01992792
:1012A000882760E070E0842B952BA62BB72B8093CA
:1012B0000C0190930D01A0930E01B0930F01E091EA
:1012C000B801F091B901309739F066E070E0809193
:1012D00020019091210109950E945006FF91EF9104
:1012E000BF91AF919F918F917F916F915F914F913E
:1012F0003F912F910F900FBE0F901F9018951F9246
:101300000F920FB60F9211242F933F934F935F9339
:101310006F937F938F939F93AF93BF93EF93FF93BD
:1013200020910A0130910B01409184005091850079
:10133000C901032E000CAA0BBB0BDC0199278827DF
:1013400060E070E0842B952BA62BB72B80930C01CB
:1013500090930D01A0930E01B0930F01B09B1BC0A1
:101360004091840050918500C9010196092E000C1E
:10137000AA0BBB0BDC019927882760E070E0842B67
:10138000952BA62BB72B80930C0190930D01A09366
:101390000E01B0930F01E091BA01F091BB013097BB
:1013A00039F067E070E08091220190912301099566
:1013B0000E945006FF91EF91BF91AF919F918F9145
:1013C0007F916F915F914F913F912F910F900FBE41
:1013D0000F901F9018951F920F920FB60F92112425
:1013E0002F933F934F935F936F937F938F939F932D
:1013F000AF93BF93EF93FF9320910A0130910B01BC
:101400004091840050918500C901032E000CAA0B65
:10141000BB0BDC019927882760E070E0842B952BBB
:10142000A62BB72B80930C0190930D01A0930E0176
:10143000B0930F01B09B1BC0409184005091850078
:10144000C9010196092E000CAA0BBB0BDC019927E0
:10145000882760E070E0842B952BA62BB72B809318
:101460000C0190930D01A0930E01B0930F01E09138
:10147000BC01F091BD01309739F068E070E08091D7
:1014800024019091250109950E945006FF91EF914A
:10149000BF91AF919F918F917F916F915F914F918C
:1014A0003F912F910F900FBE0F901F9018951F9294
:1014B0000F920FB60F9211242F933F934F935F9388
:1014C0006F937F938F939F93AF93BF93EF93FF930C
:1014D00020910A0130910B014091840050918500C8
:1014E000C901032E000CAA0BBB0BDC01992788272E
:1014F00060E070E0842B952BA62BB72B80930C011A
:1015000090930D01A0930E01B0930F01B09B1BC0EF
:101510004091840050918500C9010196092E000C6C
:10152000AA0BBB0BDC019927882760E070E0842BB5
:10153000952BA62BB72B80930C0190930D01A093B4
:101540000E01B0930F01E091BE01F091BF01309701
:1015500039F069E070E080912601909127010995AA
:101560000E945006FF91EF91BF91AF919F918F9193
:101570007F916F915F914F913F912F910F900FBE8F
:101580000F901F9018951F920F920FB60F92112473
:101590002F933F934F935F936F937F938F939F937B
:1015A000AF93BF93EF93FF9320910A0130910B010A
:1015B0004091840050918500C901032E000CAA0BB4
:1015C000BB0BDC019927882760E070E0842B952B0A
:1015D000A62BB72B80930C0190930D01A0930E01C5
:1015E000B0930F01B09B1BC04091840050918500C7
:1015F000C9010196092E000CAA0BBB0BDC0199272F
:10160000882760E070E0842B952BA62BB72B809366
:101610000C0190930D01A0930E01B0930F01E09186
:10162000C001F091C101309739F06AE070E080911B
:1016300028019091290109950E945006FF91EF9190
:10164000BF91AF919F918F917F916F915F914F91DA
:101650003F912F910F900FBE0F901F9018951F92E2
:101660000F920FB60F9211242F933F934F935F93D6
:101670006F937F938F939F93AF93BF93EF93FF935A
:1016800020910A0130910B01409184005091850016
:10169000C901032E000CAA0BBB0BDC01992788277C
:1016A00060E070E0842B952BA62BB72B80930C0168
:1016B00090930D01A0930E01B0930F01B09B1BC03E
:1016C0004091840050918500C9010196092E000CBB
:1016D000AA0BBB0BDC019927882760E070E0842B04
:1016E000952BA62BB72B80930C0190930D01A09303
:1016F0000E01B0930F01E091C201F091C301309748
:1017000039F06BE070E080912A0190912B010995EE
:101710000E945006FF91EF91BF91AF919F918F91E1
:101720007F916F915F914F913F912F910F900FBEDD
:101730000F901F9018951F920F920FB60F921124C1
:101740002F933F934F935F936F937F938F939F93C9
:10175000AF93BF93EF93FF9320910A0130910B0158
:101760004091840050918500C901032E000CAA0B02
:10177000BB0BDC019927882760E070E0842B952B58
:10178000A62BB72B80930C0190930D01A0930E0113
:10179000B0930F01B09B1BC0409184005091850015
:1017A000C9010196092E000CAA0BBB0BDC0199277D
:1017B000882760E070E0842B952BA62BB72B8093B5
:1017C0000C0190930D01A0930E01B0930F01E091D5
:1017D000C401F091C501309739F06CE070E0809160
:1017E0002C0190912D0109950E945006FF91EF91D7
:1017F000BF91AF919F918F917F916F915F914F9129
:101800003F912F910F900FBE0F901F9018951F9230
:101810000F920FB60F9211242F933F934F935F9324
:101820006F937F938F939F93AF93BF93EF93FF93A8
:1018300020910A0130910B01409184005091850064
:10184000C901032E000CAA0BBB0BDC0199278827CA
:1018500060E070E0842B952BA62BB72B80930C01B6
:1018600090930D01A0930E01B0930F01B09B1BC08C
:101870004091840050918500C9010196092E000C09
:10188000AA0BBB0BDC019927882760E070E0842B52
:10189000952BA62BB72B80930C0190930D01A09351
:1018A0000E01B0930F01E091C601F091C70130978E
:1018B00039F06DE070E080912E0190912F01099533
:1018C0000E945006FF91EF91BF91AF919F918F9130
:1018D0007F916F915F914F913F912F910F900FBE2C
:1018E0000F901F9018951F920F920FB60F92112410
:1018F0002F933F934F935F936F937F938F939F9318
:10190000AF93BF93EF93FF9320910A0130910B01A6
:101910004091840050918500C901032E000CAA0B50
:10192000BB0BDC019927882760E070E0842B952BA6
:10193000A62BB72B80930C0190930D01A0930E0161
:10194000B0930F01B09B1BC0409184005091850063
:10195000C9010196092E000CAA0BBB0BDC019927CB
:10196000882760E070E0842B952BA62BB72B809303
:101970000C0190930D01A0930E01B0930F01E09123
:10198000C801F091C901309739F06EE070E08091A4
:1019900030019091310109950E945006FF91EF911D
:1019A000BF91AF919F918F917F916F915F914F9177
:1019B0003F912F910F900FBE0F901F9018951F927F
:1019C0000F920FB60F9211242F933F934F935F9373
:1019D0006F937F938F939F93AF93BF93EF93FF93F7
:1019E00020910A0130910B014091840050918500B3
:1019F000C901032E000CAA0BBB0BDC019927882719
:101A000060E070E0842B952BA62BB72B80930C0104
:101A100090930D01A0930E01B0930F01B09B1BC0DA
:101A20004091840050918500C9010196092E000C57
:101A3000AA0BBB0BDC019927882760E070E0842BA0
:101A4000952BA62BB72B80930C0190930D01A0939F
:101A50000E01B0930F01E091CA01F091CB013097D4
:101A600039F06FE070E08091320190913301099577
:101A70000E945006FF91EF91BF91AF919F918F917E
:101A80007F916F915F914F913F912F910F900FBE7A
:101A90000F901F9018951F920F920FB60F9211245E
:101AA0002F933F934F935F936F937F938F939F9366
:101AB000AF93BF93EF93FF9320910A0130910B01F5
:101AC0004091840050918500C901032E000CAA0B9F
:101AD000BB0BDC019927882760E070E0842B952BF5
:101AE000A62BB72B80930C0190930D01A0930E01B0
:101AF000B0930F01B09B1BC04091840050918500B2
:101B0000C9010196092E000CAA0BBB0BDC01992719
:101B1000882760E070E0842B952BA62BB72B809351
:101B20000C0190930D01A0930E01B0930F01E09171
:101B3000CC01F091CD01309739F060E170E08091F7
:101B400034019091350109950E945006FF91EF9163
:101B5000BF91AF919F918F917F916F915F914F91C5
:101B60003F912F910F900FBE0F901F9018951F92CD
:101B70000F920FB60F9211242F933F934F935F93C1
:101B80006F937F938F939F93AF93BF93EF93FF9345
:101B900020910A0130910B01409184005091850001
:101BA000C901032E000CAA0BBB0BDC019927882767
:101BB00060E070E0842B952BA62BB72B80930C0153
:101BC00090930D01A0930E01B0930F01B09B1BC029
:101BD0004091840050918500C9010196092E000CA6
:101BE000AA0BBB0BDC019927882760E070E0842BEF
:101BF000952BA62BB72B80930C0190930D01A093EE
:101C00000E01B0930F01E091CE01F091CF0130971A
:101C100039F061E170E080913601909137010995CA
:101C20000E945006FF91EF91BF91AF919F918F91CC
:101C30007F916F915F914F913F912F910F900FBEC8
:101C40000F901F901895EF92FF920F931F93CF93D1
:101C5000DF937B01EB01A881B981109761F1FC0151
:101C6000068117812085318516964D915D916D9184
:101C70007C911997041715072607370714F41BC022
:101C8000DF01ED91FC911197309749F04681578122
:101C90006085718504171507260737078CF7EC0157
:101CA000F983E883109721F4F7019183808307C0BB
:101CB0008D939C9304C0EC01B983A883F5CFDF9189
:101CC000CF911F910F91FF90EF900895EF92FF92A7
:101CD0000F931F93CF93DF937B01EB01A881B98111
:101CE000109761F1FC0102811381248135811296E4
:101CF0004D915D916D917C911597041715072607FD
:101D0000370714F41BC0DF01ED91FC911197309758
:101D100049F04281538164817581041715072607B4
:101D200037078CF7EC01F983E883109721F4F7016A
:101D30009183808307C08D939C9304C0EC01B98389
:101D4000A883F5CFDF91CF911F910F91FF90EF9076
:101D50000895DC01ED91FC911197309759F48FEFC4
:101D60008093EC008093ED008093EE0081E083BFD0
:101D70008895FDCF208131812D933C93CF0108952B
:101D80001F920F920FB60F9211242F933F934F93F0
:101D90005F936F937F938F939F93EF93FF938091C4
:101DA0000A0190910B01019690930B0180930A0117
:101DB000E0911001F0911101309701F142815381BE
:101DC0006481758186179707C9F4CA012091840040
:101DD00030918500421B530B4130510529F480910D
:101DE00084009091850001969093890080938800EB
:101DF000EFE6F0E080818260808305C0EFE6F0E0EE
:101E000080818D7F8083FF91EF919F918F917F9152
:101E10006F915F914F913F912F910F900FBE0F9057
:101E20001F9018951F920F920FB60F921124CF9208
:101E3000DF92EF92FF922F933F934F935F936F93B5
:101E40007F938F939F93AF93BF93EF93FF93C09034
:101E50000A01D0900B012091840030918500B09947
:101E60000FC00D2C000CEE08FF08D601992788271B
:101E70006901E12CF12CC82AD92AEA2AFB2A15C0CB
:101E800020918400309185008FEFC81AD80A0D2C5C
:101E9000000CEE08FF08D601992788276901E12C7C
:101EA000F12CC82AD92AEA2AFB2AE0911001F091E4
:101EB0001101309709F442C082819381A481B581D8
:101EC0008C199D09AE09BF09181619061A061B06BA
:101ED000ECF180E191E00E94A90E62E171E00E94C4
:101EE000230EE0911001F0911101309739F18281B8
:101EF0009381A481B5818C199D09AE09BF0918167B
:101F000019061A061B062CF721C09C01409184007B
:101F100050918500841B950B019731F4209184002A
:101F2000309185002F5F3F4F3093890020938800C8
:101F3000EFE6F0E080818260808305C0EFE6F0E0AC
:101F400080818D7F80830E9450060CC082819381A6
:101F5000A481B58120910A0130910B012A173B071A
:101F600069F7D3CFFF91EF91BF91AF919F918F917F
:101F70007F916F915F914F913F912F91FF90EF90E3
:101F8000DF90CF900F900FBE0F901F9018953F924B
:101F90004F925F926F927F928F929F92AF92BF9279
:101FA000CF92DF92EF92FF920F931F93CF93DF9325
:101FB0002B013C0149015A018FB78078382EF894E3
:101FC00088E091E00E94A90EEC011B870A87FD863C
:101FD000EC86DF86CE86332061F0E0910201F0913D
:101FE00003010280F381E02D82819381A481B58178
:101FF00008C080910C0190910D01A0910E01B0914B
:102000000F01480E591E6A1E7B1E4A825B826C823B
:102010007D82181419041A041B0444F00F2E88241E
:102020008A94982CA82CFFE7BF2EF02D840C951CC9
:10203000A61CB71C8E829F82A886B98680910A0151
:1020400090910B014091840050918500B0990EC091
:10205000092E000CAA0BBB0BDC019927882760E036
:1020600070E0842B952BA62BB72B13C020918400F6
:10207000309185000196092E000CAA0BBB0BDC01E8
:1020800099278827A90160E070E0842B952BA62B67
:10209000B72B481A590A6A0A7B0A14141504160445
:1020A0001704ACF560E171E0CE010E94660EE0918C
:1020B0001001F0911101309721F182819381A48167
:1020C000B58120910A0130910B012A173B07C9F411
:1020D0009C014091840050918500841B950B0197D1
:1020E00031F420918400309185002F5F3F4F309371
:1020F000890020938800EFE6F0E080818260808391
:1021000041C0EFE6F0E080818D7F80833BC062E1DB
:1021100071E0CE010E94230E3320B9F180910601B7
:1021200090910701009781F1E0910401F091050180
:10213000209112013091130102811381D901169669
:102140004D915D916D917C911997D80116960D91E5
:102150001D912D913C911997401B510B620B730BF4
:102160009AF4DC012D913C91119730930701209353
:102170000601ED93FC9390930501809304010E9466
:10218000300602C0332009F07894CE01DF91CF9160
:102190001F910F91FF90EF90DF90CF90BF90AF9085
:1021A0009F908F907F906F905F904F903F90089599
:1021B000CF92DF92EF92FF920F931F93CF93DF9313
:1021C000EC017B016A011FB71078F894A881B981EE
:1021D000109761F11496ED91FC911597309741F0AD
:1021E000A081B1811496ED91FC9115973097C1F7BC
:1021F00020910201309103012A173B0721F011239E
:1022000009F43DC007C0112309F43CC078948FEF56
:102210009FEF52C08A819B810097D1F1FC0115820A
:10222000148236C0789480E090E046C0809102012C
:102230009091030199838883112329F08A819B81DE
:10224000019709F07894B601CE01F7010995F82EAF
:10225000092F8FB7F894198218828A819B81823066
:10226000910538F01B821A82FC01158214820E94AB
:102270003006112351F078948F2D902F1DC08FEFD1
:102280009FEF1AC08FEF9FEF17C08F2D902F14C0B4
:102290003B832A83F901D583C483CD010E94300694
:1022A000E0910201F091030182819381892B09F46D
:1022B000B9CFF983E883C2CFDF91CF911F910F91FE
:1022C000FF90EF90DF90CF90089500910201109160
:1022D000030182E191E00E94A90EEC01D80113965E
:1022E0009C938E93129778944E855F856C857D853F
:1022F0008A859B850E94D8108FB7F8948091080139
:102300009091090199838883D0930901C0930801B2
:10231000E0910401F091050100811181E8012A8119
:102320003B81A0911201B09113011097C1F02115CA
:10233000310559F216968D919D910D90BC91A02D6D
:10234000E9014E815F8168857985841B950BA60B19
:10235000B70B181619061A061B060CF0B6CF109309
:10236000050100930401809106019091070191837A
:102370008083F0930701E0930601A0910401B091DE
:1023800005011496ED91FC911597309741F0A081CD
:10239000B1811496ED91FC9115973097C1F7CD015D
:1023A0000E94300692CF4231B8F42FB7F89450E033
:1023B000440F551FFA01EC5EFE4F91838083FA01B2
:1023C000E455FE4F7183608341E050E0FC0153838C
:1023D000428322230CF4789408958C017B016A01D6
:1023E0008FB7F8940E94C5057894E114F10441F088
:1023F00020E030E0A90160E070E0CB010E94C70F4F
:102400008FB7F8940E945006789481E083BF889536
:10241000FDCF97FB072E16F4009407D077FD09D067
:102420000E94231207FC05D03EF4909581959F4FA2
:102430000895709561957F4F0895EE0FFF1F0590E9
:10244000F491E02D0994AA1BBB1B51E107C0AA1F00
:10245000BB1FA617B70710F0A61BB70B881F991F45
:102460005A95A9F780959095BC01CD010895DC019E
:102470002D923D924D925D926D927D928D929D92A4
:10248000AD92BD92CD92DD92ED92FD920D931D9392
:10249000CD93DD93FF91EF918DB78D938EB78D9393
:1024A0008FB78D93ED93FD93882799270994DC01CD
:1024B000CB0181309105811D2D903D904D905D9017
:1024C0006D907D908D909D90AD90BD90CD90DD9064
:1024D000ED90FD900D911D91CD91DD91ED91FD91CE
:1024E0000D90F894FEBF0FBEEDBFED91FD910994E4
:0424F000F894FFCF8E
:0A24F4003300D001D0013801ED01E2
:00000001FF
