:100000000C9459000C9476000C9476000C947600B5
:100010000C9476000C9476000C9476000C944A06AE
:100020000C9476000C9476000C9476000C94760078
:100030000C9476000C9476000C9476000C94760068
:100040000C9476000C9476000C9476000C94760058
:100050000C9476000C9476000C94760092029E022A
:10006000AA02B602C202CE02DA02E602F202FE02E0
:1000700042044204420442044204420442040A0389
:10008000160322032E033A03460352035E036A0358
:10009000760382038E039A03A603B203BE03CA0348
:1000A000D603E203EE03FA03060412041E042A0434
:1000B000360411241FBECFEFD4E0DEBFCDBF11E068
:1000C000A0E0B1E0E6E6FEE002C005900D92A430AB
:1000D000B107D9F723E0A4E0B1E001C01D92AB3233
:1000E000B207E1F70E942D050C9431070C94000033
:1000F000CF92DF92EF92FF920F931F9399230CF40C
:10010000F7C1823091058CF4E091EC00019709F081
:100110009BC048C004C0000F111F221F331F9A95B7
:10012000D2F7082B0093FB00E3C1843091058CF4D7
:10013000E091ED00039709F09FC0B6C004C0000F26
:10014000111F221F331F9A95D2F7082B0093FC0032
:10015000CFC1863091058CF4E091EE00059709F04F
:10016000F5C00CC104C0000F111F221F331F9A9548
:10017000D2F7082B0093FD00BBC1883091050CF02D
:10018000B7C1E091EF00079709F04AC161C104C00F
:10019000000F111F221F331F9A95D2F7082B0093CF
:1001A000FE00A6C19E2F9F706B01E12CF12CCC0CA0
:1001B000DD1CEE1CFF1CCC0CDD1CEE1CFF1CCC0C53
:1001C000DD1CEE1CFF1CCC0CDD1CEE1CFF1CE92F03
:1001D000EC29E093EC00E1EFF0E080818F7060E0CB
:1001E00070E0440F551F661F771F440F551F661F91
:1001F000771F440F551F661F771F440F551F661F3B
:10020000771F482B4083E6EFF0E08081482F4F7046
:10021000C901A0E0B0E0880F991FAA1FBB1F880F7B
:10022000991FAA1FBB1F880F991FAA1FBB1F880FEA
:10023000991FAA1FBB1F842B80838091FB008F70A6
:1002400020E030E094E066CF8E2F807F862B809375
:10025000EC00E1EFF0E08081807F482B4083E6EF07
:10026000F0E08081807F822B80838091FB00807F03
:1002700020E030E090E04ECF8E2F807F862B809361
:10028000ED00E2EFF0E08081807F482B4083E7EFD4
:10029000F0E08081807F822B80838091FC00807FD2
:1002A00020E030E090E04ACF9E2F9F706B01E12C60
:1002B000F12CCC0CDD1CEE1CFF1CCC0CDD1CEE1C50
:1002C000FF1CCC0CDD1CEE1CFF1CCC0CDD1CEE1C42
:1002D000FF1CE92FEC29E093ED00E2EFF0E08081D4
:1002E0008F7060E070E0440F551F661F771F440F4A
:1002F000551F661F771F440F551F661F771F440F3A
:10030000551F661F771F482B4083E7EFF0E0808181
:10031000482F4F70C901A0E0B0E0880F991FAA1FB5
:10032000BB1F880F991FAA1FBB1F880F991FAA1FE9
:10033000BB1F880F991FAA1FBB1F842B808380912E
:10034000FC008F7020E030E094E0F8CE8E2F807FAC
:10035000862B8093EE00E3EFF0E08081807F482BD6
:100360004083E8EFF0E08081807F822B8083809162
:10037000FD00807F20E030E090E0F4CE6B01E12CC6
:10038000F12CCC0CDD1CEE1CFF1CCC0CDD1CEE1C7F
:10039000FF1CCC0CDD1CEE1CFF1CCC0CDD1CEE1C71
:1003A000FF1C9E2F9F70E92FEC29E093EE00E3EFF6
:1003B000F0E0808160E070E0440F551F661F771FFA
:1003C000440F551F661F771F440F551F661F771F69
:1003D000440F551F661F771F8F70482B4083E8EF2F
:1003E000F0E04081C901A0E0B0E0880F991FAA1F8A
:1003F000BB1F880F991FAA1FBB1F880F991FAA1F19
:10040000BB1F880F991FAA1FBB1F242F2F70822B81
:1004100080838091FD008F7020E030E094E0A2CED8
:100420008E2F807F862B8093EF00E3EFF0E08081BA
:10043000807F482B4083E9EFF0E08081807F822B32
:1004400080838091FE00807F20E030E090E09FCEAE
:10045000CB01A0E0B0E0880F991FAA1FBB1F880F37
:10046000991FAA1FBB1F880F991FAA1FBB1F880FA8
:10047000991FAA1FBB1FEF708E2B8093EF00E3EF35
:10048000F0E0808160E070E0440F551F661F771F29
:10049000440F551F661F771F440F551F661F771F98
:1004A000440F551F661F771F8F70482B4083E9EF5D
:1004B000F0E04081C901A0E0B0E0880F991FAA1FB9
:1004C000BB1F880F991FAA1FBB1F880F991FAA1F48
:1004D000BB1F880F991FAA1FBB1F242F2F70822BB1
:1004E00080838091FE008F7020E030E094E04FCE5A
:1004F0001F910F91FF90EF90DF90CF9008950F9391
:100500001F936630710508F0C8C1DB01482F50E029
:10051000FA01F097EB32F10508F0B4C1E25DFF4F4C
:100520000C94B40605E010E025E030E045E050E032
:1005300069E070E0CD010E947800AFC100E010E0FA
:1005400021E030E041E050E060E070E0CD010E9449
:100550007800A3C105E010E028E030E041E050E081
:1005600061E070E0CD010E94780097C101E010E0E9
:100570002BE030E041E050E061E070E0CD010E940E
:1005800078008BC100E010E02BE030E045E050E067
:1005900060E070E0CD010E9478007FC101E010E0D2
:1005A0002BE030E044E050E061E070E0CD010E94DB
:1005B000780073C101E010E02FE030E044E050E04B
:1005C00061E070E0CD010E94780067C104E010E0B6
:1005D00020E030E040E050E069E070E0CD010E94B2
:1005E00078005BC101E010E02FE030E045E050E032
:1005F00061E070E0CD010E9478004FC101E010E0A1
:100600002BE030E045E050E061E070E0CD010E9479
:10061000780043C100E010E02FE030E045E050E01A
:1006200061E070E0CD010E94780037C101E010E088
:100630002FE030E045E050E061E070E0CD010E9445
:1006400078002BC101E010E024E030E044E050E00D
:1006500061E070E0CD010E9478001FC104E010E06D
:1006600024E030E046E050E060E070E0CD010E9420
:10067000780013C101E010E026E030E044E050E0F3
:1006800061E070E0CD010E94780007C100E010E059
:100690002EE030E044E050E061E070E0CD010E94E7
:1006A0007800FBC001E010E02DE030E044E050E0D5
:1006B00061E070E0CD010E947800EFC000E010E042
:1006C0002FE030E045E050E060E070E0CD010E94B6
:1006D0007800E3C002E010E020E030E048E050E0C5
:1006E00060E070E0CD010E947800D7C001E010E02A
:1006F00021E030E041E050E060E070E0CD010E9498
:100700007800CBC008E010E026E030E044E050E0A4
:1007100068E070E0CD010E947800BFC001E010E009
:1007200024E030E044E050E060E070E0CD010E9461
:100730007800B3C000E010E025E030E047E050E092
:1007400068E070E0CD010E947800A7C008E010E0EA
:1007500025E030E047E050E060E070E0CD010E942D
:1007600078009BC001E010E025E030E045E050E07B
:1007700061E070E0CD010E9478008FC000E010E0E1
:100780002EE030E045E050E061E070E0CD010E94F5
:10079000780083C009E010E025E030E045E050E05B
:1007A00061E070E0CD010E94780077C008E010E0C1
:1007B0002EE030E045E050E061E070E0CD010E94C5
:1007C00078006BC001E010E02BE030E044E050E046
:1007D00061E070E0CD010E9478005FC002E010E0AF
:1007E00020E030E048E050E061E070E0CD010E94A0
:1007F000780053C001E010E025E030E045E050E033
:1008000060E070E0CD010E94780047C004E010E095
:1008100024E030E044E050E068E070E0CD010E9468
:1008200078003BC003E010E025E030E045E050E018
:1008300060E070E0CD010E9478002FC00CE010E075
:1008400020E030E042E050E068E070E0CD010E943E
:10085000780023C002E010E020E030E042E050E009
:1008600068E070E0CD010E94780017C005E010E05C
:1008700020E030E040E050E069E070E0CD010E940F
:1008800078000BC002E010E028E030E041E050E0EA
:1008900061E070E0CD010E9478001F910F910895F2
:1008A00087EB8093E50087E08093E6008FE08093FC
:1008B000E70080E88093E4000895C0E0D0E0FF24E2
:1008C000F394C12C6894DD24D2F8E12C0E947706C1
:1008D0004497DCF080E090E00E947C06209719F4B9
:1008E00060E070E002C06D2D7E2D00E010E020E0A1
:1008F00030E040E050E082E090E00E9478008F2DF0
:10090000CD2B09F08C2DC82FD0E00E943906DECF08
:1009100027982F9A0895CF92DF92EF92FF92CF936C
:10092000DF936B017C0183E0C816D104E104F1047C
:100930007CF1D701C60181709927AA27B078BB2323
:1009400054F40197A109B1098E6F9F6FAF6FBF6F0C
:100950000196A11DB11D892B8A2B8B2BE1F0C2E0E2
:10096000D0E008C0C701B6010E949506672B682B2E
:10097000692BA1F021969E010D2E000C440B550B06
:100980002C153D054E055F056CF381E090E008C035
:1009900081E090E005C080E090E002C080E090E05F
:1009A000DF91CF91FF90EF90DF90CF900895EF927D
:1009B000FF920F931F93CF93DF937C01EB0164E6CB
:1009C00070E00E9481060AE010E0B8010E948106F2
:1009D000862FBE01805D0E947F022196C701B8016B
:1009E0000E948106BE01805D0E947F02DF91CF914F
:1009F0001F910F91FF90EF9008950E94880483B19A
:100A0000082E000C990B80959095C92FCC1FCC27F0
:100A1000CC1F80E0D82F40E050E011E000E023B18F
:100A2000022E000C330B2227330F221F3327C2174D
:100A3000D307A9F3209751F47A018FEFE81AF80A47
:100A400064E070E0CA010E94D704A701912FCD2B6A
:100A500009F0902FC92FD0E0E2CFE1E6F0E080E886
:100A6000808310820E94500460E070E082E495E090
:100A70000E949E0560E070E08DE594E00E949E0576
:100A80000E94FD04C2E0D0E0BE010D2E000C880BD8
:100A9000990B0E948B04892B29F060E070E0CE0155
:100AA0000E94D7042196F0CFDC0115961C921E926D
:100AB0001497DB01ED91FC911197309721F48D9300
:100AC0009C930895F9012481358121153105D1F7D1
:100AD000958384830895DC01ED91FC911197309703
:100AE00039F462E070E085E490E00E947F02FFCF7D
:100AF000248135812D933C93CF010895CF93DF93CB
:100B000000D0CDB7DEB79A838983809100019091A0
:100B1000010106960E94F006892B59F489819A8179
:100B2000909301018093000161E070E006960E94BD
:100B300010070F900F90DF91CF910895EF92FF92E1
:100B40000F931F93CF93DF9300D0CDB7DEB77C0117
:100B50008B01F8948091040190910501892B09F093
:100B60003FC082EE91E090937A01809379018FE407
:100B700092E09093E7018093E6018CEB92E09093F2
:100B80005402809353021092C1021092C00210923C
:100B90002A031092290385B1806A85B9E0E8F0E064
:100BA0008081806C8083E1E8F0E0808188608083D0
:100BB000808185608083EFE6F0E0808182608083C1
:100BC00087E891E0909389008093880010928500D7
:100BD0001092840081E090E09093050180930401DD
:100BE00082E091E00E946B059A838983FC01F18287
:100BF000E082138302831582148206960E94F00617
:100C00000197E1F47894A0910001B0910101ED9178
:100C1000FC91119712968D919C9113970995F894D8
:100C200062E071E080910001909101010E94540501
:100C300086E091E00E946B050E947E05E981FA81C1
:100C4000369689819A8187599F4F918B808B938BA0
:100C5000828B66E071E089819A810E9454057894C4
:100C60000F900F90DF91CF911F910F91FF90EF9018
:100C70000895F89466E071E080910001909101017F
:100C80000E94540586E091E00E946B050E947E055B
:100C9000789408951F920F920FB60F9211242F93FC
:100CA0003F934F935F936F937F938F939F93AF93F4
:100CB000BF93EF93FF938091290390912A030196AC
:100CC00090932A03809329030E943906FF91EF91A4
:100CD000BF91AF919F918F917F916F915F914F9154
:100CE0003F912F910F900FBE0F901F9018958091FC
:100CF000290390912A03089590932A03809329034E
:100D0000089597FB072E16F4009407D077FD09D0BD
:100D10000E94BA0607FC05D03EF4909581959F4F3E
:100D20000895709561957F4F0895052E97FB1EF4E9
:100D300000940E94AC0657FD07D00E94CE0607FC27
:100D400003D04EF40C94AC06509540953095219507
:100D50003F4F4F4F5F4F08959095809570956195E7
:100D60007F4F8F4F9F4F0895EE0FFF1F0590F49117
:100D7000E02D0994AA1BBB1B51E107C0AA1FBB1F92
:100D8000A617B70710F0A61BB70B881F991F5A9517
:100D9000A9F780959095BC01CD010895A1E21A2E86
:100DA000AA1BBB1BFD010DC0AA1FBB1FEE1FFF1F0F
:100DB000A217B307E407F50720F0A21BB30BE40B5F
:100DC000F50B661F771F881F991F1A9469F76095A6
:100DD0007095809590959B01AC01BD01CF01089560
:100DE000DC012D923D924D925D926D927D928D929D
:100DF0009D92AD92BD92CD92DD92ED92FD920D93BA
:100E00001D93CD93DD93FF91EF918DB78D938EB7A9
:100E10008D938FB78D93ED93FD9388279927099430
:100E2000DC01CB0181309105811D2D903D904D90CD
:100E30005D906D907D908D909D90AD90BD90CD908A
:100E4000DD90ED90FD900D911D91CD91DD91ED9195
:100E5000FD910D90F894FEBF0FBEEDBFED91FD9199
:060E60000994F894FFCF95
:040E66000801750109
:00000001FF
