:100000000C9459000C946B000C946B000C946B00D6
:100010000C946B000C946B000C946B000C946B00B4
:100020000C946B000C946B000C946B000C946B00A4
:100030000C946B000C946B000C946B000C946B0094
:100040000C946B000C946B000C946B000C946B0084
:100050000C946B000C946B000C946B009E02AA0233
:10006000B602C202CE02DA02E602F202FE020A037F
:100070004E044E044E044E044E044E044E04160329
:1000800022032E033A03460352035E036A037603F8
:1000900082038E039A03A603B203BE03CA03D603E8
:1000A000E203EE03FA03060412041E042A043604D3
:1000B000420411241FBECFEFD4E0DEBFCDBF21E04C
:1000C000A0E0B1E001C01D92A630B207E1F70E94A6
:1000D00084050C94E4050C940000E1E8F0E08081D4
:1000E0008460808308958091840090918500883594
:1000F000984438F0109285001092840081E090E0DE
:10010000089580E090E00895CF92DF92EF92FF9201
:100110000F931F9399230CF4F7C1823091058CF44F
:10012000E091EC00019709F09BC048C004C0000FAB
:10013000111F221F331F9A95D2F7082B0093FB0043
:10014000E3C1843091058CF4E091ED00039709F050
:100150009FC0B6C004C0000F111F221F331F9A9505
:10016000D2F7082B0093FC00CFC1863091058CF4A8
:10017000E091EE00059709F0F5C00CC104C0000F36
:10018000111F221F331F9A95D2F7082B0093FD00F1
:10019000BBC1883091050CF0B7C1E091EF00079723
:1001A00009F04AC161C104C0000F111F221F331F93
:1001B0009A95D2F7082B0093FE00A6C19E2F9F7040
:1001C0006B01E12CF12CCC0CDD1CEE1CFF1CCC0CCB
:1001D000DD1CEE1CFF1CCC0CDD1CEE1CFF1CCC0C33
:1001E000DD1CEE1CFF1CE92FEC29E093EC00E1EF95
:1001F000F0E080818F7060E070E0440F551F661F53
:10020000771F440F551F661F771F440F551F661F2A
:10021000771F440F551F661F771F482B4083E6EF5B
:10022000F0E08081482F4F70C901A0E0B0E0880F56
:10023000991FAA1FBB1F880F991FAA1FBB1F880FDA
:10024000991FAA1FBB1F880F991FAA1FBB1F842BB2
:1002500080838091FB008F7020E030E094E066CFD7
:100260008E2F807F862B8093EC00E1EFF0E0808181
:10027000807F482B4083E6EFF0E08081807F822BF7
:1002800080838091FB00807F20E030E090E04ECFC3
:100290008E2F807F862B8093ED00E2EFF0E080814F
:1002A000807F482B4083E7EFF0E08081807F822BC6
:1002B00080838091FC00807F20E030E090E04ACF96
:1002C0009E2F9F706B01E12CF12CCC0CDD1CEE1CE1
:1002D000FF1CCC0CDD1CEE1CFF1CCC0CDD1CEE1C32
:1002E000FF1CCC0CDD1CEE1CFF1CE92FEC29E0935D
:1002F000ED00E2EFF0E080818F7060E070E0440F8D
:10030000551F661F771F440F551F661F771F440F29
:10031000551F661F771F440F551F661F771F482BF9
:100320004083E7EFF0E08081482F4F70C901A0E0E3
:10033000B0E0880F991FAA1FBB1F880F991FAA1F23
:10034000BB1F880F991FAA1FBB1F880F991FAA1FC9
:10035000BB1F842B80838091FC008F7020E030E0F5
:1003600094E0F8CE8E2F807F862B8093EE00E3EF13
:10037000F0E08081807F482B4083E8EFF0E08081CF
:10038000807F822B80838091FD00807F20E030E0A1
:1003900090E0F4CE6B01E12CF12CCC0CDD1CEE1CBA
:1003A000FF1CCC0CDD1CEE1CFF1CCC0CDD1CEE1C61
:1003B000FF1CCC0CDD1CEE1CFF1C9E2F9F70E92F38
:1003C000EC29E093EE00E3EFF0E0808160E070E084
:1003D000440F551F661F771F440F551F661F771F59
:1003E000440F551F661F771F440F551F661F771F49
:1003F0008F70482B4083E8EFF0E04081C901A0E016
:10040000B0E0880F991FAA1FBB1F880F991FAA1F52
:10041000BB1F880F991FAA1FBB1F880F991FAA1FF8
:10042000BB1F242F2F70822B80838091FD008F7043
:1004300020E030E094E0A2CE8E2F807F862B809348
:10044000EF00E3EFF0E08081807F482B4083E9EF0D
:10045000F0E08081807F822B80838091FE00807F0E
:1004600020E030E090E09FCECB01A0E0B0E0880F2C
:10047000991FAA1FBB1F880F991FAA1FBB1F880F98
:10048000991FAA1FBB1F880F991FAA1FBB1FEF70C0
:100490008E2B8093EF00E3EFF0E0808160E070E06E
:1004A000440F551F661F771F440F551F661F771F88
:1004B000440F551F661F771F440F551F661F771F78
:1004C0008F70482B4083E9EFF0E04081C901A0E044
:1004D000B0E0880F991FAA1FBB1F880F991FAA1F82
:1004E000BB1F880F991FAA1FBB1F880F991FAA1F28
:1004F000BB1F242F2F70822B80838091FE008F7072
:1005000020E030E094E04FCE1F910F91FF90EF90EC
:10051000DF90CF9008950F931F936630710508F018
:10052000C8C1DB01482F50E0FA01F097EB32F1052A
:1005300008F0B4C1E25DFF4F0C94BC0505E010E08B
:1005400025E030E045E050E069E070E0CD010E9438
:100550008400AFC100E010E021E030E041E050E075
:1005600060E070E0CD010E948400A3C105E010E0CE
:1005700028E030E041E050E061E070E0CD010E9411
:10058000840097C101E010E02BE030E041E050E052
:1005900061E070E0CD010E9484008BC100E010E0BA
:1005A0002BE030E045E050E060E070E0CD010E94DB
:1005B00084007FC101E010E02BE030E044E050E037
:1005C00061E070E0CD010E94840073C101E010E0A1
:1005D0002FE030E044E050E061E070E0CD010E94A7
:1005E000840067C104E010E020E030E040E050E02B
:1005F00069E070E0CD010E9484005BC101E010E081
:100600002FE030E045E050E061E070E0CD010E9475
:1006100084004FC101E010E02BE030E045E050E005
:1006200061E070E0CD010E94840043C100E010E071
:100630002FE030E045E050E061E070E0CD010E9445
:10064000840037C101E010E02FE030E045E050E0E9
:1006500061E070E0CD010E9484002BC101E010E058
:1006600024E030E044E050E061E070E0CD010E9421
:1006700084001FC104E010E024E030E046E050E0D8
:1006800060E070E0CD010E94840013C101E010E041
:1006900026E030E044E050E061E070E0CD010E94EF
:1006A000840007C100E010E02EE030E044E050E0BC
:1006B00061E070E0CD010E948400FBC001E010E029
:1006C0002DE030E044E050E061E070E0CD010E94B8
:1006D0008400EFC000E010E02FE030E045E050E0A3
:1006E00060E070E0CD010E948400E3C002E010E011
:1006F00020E030E048E050E060E070E0CD010E9492
:100700008400D7C001E010E021E030E041E050E09B
:1007100060E070E0CD010E948400CBC008E010E0F2
:1007200026E030E044E050E068E070E0CD010E9457
:100730008400BFC001E010E024E030E044E050E07D
:1007400060E070E0CD010E948400B3C000E010E0E2
:1007500025E030E047E050E068E070E0CD010E9425
:100760008400A7C008E010E025E030E047E050E05A
:1007700060E070E0CD010E9484009BC001E010E0C9
:1007800025E030E045E050E061E070E0CD010E94FE
:1007900084008FC000E010E02EE030E045E050E043
:1007A00061E070E0CD010E94840083C009E010E0A8
:1007B00025E030E045E050E061E070E0CD010E94CE
:1007C000840077C008E010E02EE030E045E050E023
:1007D00061E070E0CD010E9484006BC001E010E098
:1007E0002BE030E044E050E061E070E0CD010E9499
:1007F00084005FC002E010E020E030E048E050E01C
:1008000061E070E0CD010E94840053C001E010E07F
:1008100025E030E045E050E060E070E0CD010E946E
:10082000840047C004E010E024E030E044E050E001
:1008300068E070E0CD010E9484003BC003E010E05E
:1008400025E030E045E050E060E070E0CD010E943E
:1008500084002FC00CE010E020E030E042E050E0E7
:1008600068E070E0CD010E94840023C002E010E047
:1008700020E030E042E050E068E070E0CD010E940E
:10088000840017C005E010E020E030E040E050E0D8
:1008900069E070E0CD010E9484000BC002E010E02E
:1008A00028E030E041E050E061E070E0CD010E94DE
:1008B00084001F910F9108958F929F92AF92BF92E3
:1008C000CF92DF92EF92FF920F931F93CF93DF931C
:1008D000161617061806190604F13DC08E010150C0
:1008E0001109A50194010E949D05C22ED32EE42E6C
:1008F000F52E862FBE01805D0E948B026C2D7D2D12
:100900008E2D9F2D0F3F2FEF120729F1E8011616AC
:1009100017061806190614F31EC02AE030E040E05E
:1009200050E00E949D05022F132FD42FC52F862F34
:1009300065E070E0805D0E948B02602F712F8D2F2B
:100940009C2FC4E0D0E00F2EFAE08F2E912CA12C2A
:10095000B12CF02DDCCFDF91CF911F910F91FF9043
:10096000EF90DF90CF90BF90AF909F908F900895C1
:1009700087EB8093E50087E08093E6008FE080932B
:10098000E70080E88093E400089527982F9A83B1C8
:10099000082E000C990B80959095892F881F882729
:1009A000881F8093000110920101089583B1209166
:1009B000000130910101082E000C990B8827990F36
:1009C000881F992728173907A1F081E090E02115A9
:1009D000310511F080E090E09093010180930001D7
:1009E000232B39F49091EF0081E0911180E0809306
:1009F000EF0008950E947300892B39F09091FE005A
:100A000081E0911180E08093FE000895CF92DF9203
:100A1000EF92FF92CF93DF936B017C0183E0C816C6
:100A2000D104E104F1047CF1D701C601817099275A
:100A3000AA27B078BB2354F40197A109B1098E6F9E
:100A40009F6FAF6FBF6F0196A11DB11D892B8A2BC0
:100A50008B2BE1F0C2E0D0E008C0C701B6010E94D4
:100A60009D05672B682B692BA1F021969E010D2E09
:100A7000000C440B550B2C153D054E055F056CF322
:100A800081E090E008C081E090E005C080E090E067
:100A900002C080E090E0DF91CF91FF90EF90DF9077
:100AA000CF9008958F929F92AF92BF92CF92DF9294
:100AB000EF92FF92C0900201D0900301E0900401F8
:100AC000F090050146015701C701B6010E940605D5
:100AD0002FEFC21AD20AE20AF20A892B99F3C092C6
:100AE0000201D0920301E0920401F0920501C501D8
:100AF000B4010E945C04FF90EF90DF90CF90BF9014
:100B0000AF909F908F9008950E94C5040E94B804F2
:100B10000E946D0082E090E0A0E0B0E080930201CE
:100B200090930301A0930401B09305010E94FA047D
:100B30000E9452050E94D604F9CF052E97FB1EF4A1
:100B400000940E94B40557FD07D00E94C20507FC1F
:100B500003D04EF40C94B4055095409530952195F2
:100B60003F4F4F4F5F4F08959095809570956195D9
:100B70007F4F8F4F9F4F0895EE0FFF1F0590F49109
:100B8000E02D0994A1E21A2EAA1BBB1BFD010DC08A
:100B9000AA1FBB1FEE1FFF1FA217B307E407F5072D
:100BA00020F0A21BB30BE40BF50B661F771F881F09
:100BB000991F1A9469F760957095809590959B019F
:0C0BC000AC01BD01CF010895F894FFCFF7
:00000001FF
