S00D00004C616262312E7372656375
S11300000C9438000C944A000C944A000C944A0056
S11300100C944A000C944A000C944A000C944A0034
S11300200C944A000C944A000C944A000C944A0024
S11300300C944A000C944A000C944A000C944A0014
S11300400C944A000C944A000C944A000C944A0004
S11300500C944A000C944A000C944A00DF02EB0210
S1130060F70203030F031B03270333033F034B036D
S113007011241FBECFEFD4E0DEBFCDBF21E0A0E04E
S1130080B1E001C01D92A430B207E1F70E94E5037C
S11300900C9445040C94000027982F9A089583B17A
S11300A0881F8827881F8093EF000895E1E8F0E017
S11300B0808184608083089580918400909185007C
S11300C08835984438F0109285001092840081E0BD
S11300D090E0089580E090E008950E945C00892BF0
S11300E039F09091FE0081E0911180E08093FE0050
S11300F00895CF92DF92EF92FF92CF93DF936B013B
S11301007C0183E0C816D104E104F1047CF1D70139
S1130110C60181709927AA27B078BB2354F40197AC
S1130120A109B1098E6F9F6FAF6FBF6F0196A11DBB
S1130130B11D892B8A2B8B2BE1F0C2E0D0E008C0E3
S1130140C701B6010E94FE03672B682B692BA1F03F
S113015021969E010D2E000C440B550B2C153D05CC
S11301604E055F056CF381E090E008C081E090E00B
S113017005C080E090E002C080E090E0DF91CF9184
S1130180FF90EF90DF90CF900895CF92DF92EF929F
S1130190FF920F931F9399230CF4F7C182309105BA
S11301A08CF4E091EC00019709F09BC048C004C0B6
S11301B0000F111F221F331F9A95D2F7082B0093AB
S11301C0FB00E3C1843091058CF4E091ED000397CA
S11301D009F09FC0B6C004C0000F111F221F331FB7
S11301E09A95D2F7082B0093FC00CFC18630910575
S11301F08CF4E091EE00059709F0F5C00CC104C041
S1130200000F111F221F331F9A95D2F7082B00935A
S1130210FD00BBC1883091050CF0B7C1E091EF003F
S1130220079709F04AC161C104C0000F111F221FC2
S1130230331F9A95D2F7082B0093FE00A6C19E2F78
S11302409F706B01E12CF12CCC0CDD1CEE1CFF1C0F
S1130250CC0CDD1CEE1CFF1CCC0CDD1CEE1CFF1CAE
S1130260CC0CDD1CEE1CFF1CE92FEC29E093EC0008
S1130270E1EFF0E080818F7060E070E0440F551F83
S1130280661F771F440F551F661F771F440F551FA6
S1130290661F771F440F551F661F771F482B408327
S11302A0E6EFF0E08081482F4F70C901A0E0B0E094
S11302B0880F991FAA1FBB1F880F991FAA1FBB1F56
S11302C0880F991FAA1FBB1F880F991FAA1FBB1F46
S11302D0842B80838091FB008F7020E030E094E0D9
S11302E066CF8E2F807F862B8093EC00E1EFF0E0C9
S11302F08081807F482B4083E6EFF0E08081807F1F
S1130300822B80838091FB00807F20E030E090E0AE
S11303104ECF8E2F807F862B8093ED00E2EFF0E0AE
S11303208081807F482B4083E7EFF0E08081807FED
S1130330822B80838091FC00807F20E030E090E07D
S11303404ACF9E2F9F706B01E12CF12CCC0CDD1C4D
S1130350EE1CFF1CCC0CDD1CEE1CFF1CCC0CDD1CAD
S1130360EE1CFF1CCC0CDD1CEE1CFF1CE92FEC2941
S1130370E093ED00E2EFF0E080818F7060E070E0E8
S1130380440F551F661F771F440F551F661F771FA5
S1130390440F551F661F771F440F551F661F771F95
S11303A0482B4083E7EFF0E08081482F4F70C9016C
S11303B0A0E0B0E0880F991FAA1FBB1F880F991FE8
S11303C0AA1FBB1F880F991FAA1FBB1F880F991F45
S11303D0AA1FBB1F842B80838091FC008F7020E0B8
S11303E030E094E0F8CE8E2F807F862B8093EE0051
S11303F0E3EFF0E08081807F482B4083E8EFF0E07A
S11304008081807F822B80838091FD00807F20E02B
S113041030E090E0F4CE6B01E12CF12CCC0CDD1C2F
S1130420EE1CFF1CCC0CDD1CEE1CFF1CCC0CDD1CDC
S1130430EE1CFF1CCC0CDD1CEE1CFF1C9E2F9F70C1
S1130440E92FEC29E093EE00E3EFF0E0808160E037
S113045070E0440F551F661F771F440F551F661F1A
S1130460771F440F551F661F771F440F551F661FC4
S1130470771F8F70482B4083E8EFF0E04081C9017B
S1130480A0E0B0E0880F991FAA1FBB1F880F991F17
S1130490AA1FBB1F880F991FAA1FBB1F880F991F74
S11304A0AA1FBB1F242F2F70822B80838091FD00F5
S11304B08F7020E030E094E0A2CE8E2F807F862BD8
S11304C08093EF00E3EFF0E08081807F482B40834E
S11304D0E9EFF0E08081807F822B80838091FE00B1
S11304E0807F20E030E090E09FCECB01A0E0B0E040
S11304F0880F991FAA1FBB1F880F991FAA1FBB1F14
S1130500880F991FAA1FBB1F880F991FAA1FBB1F03
S1130510EF708E2B8093EF00E3EFF0E0808160E0DA
S113052070E0440F551F661F771F440F551F661F49
S1130530771F440F551F661F771F440F551F661FF3
S1130540771F8F70482B4083E9EFF0E04081C901A9
S1130550A0E0B0E0880F991FAA1FBB1F880F991F46
S1130560AA1FBB1F880F991FAA1FBB1F880F991FA3
S1130570AA1FBB1F242F2F70822B80838091FE0023
S11305808F7020E030E094E04FCE1F910F91FF90E8
S1130590EF90DF90CF9008950F931F93663071050D
S11305A008F090C0DB01482F50E0FA01F097EA30E0
S11305B0F10508F07CC0E25DFF4F0C941D0405E0DA
S11305C010E025E030E045E050E069E070E0CD0166
S11305D00E94C50077C000E010E021E030E041E077
S11305E050E060E070E0CD010E94C5006BC005E002
S11305F010E028E030E041E050E061E070E0CD013F
S11306000E94C5005FC001E010E02BE030E041E053
S113061050E061E070E0CD010E94C50053C000E0ED
S113062010E02BE030E045E050E060E070E0CD0108
S11306300E94C50047C001E010E02BE030E044E038
S113064050E061E070E0CD010E94C5003BC001E0D4
S113065010E02FE030E044E050E061E070E0CD01D4
S11306600E94C5002FC004E010E020E030E040E02C
S113067050E069E070E0CD010E94C50023C001E0B4
S113068010E02FE030E045E050E061E070E0CD01A3
S11306900E94C50017C001E010E02BE030E045E007
S11306A050E061E070E0CD010E94C5000BC002E0A3
S11306B010E028E030E041E050E061E070E0CD017E
S11306C00E94C5001F910F9108958F929F92AF923F
S11306D0BF92CF92DF92EF92FF920F931F93CF932B
S11306E0DF9316161706180619061CF5C5E0D0E0A8
S11306F00F2EFAE08F2E912CA12CB12CF02D8E010F
S113070001501109A50194010E94FE03C22ED32EAB
S1130710E42EF52E862FBE01805D0E94CC026C2D46
S11307207D2D8E2D9F2DE801161617061806190625
S113073034F3DF91CF911F910F91FF90EF90DF90F1
S1130740CF90BF90AF909F908F9008958F929F927B
S1130750AF92BF92CF92DF92EF92FF92C0900001CE
S1130760D0900101E0900201F0900301460157018D
S1130770C701B6010E9479002FEFC21AD20AE20A19
S1130780F20A892B99F3C0920001D0920101E09200
S11307900201F0920301C501B4010E946503FF90B8
S11307A0EF90DF90CF90BF90AF909F908F9008957F
S11307B087EB8093E50087E08093E6008FE08093E9
S11307C0E70080E88093E40008950E944C000E94B2
S11307D0D8030E94560082E090E0A0E0B0E080934D
S11307E0000190930101A0930201B09303010E94C0
S11307F06D000E94A6030E944F00F9CF052E97FBBF
S11308001EF400940E94150457FD07D00E9423048F
S113081007FC03D04EF40C94150450954095309584
S113082021953F4F4F4F5F4F089590958095709558
S113083061957F4F8F4F9F4F0895EE0FFF1F0590D7
S1130840F491E02D0994A1E21A2EAA1BBB1BFD0111
S11308500DC0AA1FBB1FEE1FFF1FA217B307E4079B
S1130860F50720F0A21BB30BE40BF50B661F771FF3
S1130870881F991F1A9469F76095709580959095D3
S11108809B01AC01BD01CF010895F894FFCF98
S9030000FC
