S00D00004C616262312E7372656375
S11300000C9438000C944A000C944A000C944A0056
S11300100C944A000C944A000C944A000C944A0034
S11300200C944A000C944A000C944A000C944A0024
S11300300C944A000C944A000C944A000C944A0014
S11300400C944A000C944A000C944A000C944A0004
S11300500C944A000C944A000C944A000A031603B8
S113006022032E033A03460352035E036A03760314
S113007011241FBECFEFD4E0DEBFCDBF21E0A0E04E
S1130080B1E001C01D92A630B207E1F70E9410044E
S11300900C9470040C94000027982F9A83B1082EB6
S11300A0000C990B80959095892F881F8827881FAD
S11300B08093000110920101089583B12091000101
S11300C030910101082E000C990B8827990F881F85
S11300D0992728173907A1F081E090E0211531050F
S11300E011F080E090E09093010180930001232BB4
S11300F039F49091EF0081E0911180E08093EF005A
S11301000895E1E8F0E0808184608083089580911F
S11301108400909185008835984438F010928500C9
S11301201092840081E090E0089580E090E00895CA
S11301300E948700892B39F09091FE0081E0911193
S113014080E08093FE000895CF92DF92EF92FF92B9
S1130150CF93DF936B017C0183E0C816D104E104E3
S1130160F1047CF1D701C60181709927AA27B078E0
S1130170BB2354F40197A109B1098E6F9F6FAF6F30
S1130180BF6F0196A11DB11D892B8A2B8B2BE1F02A
S1130190C2E0D0E008C0C701B6010E942904672B61
S11301A0682B692BA1F021969E010D2E000C440BA7
S11301B0550B2C153D054E055F056CF381E090E071
S11301C008C081E090E005C080E090E002C080E0DB
S11301D090E0DF91CF91FF90EF90DF90CF90089562
S11301E0CF92DF92EF92FF920F931F9399230CF417
S11301F0F7C1823091058CF4E091EC00019709F08D
S11302009BC048C004C0000F111F221F331F9A95C2
S1130210D2F7082B0093FB00E3C1843091058CF4E2
S1130220E091ED00039709F09FC0B6C004C0000F31
S1130230111F221F331F9A95D2F7082B0093FC003D
S1130240CFC1863091058CF4E091EE00059709F05A
S1130250F5C00CC104C0000F111F221F331F9A9553
S1130260D2F7082B0093FD00BBC1883091050CF038
S1130270B7C1E091EF00079709F04AC161C104C01A
S1130280000F111F221F331F9A95D2F7082B0093DA
S1130290FE00A6C19E2F9F706B01E12CF12CCC0CAB
S11302A0DD1CEE1CFF1CCC0CDD1CEE1CFF1CCC0C5E
S11302B0DD1CEE1CFF1CCC0CDD1CEE1CFF1CE92F0E
S11302C0EC29E093EC00E1EFF0E080818F7060E0D6
S11302D070E0440F551F661F771F440F551F661F9C
S11302E0771F440F551F661F771F440F551F661F46
S11302F0771F482B4083E6EFF0E08081482F4F7052
S1130300C901A0E0B0E0880F991FAA1FBB1F880F86
S1130310991FAA1FBB1F880F991FAA1FBB1F880FF5
S1130320991FAA1FBB1F842B80838091FB008F70B1
S113033020E030E094E066CF8E2F807F862B809380
S1130340EC00E1EFF0E08081807F482B4083E6EF12
S1130350F0E08081807F822B80838091FB00807F0E
S113036020E030E090E04ECF8E2F807F862B80936C
S1130370ED00E2EFF0E08081807F482B4083E7EFDF
S1130380F0E08081807F822B80838091FC00807FDD
S113039020E030E090E04ACF9E2F9F706B01E12C6B
S11303A0F12CCC0CDD1CEE1CFF1CCC0CDD1CEE1C5B
S11303B0FF1CCC0CDD1CEE1CFF1CCC0CDD1CEE1C4D
S11303C0FF1CE92FEC29E093ED00E2EFF0E08081DF
S11303D08F7060E070E0440F551F661F771F440F55
S11303E0551F661F771F440F551F661F771F440F45
S11303F0551F661F771F482B4083E7EFF0E080818D
S1130400482F4F70C901A0E0B0E0880F991FAA1FC0
S1130410BB1F880F991FAA1FBB1F880F991FAA1FF4
S1130420BB1F880F991FAA1FBB1F842B8083809139
S1130430FC008F7020E030E094E0F8CE8E2F807FB7
S1130440862B8093EE00E3EFF0E08081807F482BE1
S11304504083E8EFF0E08081807F822B808380916D
S1130460FD00807F20E030E090E0F4CE6B01E12CD1
S1130470F12CCC0CDD1CEE1CFF1CCC0CDD1CEE1C8A
S1130480FF1CCC0CDD1CEE1CFF1CCC0CDD1CEE1C7C
S1130490FF1C9E2F9F70E92FEC29E093EE00E3EF01
S11304A0F0E0808160E070E0440F551F661F771F05
S11304B0440F551F661F771F440F551F661F771F74
S11304C0440F551F661F771F8F70482B4083E8EF3A
S11304D0F0E04081C901A0E0B0E0880F991FAA1F95
S11304E0BB1F880F991FAA1FBB1F880F991FAA1F24
S11304F0BB1F880F991FAA1FBB1F242F2F70822B8D
S113050080838091FD008F7020E030E094E0A2CEE3
S11305108E2F807F862B8093EF00E3EFF0E08081C5
S1130520807F482B4083E9EFF0E08081807F822B3D
S113053080838091FE00807F20E030E090E09FCEB9
S1130540CB01A0E0B0E0880F991FAA1FBB1F880F42
S1130550991FAA1FBB1F880F991FAA1FBB1F880FB3
S1130560991FAA1FBB1FEF708E2B8093EF00E3EF40
S1130570F0E0808160E070E0440F551F661F771F34
S1130580440F551F661F771F440F551F661F771FA3
S1130590440F551F661F771F8F70482B4083E9EF68
S11305A0F0E04081C901A0E0B0E0880F991FAA1FC4
S11305B0BB1F880F991FAA1FBB1F880F991FAA1F53
S11305C0BB1F880F991FAA1FBB1F242F2F70822BBC
S11305D080838091FE008F7020E030E094E04FCE65
S11305E01F910F91FF90EF90DF90CF9008950F939C
S11305F01F936630710508F090C0DB01482F50E06E
S1130600FA01F097EA30F10508F07CC0E25DFF4F93
S11306100C94480405E010E025E030E045E050E0AB
S113062069E070E0CD010E94F00077C000E010E0C6
S113063021E030E041E050E060E070E0CD010E9454
S1130640F0006BC005E010E028E030E041E050E04D
S113065061E070E0CD010E94F0005FC001E010E0B5
S11306602BE030E041E050E061E070E0CD010E9419
S1130670F00053C000E010E02BE030E045E050E033
S113068060E070E0CD010E94F00047C001E010E09E
S11306902BE030E044E050E061E070E0CD010E94E6
S11306A0F0003BC001E010E02FE030E044E050E017
S11306B061E070E0CD010E94F0002FC004E010E082
S11306C020E030E040E050E069E070E0CD010E94BD
S11306D0F00023C001E010E02FE030E045E050E0FE
S11306E061E070E0CD010E94F00017C001E010E06D
S11306F02BE030E045E050E061E070E0CD010E9485
S1130700F0000BC002E010E028E030E041E050E0EF
S113071061E070E0CD010E94F0001F910F910895F7
S11307208F929F92AF92BF92CF92DF92EF92FF92FD
S11307300F931F93CF93DF93161617061806190607
S11307401CF5C5E0D0E00F2EFAE08F2E912CA12CE1
S1130750B12CF02D8E0101501109A50194010E94C4
S11307602904C22ED32EE42EF52E862FBE01805DE1
S11307700E94F7026C2D7D2D8E2D9F2DE8011616FB
S113078017061806190634F3DF91CF911F910F91C4
S1130790FF90EF90DF90CF90BF90AF909F908F909D
S11307A008958F929F92AF92BF92CF92DF92EF9271
S11307B0FF92C0900201D0900301E0900401F090F8
S11307C0050146015701C701B6010E94A4002FEF9D
S11307D0C21AD20AE20AF20A892B99F3C0920201E0
S11307E0D0920301E0920401F0920501C501B40125
S11307F00E949003FF90EF90DF90CF90BF90AF9056
S11308009F908F90089587EB8093E50087E0809315
S1130810E6008FE08093E70080E88093E400089589
S11308200E944C000E9403040E94810082E090E038
S1130830A0E0B0E08093020190930301A09304012F
S1130840B09305010E9498000E94D1030E945D00AC
S1130850F9CF052E97FB1EF400940E94400457FD27
S113086007D00E944E0407FC03D04EF40C944004BD
S113087050954095309521953F4F4F4F5F4F0895C8
S113088090958095709561957F4F8F4F9F4F0895F8
S1130890EE0FFF1F0590F491E02D0994A1E21A2EAA
S11308A0AA1BBB1BFD010DC0AA1FBB1FEE1FFF1F10
S11308B0A217B307E407F50720F0A21BB30BE40B60
S11308C0F50B661F771F881F991F1A9469F76095A7
S11308D07095809590959B01AC01BD01CF01089561
S10708E0F894FFCFB6
S9030000FC
